:020000040C00EE
:1000000048100030CD23000CA123000CA323000CCA
:10001000A523000CA723000CA923000CAB23000C84
:10002000000000000000000000000000AD23000CF4
:10003000AF23000C00000000B123000CB323000C20
:10004000E523000CE923000CED23000CF123000C48
:10005000F523000CF923000CFD23000C0124000CF7
:10006000B723000C0524000C0924000C0D24000CFF
:100070001124000C1524000C1924000C1D24000C64
:100080002124000C2524000C2924000C2D24000C14
:100090003124000C3524000C3924000C3D24000CC4
:1000A0004124000C4524000C4924000C4D24000C74
:1000B0005124000C5524000C5924000C5D24000C24
:1000C0006124000C6524000C6924000C6D24000CD4
:1000D0007124000C7524000C7924000C7D24000C84
:1000E0008124000C8524000C8924000C8D24000C34
:1000F0009124000C9524000C9924000C9D24000CE4
:10010000A124000CA524000CA924000CAD24000C93
:10011000B124000CB524000CB924000CBD24000C43
:10012000C124000CC524000CC924000CCD24000CF3
:10013000D124000CD524000CD924000CDD24000CA3
:10014000E124000CE524000CE924000CED24000C53
:10015000F124000CF524000CF924000CFD24000C03
:100160002DE9F84F040073D02068DFF8FC9830B117
:100170000009000103D04FF4AB7100F0D7FADFF8AB
:10018000C858D5F81C80AE6A207808F00C0806F034
:100190000306C1073ED56068002818BFB0F5803F50
:1001A00003D040F25F1100F0C1FAB8F1080F04D09B
:1001B000B8F10C0F08BF032E79D16068002847D032
:1001C000B8F1080F26D1A068002818BFB0F5801F2D
:1001D00003D04FF4B77100F0A9FA2968A068012292
:1001E00021F48811014341F4803129602868DFF847
:1001F0008018000D00F001008240B1FBF2F1DFF841
:100200006428DFF868081160006800F091FC00289D
:1002100040F05F822078810723D52069002818BF2D
:10022000B0F5807F03D04FF4D67100F07FFA60699B
:10023000202803D340F2AD1100F078FAB8F1000F96
:1002400004D0B8F10C0F08BF022E5FD1206900283E
:1002500000F03F822869616920F4F81040EA01400B
:1002600028612078DFF80C78010740F1D680A0697A
:1002700000281CBFB0F1806FB0F1005F03D04FF4D5
:10028000F77100F053FA3868002600F052FA5ED495
:1002900000F064FA8246DBF80000C10757D400F092
:1002A00091FCA0EB0A000328F5D30320E8E1606885
:1002B000E8B1A068002818BFB0F5801F03D040F255
:1002C000831100F033FA2A686068A16822F488126A
:1002D00002430A432A6000F075FC07462868810340
:1002E00098D400F06FFCC01B6528F7D3DDE72868C1
:1002F00020F4881000F03EFA07462868810389D56B
:1003000000F060FCC01B6528F7D3CEE7206978B108
:10031000296841F48071296000F054FC0646286881
:10032000410597D400F04EFC801B0328F7D3BCE7AF
:10033000286820F4807000F01DFA06462868410500
:100340008FD500F03FFC801B0328F7D3ADE7D7F82B
:100350005CA0A06900284ED0400125D5E0690028A6
:1003600018BFB0F1805F03D040F21A2100F0DEF92F
:10037000E0690AF08051884211D05FEA0A100ED578
:100380002AF0806A00F0E6F98346F86D010106D58F
:1003900000F018FCA0EB0B001528F6D385E7E16907
:1003A0002AF0805041EA000AA06940EA0A0A00F0F7
:1003B000D1F90090D346A169F86D10EA410F06D13A
:1003C00000F000FC0099401A1528F4D36DE781F085
:1003D000105A2BEA0A0BC7F85CB000F0F3FB834617
:1003E000F86D10EA4A0F16D000F0ECFBA0EB0B0002
:1003F0001528F5D359E72AF0105A00F0ABF98246D8
:10040000F86D10F0904F06D000F0DCFBA0EB0A0076
:100410001528F5D349E700F07FF9217848076CD516
:10042000E0680026002818BF012808D081281CBFDA
:100430000528852803D04FF41F7100F077F938683C
:1004400000F077F90DD400F089F98246DBF800005E
:10045000C10706D400F0B6FBA0EB0A000328F5D3D1
:1004600023E7E06841F2893A28B3F96D21F0800171
:100470000843F86500F0A6FB8346F86D810705D4B4
:1004800000F0A0FB00F04EF9F7D30EE7207B010649
:1004900008D5F86D01052ED400F094FB00F042F968
:1004A000F7D302E7F86D010525D500F08BFB00F0CE
:1004B00039F9F7D3F9E6F86D20F08100F865F86DA9
:1004C00020F00400F86500F07DFB8346F86D81079D
:1004D00005D500F077FB00F025F9F7D3E5E6F86DD8
:1004E000010608D5F86D010505D500F06BFB00F09D
:1004F00019F9F7D3D9E600F00FF9206A002809D0DE
:10050000012818BF022807D040F2EB2100F00EF9B5
:10051000206A002800F0B380206AB8F10C0F00F0C8
:10052000B180022840F09A80606A022818BF032830
:1005300003D040F2F52100F0F9F8A06A08B10928CB
:1005400003D340F2F62100F0F1F8E06A40F2FD1129
:10055000001F884203D340F2F72100F0E7F8206B38
:1005600008B1812803D34FF43E7100F0DFF8606BCF
:1005700008B1812803D340F2F92100F0D7F8A06B2D
:1005800008B1812803D340F2FA2100F0CFF800F03F
:10059000EEF807462E6800F015FBC01B0328A9D211
:1005A000B001F7D4616A032906D1360DDFF8C00423
:1005B00006F00106F04001E0DFF8A404A26ADFF8CB
:1005C0004415B0FBF2F8DFF840054044884203D3FD
:1005D00040F21B3100F0AAF8DFF8300580452CBF4F
:1005E0000C220022AB6A616ADFF824050340A06A8E
:1005F0000B431A43401E42EA002242F48022AA62C0
:10060000E06A216B401E491E40EA4120616B491E91
:1006100040EA0140A16B491E40EA01606863E06B5B
:1006200068B1B0F5005F03D34FF44E7100F07EF86F
:10063000E06BC000A863A86A40F01000A8622868B8
:1006400040F0807000F096F804462868810116D4C6
:1006500000F0B8FA001B0328F7D326E600F087F86D
:1006600004462868810105D500F0ACFA001B032878
:10067000F7D31AE6A96ADFF89C040140A9620020BA
:10068000BDE8F28F012824D0A86A696B636A00F084
:1006900003029A4201BFC0F30220401CA26A9042AA
:1006A00017D1E26AC1F30800401C904201BFC1F3B8
:1006B0004620401C226B90420BD1626BC1F3064076
:1006C000401C904201BFC1F30660401CA16B8842F0
:1006D00001D00120D4E7A96BE06BC1F3CC018842C3
:1006E000CDD0B0F5005F03D340F2833100F01EF8A7
:1006F000A86A20F01000A86200F064FA064600F034
:1007000061FA801BFBD0E16B2846C9008163816AD6
:1007100041F010018162B2E71EB1386820F0040098
:1007200038607047A0EB0B0050457047484600F01A
:1007300017BC410709D43A68012642F004023A6026
:10074000386800F0040000900099DFF8CC030168DD
:10075000CA077047C7F85CA000F034BA8346DBF8DC
:10076000000040F00100CBF8000000F02BBA286830
:1007700020F08070286000F025BA2DE9F8430400CD
:100780000D4600F028812068DFF8DC8210F03F0F72
:1007900002D08009800103D040F2D53100F06CF91D
:1007A000002D18BF012D1FD0022D18BF032D1BD007
:1007B000042D18BF052D17D0062D18BF072D13D0F7
:1007C000082D18BF092D0FD00A2D18BF0B2D0BD0E7
:1007D0000C2D18BF0D2D07D00E2D18BF0F2D03D0D7
:1007E00040F2D63100F048F9DFF8309300F008F914
:1007F00009D2D9F80010090945EA0111C9F8001019
:1008000000F0FEF867D12178880620D5E06900283D
:1008100018BF102803D040F2EF3100F02DF9A06985
:10082000002818BF042808D005281CBF0628072860
:1008300003D04FF47C7100F01FF9DFF81022136829
:10084000A069E16923F0170303430B431360207889
:10085000DFF8F461C10751D56068D8B93068400548
:1008600039D5F1696068890840EA8101F16100F0D9
:10087000A9F907466068F16901F00C01B1EB800F3E
:100880002AD000F09FF9C01B41F289318842F1D390
:100890000320B3E0022808BF30681AD0032808BF3D
:1008A000306807D04FF47E7100F0E6F83068616878
:1008B00003290CD180010ED5F16901F00C010C293E
:1008C000CFD0B16A012060F31551B162C9E70229A6
:1008D000C5D18003C5D47EE003280FD1B06A20F4CF
:1008E0008010B06200F06EF90746B06A410205D48C
:1008F00000F068F9C01B0B28F7D3C9E7376A2178E5
:1009000000208A0712D5A068002818BF042808D044
:1009100005281CBF0628072803D040F2554100F0E7
:10092000ABF8FF08F800A7680743012021784A07C1
:1009300012D5E068002818BF402808D050281CBFF6
:100940006028702803D040F2614100F095F827F04C
:100950007000E7680743012021780A0713D5206952
:10096000002818BF402808D050281CBF60287028D5
:1009700003D040F26C4100F07FF8206927F4E06773
:1009800047EA001700E000B137622078C1060FD5B2
:100990006069002818BF402808D050281CBF602874
:1009A000702803D040F27D4100F066F86069706203
:1009B000D9F8001001F00F018D420ED2D9F80000D5
:1009C000000945EA0010C9F80000D9F8001001F04C
:1009D0000F01A94201D0012010E000F017F8326A9F
:1009E000DFF83C111F4B02F00702895CC840186019
:1009F0001E480068BDE8F24300F09AB8BDE8F283F3
:100A0000D9F8000000F00F00A84270470E49C869ED
:100A100010F00C0001D112487047082818BF00F0F0
:100A200017B80968DFF8FC00090D01F00101C840A2
:100A3000704710EE100A491CB0FBF1F010BD3A48A7
:100A400004681DE000000000000C0256000E025673
:100A500010B5FFF7F4FFBCEEC00AC4F30661E8E787
:100A60000024F4000C0000306022000C080000306C
:100A70000048E801940C0256404600F071BA0000AC
:100A80002A48416BC1F30801491C00EE101A816A23
:100A9000B8EE400AC1F30222521C00EE902AF8EE92
:100AA000600ACA0643BF826BC2F3CC0201EE102A71
:100AB0009FED111A01F00301B8EE411A022902D08C
:100AC000032903D00DE0DFED0D1A0CE00068154995
:100AD000000D00F00100C14001EE901AF8EE611A1D
:100AE00001E0DFED051AC1EEA00ADFED051A01EE07
:100AF000210A20EE800A7047000000000024744B99
:100B000000000039011BB70000F7C2FF01127A0094
:100B1000E0F8FFFFFCFFF8FF280802560020025013
:100B2000FC1E000C0048E801340C0256000C025672
:100B3000F8B504461F4D2878002100282ED01E4A03
:100B400012681E4B1E68770702D54FF47A710DE0CC
:100B50001B4B1B6813F4400306D0B3F5800F08D07D
:100B6000B3F5000F0ED015E04FF4FA51B1FBF0F0E1
:100B70000EE04FF47A72B2FBF0F24FF4FA43B3FB9B
:100B8000F2F107E04FF47A71B1FBF0F04FF400425C
:100B9000B2FBF0F1084600F07DFA08B10120F2BD89
:100BA000002221464FF0FF3000F011FAAC60002027
:100BB000F2BD00BF000000300C00003010E000E08B
:100BC000E00C025601484068704700BF000000304A
:100BD00018B58DB000F0B8FA00F05FF800F0AEF88C
:100BE00000F0C3F800F0E6F81821002207A800F092
:100BF000C5FA1C2100F0B5F8002046F20F0107905D
:100C000008910A900B90BC4C07A9204600F0DDFA31
:100C100008B100F0A3F90020009003900490059023
:100C20006946204600F01DFB08B100F097F9204608
:100C300000F0B5FA08B100F091F900F075FB00F092
:100C400001F8FEE780B5AD48AD490860026882F35F
:100C5000888840682DE9F00FA2B020F001002DEC4B
:100C6000000A014602460346044605460646074674
:100C70008046814682468346844680F300888447C6
:100C8000EFF3148515F0080F18BFB0EE400A3DECE5
:100C9000000A22B0BDE8F00F01BD80B598B0402138
:100CA000002208A800F06AFA202100F05AF8022079
:100CB00000F076FB4FF4803000F03EFB08B100F00E
:100CC0004DF900F0ABFB8F480268012161F3C402CB
:100CD0004FF480310260002209910A9281214FF481
:100CE000807207200B910C920890102100220D9128
:100CF000109208A8FFF734FA08B100F02FF902218A
:100D0000019100223F200292002100900391402295
:100D1000059106910791049201216846FFF72DFD88
:100D200008B100F01BF9022000F0C8F90F20FFF70E
:100D3000FFFE08B100F012F919B000BD80B592B005
:100D4000482100F00EF84FF400414FF4802200914A
:100D50001192684600F06CFB08B100F0FFF813B088
:100D600000BD0022684600F009BA00B58BB02C2106
:100D7000FFF7F7FF00210091019102910391049187
:100D8000059106910791089109910A9169465E487B
:100D900000F06EFD08B100F0E1F80020029006902E
:100DA0000A906946594800F063FD08B100F0D6F892
:100DB0000BB000BD38B586B01421002201A800F0A8
:100DC000DDF953480268534C534D42F00202026071
:100DD000016801F002010091009A036843F00103E9
:100DE0000360016801F001010091009902684FF46D
:100DF000865142F0040202600068002200F0040004
:100E000000900098204600F03BFF00224FF4C241C2
:100E1000284600F035FF00224FF400513F4800F013
:100E20002FFF00224FF48071204600F029FF00229E
:100E30004FF40071284600F023FF01210291102099
:100E40000221019000220491039201A9204600F0A2
:100E5000C7FD07B030BD1CB53148026842F004023E
:100E6000026001682F4A01F00401009100991168A5
:100E7000490740D5006E00283DD12B48002101656F
:100E80001E4A42652949816501220265284941655A
:100E9000284A826502210165274A42652749816502
:100EA0000322026526494165264A826504210165BF
:100EB0004FF0804242652449816501228264416885
:100EC0000422042441F44061416020490B6862F32C
:100ED0009C630B601E491F4A0A601F4B4B608C606D
:100EE000016841F470010160FFF764FFFFF73DFF07
:100EF000BDE81340A6E613BD10000030000008084E
:100F000008ED02E0F00C02560000013000800258AB
:100F10008C0C0256000402520000025200080252D9
:100F2000940C02563808025688ED00E0E1FF0F08E5
:100F30000080F80BE17FF90B00E0070CE3FF070CE2
:100F400000000120E1FF0120E1FFFF4F34EF00E04E
:100F500080E300E0040206610040082872B6FEE764
:100F6000704730B5016884684218416802EB51034C
:100F7000C90703D54C4401E0491C08D19A4218BF67
:100F800012F9011B01D10C3030BD12F8015B0029B0
:100F900004F8015BF0D4491EF7D5EFE710B504461D
:100FA000072C18BF062C07D0052C1CBF042C032CC3
:100FB00002D0B72100F0B7F8DFF87001016840F205
:100FC000FA5264F30A2162F31F41016010BD2DE95A
:100FD000F84F80460E46DFF854010168012514469B
:100FE000C1F30227DFF848A1032F01D234B909E089
:100FF00007F1FD0205FA02F2944203D3D1215046D3
:10100000FFF7AEFFC7F10709C7F1070B05FA09F9AA
:10101000BBF1030F02D84E4502D205E00F2E03D9D3
:10102000D2215046FFF79CFFBBF1050F2CBF4FF0BC
:101030000F09A9F10109381D072834BF0027FF1E39
:10104000BD4009EA06066D1EBE402C402643300115
:101050005FEA080103D4DFF8DC20505406E0DFF833
:10106000D83001F00F01194401F8040CBDE8F18FEC
:10107000010001D5E32109E0012200F01F018A40AF
:10108000DFF8B830400943F820207047DFF8A000AF
:10109000FFF766BF401EB0F1807F08D2DFF8A010D6
:1010A000486000228A600B6843F003030B60B0F1D4
:1010B000807F8041C043C00F7047000070B5044678
:1010C000DFF88050DFF87860012C1CD0022C20D093
:1010D000042C0BD07CB140F29D1100F024F8042CBC
:1010E00020D8DFE804F00810161F0300316841F033
:1010F0000401316070BD306820F004003060296860
:1011000021F440010DE0306820F00400306001203F
:1011100004E03268022022F004023260296860F3A1
:101120009751296070BD0248FFF71ABF0CED00E02F
:10113000D01F000C00E400E018ED00E000E100E04A
:1011400010E000E0E00C025680B50B48016841F465
:10115000807101600320FFF721FF00F01FFE0420D3
:10116000FFF7ACFF0F20FFF7E3FC08B1012002BD41
:1011700000F0C8FE002002BD002002504018491CAB
:101180001CBFB1F1010100F8012DF9D17047000039
:101190000A6001214170002202700020704710F89F
:1011A0002C1F012901D10220704701210170022367
:1011B0004370DFF80C100A6842F08002E8E7000094
:1011C000187800562846FFF7CBBE38B500F09CF8DB
:1011D00018BF002803D040F6B421FFF7F3FF606882
:1011E0004F49084203D040F6B521FFF7EBFFA06856
:1011F000B0F1004F18BF002803D040F6B621FFF72A
:10120000E1FFE068202803D340F6B721FFF7DAFFBB
:101210002069202803D340F6B821FFF7D3FF606987
:10122000B0F5004F18BF002803D040F6B921FFF7F2
:10123000C9FF6268216846F20F0020EA02021143EA
:10124000364B1960A1686069227B01432069114314
:10125000304A000400F47F0001431160002032BDD9
:10126000000038B500F050F818BF002803D040F651
:10127000ED21FFF7A7FF60682949084203D040F637
:10128000EE21FFF79FFFA068B0F1004F18BF0028C4
:1012900003D040F6EF21FFF795FFA069B0F5004FAE
:1012A00018BF002803D04FF42F61FFF78BFFE068D1
:1012B00030F0C04003D040F6F121FFF783FF2069F2
:1012C000202803D340F6F221FFF77CFF6069202835
:1012D00003D340F6F321FFF775FF21686068114AD8
:1012E00001431160A368E068A1690A4A03430B4304
:1012F000536013682069616923F0FF13034343EAD5
:1013000001430020136032BD0C462068024DB0F549
:10131000004F7047207C00565C21000C207800565E
:10132000F09FFFFF1C7800560248016821F002017F
:101330000160704710E000E010B50446B4F5803F4E
:1013400018BF002C03D04FF4807100F05AF8DFF87A
:10135000B820106B00F48030A0421DD01068DFF878
:10136000AC3020F4803004431460DFF8A4402168DE
:1013700032204143B1FBF3F0401C014601E069B16A
:10138000491E13681C04FAD541B101E030B1401E7A
:10139000116B0B04FAD508B1002010BD032010BD5D
:1013A00010B5040018BF022C03D040F2431100F026
:1013B00028F8DFF85C3019683220DFF8502041430C
:1013C000B1FBF2F0DFF84C100A68401C002C0AD187
:1013D00022F002020A604A6B93070DD5002818BF5D
:1013E000401EF8D10BE042F002020A6001E030B189
:1013F000401E4A6B9307FAD508B1002010BD0320A8
:1014000010BD0548FFF7ACBD0C08025640420F0066
:101410000C000030080802565420000CDFF80C00C5
:10142000016841F001010160704700002808025680
:101430002DE9FC4706463068DFF81814DFF81894E9
:10144000084203D0DFF81424104202D0782100F0C3
:10145000FEF93078DFF80854C10711D5706800280C
:1014600018BF012806D0022818BF032802D07E2109
:1014700000F0EDF929687068890840EA8101296067
:101480003178880711D5B068002818BF042806D025
:10149000082818BF0C2802D0892100F0D8F9296843
:1014A000B06821F00C01014329603178480710D55C
:1014B000F06800281CBFB0F5806FB0F5006F02D057
:1014C000A12100F0C4F92968F06821F440610143CA
:1014D00029603178080714D53069002818BFB0F5A5
:1014E000802F08D0B0F5002F18BFB0F5402F02D0E4
:1014F000D12100F0ACF92968306921F44021014381
:1015000029603178C80610D5706900281CBFB0F575
:10151000801FB0F5001F02D0DD2100F098F9296886
:10152000706921F44011014329603178880610D593
:10153000B06900281CBFB0F5800FB0F5000F02D0D5
:10154000E82100F084F92968B06921F440010143E1
:101550002960317848060ED5F069002818BFB0F12F
:10156000004F02D0F22100F072F92968F06921F0F1
:101570000041014329603178DFF8E87208061ED582
:10158000306A002818BF202807D060281CBF4028D8
:10159000802802D0FD2100F05AF96968306A21F0F4
:1015A000E00101436960306A18B9386840F480305E
:1015B00004E0202803D1386840F4003038603168F6
:1015C000C8051DD5706A002818BFB0F5805F09D026
:1015D000B0F5005F18BFB0F5405F03D040F21711BF
:1015E00000F035F96968706A21F44051014369607F
:1015F000716AB1F5405F03D1386840F4003038605B
:10160000316888021CD5B06A002818BFB0F1804F3D
:1016100003D040F23F1100F01AF96968B06A21F076
:10162000804101436960B06A18B9386840F480307D
:1016300005E0B0F1804F03D1386840F400303860E5
:101640003168880512D5F06A002818BF012807D034
:10165000022818BF032803D04FF4AC7100F0F7F84C
:10166000A968F06A890840EA8101A96031684805E3
:101670000FD5306B00281CBF0828102803D04FF46A
:10168000B17100F0E4F8A968306B21F01801014352
:10169000A960316808050FD5706B00281CBF402871
:1016A000802803D040F26D1100F0D1F8A968706B6A
:1016B00021F0C0010143A9603168C80415D5B06BA1
:1016C000002818BFB0F5806F09D0B0F5006F18BFC3
:1016D000B0F5406F03D040F2771100F0B8F8A96878
:1016E000B06B21F440610143A960316888041FD5C3
:1016F000F06B002818BFB0F5805F0BD0B0F5005F2D
:101700001CBFB0F5405FB0F5804F03D040F28111AF
:1017100000F09DF8A968F06B21F4E0410143A96055
:10172000F16BB1F5005F03D1386840F48030386068
:101730003168480467D5306C0024002818BFB0F524
:10174000807F09D0B0F5007F18BFB0F5407F03D08F
:1017500040F2931100F07BF8D5F81080306C08F45B
:10176000407880454FD0F96E480709D4F96E0124BE
:1017700041F00401F966F86E00F004000090009852
:10178000DFF8E450286840F001002860FFF71AFAFB
:1017900082462868C10707D4FFF714FAA0EB0A00B5
:1017A0000328F6D3032050E0DFF8B4502869B8F1DD
:1017B000000F20F4407009D0A9692A6942F48032F0
:1017C0002A612A6922F480322A61A961316C0143BD
:1017D0002961DFF8981011EA00080FD0FFF7F2F93D
:1017E0008246286910EA480F08D1FFF7EBF9A0EB11
:1017F0000A0041F289318842F3D3D3E71CB1F86E75
:1018000020F00400F866306801041DD5706C0028D3
:1018100018BFB0F5802F09D0B0F5002F18BFB0F574
:10182000402F03D040F2E91100F011F82969706CE3
:1018300021F44021014329612969706C01F44021A0
:10184000814218BF012000D10020BDE8F68748463C
:10185000FFF786BBFFFF2000D820000C0000DFFF51
:10186000E00C0256280C02562808025601000024FB
:10187000F0B5DFF84C41DFF84C51B0F1005F18BF14
:10188000B0F1405F0BD0A84218BFA04207D0DFF8EC
:10189000382190421CBFDFF8343198420BD10A68DE
:1018A000002A18BFB2F1004F05D14B68002B18BFBA
:1018B000B3F1804F01D00120F0BD1A43B0F1005FB9
:1018C00014BFB0F1405FDFF8083105D0A84218BF5F
:1018D000A04203D1DFF8FC30042402E0DFF8F83046
:1018E0000124002007E001EB8007BD6903EB8006BF
:1018F000401CC6F80052A042F5D3002007E001EBDF
:101900008007BD6803EB8006401CC6F80051A0426A
:10191000F5D31868012505FA04F420F0404002438D
:101920001A601A69886A641E22EA040404431C616E
:101930000020F0BD70B5294D28682C6904400BD0FB
:101940002C62002605E0C00744BF304600F0FAFADA
:10195000761C34FA06F0F6D168686C6904400CD045
:101960006C62002606E0C00744BF46F0805000F0DD
:10197000E9FA761C34FA06F0F5D1A868AC6904409F
:101980000CD0AC62002606E0C00744BF46F0005011
:1019900000F0D8FA761C34FA06F0F5D1E868EC6964
:1019A00004400CD0EC62002506E0C00744BF45F0BF
:1019B000405000F0C7FA6D1C34FA05F0F5D170BD47
:1019C0000000013000000120008002480080025821
:1019D000002C0350003003500040035000280350F7
:1019E0002DE9F84F81460027DFF808030E46DFF89F
:1019F000088381451CBFDFF8041389451AD0DFF83E
:101A0000000381451CBFDFF8FC12894512D0DFF8C6
:101A1000F80281451CBFDFF8F41289450AD0DFF8CF
:101A2000F00281451CBFDFF8EC22914502D0AF21C6
:101A300000F009F93068010402D0000C000402D063
:101A4000B02100F000F97068002818BF01281CD0F0
:101A5000112818BF022818D0122818BFB0F5881F07
:101A600013D0B0F5041F18BFB0F5441F0DD0B0F56A
:101A7000901F18BFB0F5081F07D0B0F5481F18BF5A
:101A8000032802D0B12100F0DEF8CFE00125BD40EF
:101A90002C4000F0CA804FEA470A032000FA0AF0FF
:101AA0006FEA000B706800F0030101291CBF00F011
:101AB000030002281AD1F06800281CBF0128022860
:101AC00002D0C02100F0BFF8D9F80800F16800F09A
:101AD000B4F8C9F80800D9F8040020EA05057068D0
:101AE000C0F30010B8400543C9F804503179B0681C
:101AF00001F00301032908BF01280ED000281CBFF4
:101B00000128022802D0D32100F09DF8D9F80C005A
:101B1000B16800F092F8C9F80C0030790F2500F098
:101B2000030002283BD1DFF8CC0181451CBFDFF860
:101B3000CC1189451AD0DFF8C80181451CBFDFF8F8
:101B4000C411894512D0DFF8C00181451CBFDFF800
:101B5000BC1189450AD0DFF8B80181451CBFDFF808
:101B6000B411894502D0E02100F06DF830691028E9
:101B700002D3E12100F067F8F80809EB8000D0F803
:101B800020C0B900336901F01C0105FA01F22CEA0A
:101B9000020203FA01F141EA020CC0F820C0D9F8B0
:101BA00000000BEA0001307900F0030000FA0AF0AF
:101BB00040EA010AC9F800A0716811F4403F34D02E
:101BC000B808DFF8541151F82020FB0003F0180387
:101BD0009D4022EA0505DFF8442102EA992202FA33
:101BE00003F31D4341F82050DFF8340102687368A5
:101BF000E1430A40DB0248BF224302604268736847
:101C00000A409B0248BF22434260DFF81821506817
:101C1000736808409B0348BF204350601068014030
:101C20007068C30348BF214311607F1C346834FAD5
:101C300007F07FF42BAFBDE8F18F0BEA000001FA4B
:101C40000AF1084370474046FFF78AB9F8B50D46D8
:101C500016460446284F2A0003D14FF4CE7100F0F7
:101C60000CF8300007D0012E03D040F29D1100F097
:101C700004F8A561F1BDA562F1BD3846FFF770B962
:101C8000F8B500F02FF81CBF1C498D4215D01C4838
:101C900085421CBF1B498D420FD01B4885421CBF8B
:101CA0001A498D4209D01A4885421CBF194A9542EB
:101CB00003D040F27F21FFF7E0FF300003D14FF463
:101CC0002071FFF7DAFF012C08D01CB9286B20EA3D
:101CD000060605E040F28121FFF7CFFF286B06439F
:101CE0002E63F1BD054603480E461446024F854259
:101CF0007047000000000242E021000C0000025288
:101D0000000402420004025200080242000802528B
:101D1000001C0242001C0252602002567F7F2B00F2
:101D2000002002568020025610B56248002101654D
:101D3000614A4265614981650122026560494165E8
:101D4000604A8265022101655F4A42655F4981659B
:101D5000032202655E4941655E4A82650421016590
:101D60004FF0804242655C4981650122826441688E
:101D70000422042441F44061416058490B6862F335
:101D80009C630B605649574A0A60574B4B608C6006
:101D9000016841F47001016010BD000030B5534985
:101DA000CB695348534A03F00C03082B02D00C2B89
:101DB00007D04BE010460A68120D02F00102D04035
:101DC00044E08B6A4C6BC3F302256D1C00EE105A85
:101DD000C4F30805C4F30664641C6D1C01EE104ACC
:101DE00000EE905ADC0607D58C6BC4F3CC0401EEF0
:101DF000904AFBEEE91A01E0DFED2D1A03F0030330
:101E0000022B02D0032B03D00AE002EE100A09E0F5
:101E10000868000D00F00100C24002EE102A01E047
:101E20009FED232AB8EE422AB8EE400AF8EE600A87
:101E300082EE000A70EEA10A20EE200AF8EE410AB6
:101E400080EE200ABCEEC00A10EE100A2A4A10608A
:101E5000096A00BF29A301F00701595CC84010605E
:101E600030BD80B5FFF79AFF23480068BDE8024007
:101E7000F1EE101A21F09F0121F07041E1EE101AED
:101E8000714672467346F4464EEC10EB4EEC11EB85
:101E90004EEC12EB4EEC13EB4EEC14EB4EEC15EB60
:101EA0004EEC16EB4EEC17EB8EF3008874470000F7
:101EB0000000000088ED00E000000808E1FF0F08C6
:101EC0000080F80BE17FF90B00E0070CE3FF070C43
:101ED00000000120E1FF0120E1FFFF4F34EF00E0AF
:101EE00080E300E00402066100400828000C02566E
:101EF0000024F4000048E8010C000030000000005D
:101F00000102030480B50E48C16841F00401C160BC
:101F1000C16801F00401009100990268002142F0BB
:101F2000807202600068002200F080700090009BC8
:101F30000820FFF74CF80820BDE80240FFF798B8EA
:101F4000880C025670470000C0B231B11E4A18B169
:101F5000012808BF516000E01160F1EE100A20F086
:101F60009F0020F07040E1EE100A70467146724604
:101F700027E080B5012201E080B50022102113483E
:101F8000FFF764FEBDE80140F1EE100A20F09F006B
:101F900020F07040E1EE100A7046714672467346BA
:101FA000F4464EEC10EB4EEC11EB4EEC12EB4EEC1B
:101FB00013EB4EEC14EB4EEC15EB4EEC16EB4EEC3B
:101FC00017EB8EF300887447400000300004025283
:101FD0002F7661722F6A656E6B696E735F616765DC
:101FE0006E742F776F726B73706163652F57424108
:101FF0005F5061636B6167696E675F466C6F772FD7
:10200000464C4F575F574F524B53504143452F4615
:1020100069726D776172652F447269766572732F8C
:1020200053544D333257424178785F48414C5F44B6
:1020300072697665722F5372632F73746D333277C2
:10204000626178785F68616C5F636F727465782E27
:10205000630000002F7661722F6A656E6B696E7384
:102060005F6167656E742F776F726B737061636504
:102070002F5742415F5061636B6167696E675F46CE
:102080006C6F772F464C4F575F574F524B53504111
:1020900043452F4669726D776172652F4472697688
:1020A0006572732F53544D333257424178785F48ED
:1020B000414C5F4472697665722F5372632F73745B
:1020C0006D333277626178785F68616C5F707772C8
:1020D0005F65782E630000002F7661722F6A656E4F
:1020E0006B696E735F6167656E742F776F726B7368
:1020F000706163652F5742415F5061636B6167692F
:102100006E675F466C6F772F464C4F575F574F5245
:102110004B53504143452F4669726D776172652F6D
:10212000447269766572732F53544D33325742416E
:1021300078785F48414C5F4472697665722F5372BC
:10214000632F73746D333277626178785F68616C86
:102150005F7263635F65782E630000002F766172A3
:102160002F6A656E6B696E735F6167656E742F773A
:102170006F726B73706163652F5742415F5061638B
:102180006B6167696E675F466C6F772F464C4F5780
:102190005F574F524B53504143452F4669726D77FD
:1021A0006172652F447269766572732F53544D3393
:1021B0003257424178785F48414C5F447269766596
:1021C000722F5372632F73746D3332776261787834
:1021D0005F68616C5F7274635F65782E63000000F6
:1021E0002F7661722F6A656E6B696E735F616765CA
:1021F0006E742F776F726B73706163652F574241F6
:102200005F5061636B6167696E675F466C6F772FC4
:10221000464C4F575F574F524B53504143452F4603
:1022200069726D776172652F447269766572732F7A
:1022300053544D333257424178785F48414C5F44A4
:1022400072697665722F5372632F73746D333277B0
:10225000626178785F68616C5F6770696F2E630098
:102260002F7661722F6A656E6B696E735F61676549
:102270006E742F776F726B73706163652F57424175
:102280005F5061636B6167696E675F466C6F772F44
:10229000464C4F575F574F524B53504143452F4683
:1022A00069726D776172652F447269766572732FFA
:1022B00053544D333257424178785F48414C5F4424
:1022C00072697665722F5372632F73746D33327730
:1022D000626178785F68616C5F7263632E6300008F
:1022E00010B5074979441831064C7C44163404E093
:1022F0000A68081D114488470146A142F8D110BD63
:102300002C000000380000004EF68851CEF200018B
:10231000086840F470000860BFF34F8FBFF36F8F01
:102320004FF00170E1EE100A7047000037ECFFFF3C
:10233000D00100001A0000000000003000F00DF88D
:10234000002801D0FFF7CCFFAFF300800020AFF3EF
:102350000080FEF73DFC00F002F80120704700F01D
:1023600001B800000746384600F002F8FBE700001D
:1023700080B5AFF30080024A11001820ABBEFBE726
:10238000260002000548014603B4684680F3098828
:10239000AFF30080FFF7B8FFFFF7D0FFA5EDF5FE24
:1023A000FEE7FEE7FEE7FEE7FEE7FEE77047704761
:1023B000704700F003B8FFF7BDBA000002494A6851
:1023C000087882184A607047000000300248804751
:1023D0000248804702480047570E000C291D000C98
:1023E0008523000CFFF7FEBFFFF7FEBFFFF7FEBF20
:1023F000FFF7FEBFFFF7FEBFFFF7FEBFFFF7FEBF11
:10240000FFF7FEBFFFF7FEBFFFF7FEBFFFF7FEBF00
:10241000FFF7FEBFFFF7FEBFFFF7FEBFFFF7FEBFF0
:10242000FFF7FEBFFFF7FEBFFFF7FEBFFFF7FEBFE0
:10243000FFF7FEBFFFF7FEBFFFF7FEBFFFF7FEBFD0
:10244000FFF7FEBFFFF7FEBFFFF7FEBFFFF7FEBFC0
:10245000FFF7FEBFFFF7FEBFFFF7FEBFFFF7FEBFB0
:10246000FFF7FEBFFFF7FEBFFFF7FEBFFFF7FEBFA0
:10247000FFF7FEBFFFF7FEBFFFF7FEBFFFF7FEBF90
:10248000FFF7FEBFFFF7FEBFFFF7FEBFFFF7FEBF80
:10249000FFF7FEBFFFF7FEBFFFF7FEBFFFF7FEBF70
:1024A000FFF7FEBFFFF7FEBFFFF7FEBFFFF7FEBF60
:1024B000FFF7FEBFFFF7FEBFFFF7FEBFFFF7FEBF50
:1024C000FFF7FEBFFFF7FEBFFFF7FEBFFFF7FEBF40
:1024D000FFF7FEBFFFF7FEBFFFF7FEBFFFF7FEBF30
:1024E000FFF7FEBFFFF7FEBFFFF7FEBFFFF7FEBF20
:1024F000FFF7FEBFFFF7FEBFFFF7FEBFFFF7FEBF10
:0D2500000001F9000010FC000124F4C700E8
:020000040C07E7
:10E000007FE97FE983F7B5BF7FE97FE983F7B4BF95
:10E010007FE97FE983F798BF7FE97FE983F721BF35
:040000050C00238543
:00000001FF
