:020000040808EA
:1000000090B50120F1B70A0865D30A0869D30A0838
:1000100005930A086DD30A0807930A0871D30A08E2
:1000200000000000000000000000000009930A0822
:1000300075D30A08000000000B930A080D930A0804
:1000400079D30A087DD30A0811930A0881D30A08D4
:1000500085D30A0889D30A088DD30A0891D30A08E0
:1000600095D30A0825930A0899D30A089DD30A084C
:10007000A1D30A08A5D30A08A9D30A08ADD30A0850
:10008000B1D30A0845930A084B930A08B5D30A0866
:10009000B9D30A08BDD30A08C1D30A08C5D30A08D0
:1000A00051930A08C9D30A08CDD30A08D1D30A0844
:1000B000D5D30A0857930A085D930A08D9D30A08CA
:1000C000DDD30A08E1D30A08E5D30A08E9D30A0810
:1000D000EDD30A08F1D30A08F5D30A08F9D30A08C0
:1000E000FDD30A0801D40A0805D40A0809D40A086D
:1000F0000DD40A0811D40A0863930A0815D40A0813
:1001000019D40A081DD40A0821D40A0869930A08D8
:1001100025D40A0829D40A082DD40A0831D40A089B
:1001200035D40A0839D40A083DD40A087D930A0850
:1001300041D40A089D930A0845D40A0849D40A08FC
:100140004DD40A0851D40A0883930A0855D40A08E2
:1001500059D40A085DD40A0861D40A0865D40A088B
:1001600070B5040001D1012070BDA2692168DFF8DB
:10017000E002DFF8E032DFF8E052DFF804633AB182
:10018000B1421CBFA94299420BD04FF4A07106E0C6
:10019000B1421CBFA942994203D040F2451101F07F
:1001A00043FB04F18405686818B900F023F800F0F7
:1001B00026F800F016F808B100F02CF800F027F847
:1001C000012803D0206800F002F826E070BD4168E5
:1001D00021F4904141602068816821F02A0181600A
:1001E0007047242068602068016849084900016060
:1001F000A06A704700212970204600F0CBBAE86B56
:1002000010B9DFF88012E963E96B20460847204601
:1002100000F0E6BA204600F071BC00F004F8BDE83A
:10022000704000F052BD2068016841F0010101609A
:100230002046704738B5040001D1012032BD00F0DE
:100240009FFA1FBFDFF810229042DFF80832984271
:1002500003D040F2832100F022F804F18405242029
:100260006860206801684908490001602268002030
:10027000002110602368596021688860286C10B9DB
:10028000DFF804122964296C204688470020E860C2
:1002900000216960A860E1662067297032BDDFF83F
:1002A000B00101F0C1BA10B5034603F15404606B0C
:1002B00020283CD109B1100001D1012010BD1965E1
:1002C00022806280002060620021E163212060635F
:1002D00021699868B1F1005F15D1B0F5805F04BF66
:1002E0001869002819BFDFF888046062DFF88414F9
:1002F00061621A6800F090F841F4000100F020FA01
:10030000F7D1002010BDB0F5805F04BF1869002848
:1003100007BFDFF864146162DFF86004606200F018
:10032000F6FD41F0800100F00BFAF8D1E9E7022078
:1003300010BD38B50346D3F88C0020280AD109B186
:10034000100001D1012032BD00F06CF8BDE838404A
:1003500000F058BD022032BD70B5044604F15405CA
:10036000686B1346202855D1002945D0100043D092
:1003700021652A806A800020E86321216963A86AD8
:1003800000283BD0DFF804140166A96ADFF80004F6
:100390004866A96ADFF844048866A96A00F0BCFDD3
:1003A00002BF206900285300A86A9BB290F8501041
:1003B0000A0616D5406F00281CBF0068002817D019
:1003C0008360A96A206D4A6F1368D860A96A26689D
:1003D0004A6F136806F128001861A86A01F064FAF0
:1003E00005E0216801F12802216D01F09FFC28B190
:1003F0001020E86320216963012070BD216840203E
:100400000862226800F008F841F0800100F098F9D5
:10041000F7D170BD022070BD02F1080151E8001F44
:10042000083270470020D86618680A4CA0420CD0E9
:100430004068040209D5186850E8004F054644F0AA
:10044000806445E800400028F5D118467047000058
:10045000B8B10A08002400460044004020688168C2
:1004600048067047216801F1080353E8001F20681F
:1004700000F1080221F0400142E800100028704716
:1004800000380140B93A0808F33B08082DE9F0416B
:1004900004462268D66940F60F0C10460768936838
:1004A00004F15C0507F0200006F0200116EA0C0FAD
:1004B0000DD1002914D010B9D80040F18C80A96961
:1004C000002900F038812046BDE8F0410847DFF8F8
:1004D000E8C713EA0C0F04BFDFF8E0E717EA0E0FD6
:1004E00079D05FEAC67E48BF5FEAC75807D54FF0AC
:1004F000010EC2F820E06A6B42F001026A63B207A3
:100500000AD5DA0708D5D4F800E00222CEF8202078
:100510006A6B42F004026A6372070AD5DA0708D5EB
:10052000D4F800E00422CEF820206A6B42F00202E8
:100530006A6332070DD5002808BF13EA0C0F08D0F4
:10054000D4F800C00822CCF820206A6B42F00802E0
:100550006A63320509D57F0107D526684FF400622A
:1005600032626A6B42F020026A636A6B002A31D001
:1005700031B108B9D80003D5A96909B12046884727
:10058000686B21688A68510602D410F0280F1CD0CD
:10059000204600F0DCFCFFF761FF11D5FFF762FF9A
:1005A000FCD1686A60B1DFF81817C166686A01F0AB
:1005B00069FC00280ED0686AC16EBDE8F0410847AA
:1005C0002046AA6CBDE8F0411047A96C2046884738
:1005D00000206863AFE02869012878D1F00676D55D
:1005E000F90674D5102010622268298890684206A6
:1005F00037D56A6A1068806C80B2002825D088429E
:1006000023DA6880106D812816D000F001FFFCD13C
:1006100000F09FF8FCD1FFF725FFFCD120202863D4
:100620000021296100F090F821F0100100F088F815
:10063000F8D1686A01F0DBFB0220686129886888CC
:100640002A6E091A89B220463EE0884204BF106D26
:10065000812870D102226A6120462B6EBDE8F041EC
:1006600018476A886888891A00281CBF88B2002841
:1006700061D0224600F0DEFC23F4907300F0D6FC3B
:10068000F8D1106800F1080454E8004F00F10803A5
:10069000DFF82006044043E800400028F1D102F1D1
:1006A0005C002023036300240461846100F0C2FC29
:1006B00023F0100300F0BAFCF8D102F15C03022031
:1006C0005861104689B21A6EBDE8F04110473006F5
:1006D00009D5390601D4180205D5E96959B3204670
:1006E000BDE8F0410847700613D5790611D500F032
:1006F0002BF821F0400100F023F8F8D104F15C015F
:100700002020C8620022CA612046C96BBDE8F041C2
:100710000847300206D5790004D52046EA6DBDE8C9
:10072000F0411047F00148BF002F04D52046AA6DC4
:10073000BDE8F0411047BDE8F081000041F4807150
:1007400042E8001000287047206850E8001F024669
:100750007047216801F1080353E8001F2068490829
:10076000490000F1080242E800100028704700002C
:100770001F11080883110808C71008089D100808F1
:100780002068DFF82C18884270470000F50F080831
:1007900025100808DFF81C1840F8941FDFF8182807
:1007A0004260DFF81818DFF81828C1600261DFF82E
:1007B0001418DFF8142841618261DFF81018DFF89F
:1007C0001028C1610262DFF80C38DFF80C18DFF87E
:1007D0000C28836041628262704700004110080863
:1007E000F8B5044662680025DFF8F437DFF8F477DF
:1007F0009A4203D34FF4436100F07DF9A068B0F151
:10080000805F1CBF0028B0F5805F03D040F6314107
:1008100000F071F92168DFF89067E068B14207D114
:10082000002818BFB0F5005F1BD040F6344116E039
:10083000B0F5805F18BF002809D0B0F5405F18BF41
:10084000B0F5005F03D040F6384100F054F9206A5B
:10085000002818BFB0F5006F03D040F6394100F012
:100860004AF9206900281CBFB0F5806FB0F5C06F51
:1008700003D040F63C4100F03EF9606930F00C01D5
:1008800000D118B940F63D4100F035F9A0690028C3
:1008900018BFB0F5807F09D0B0F5007F18BFB0F564
:1008A000407F03D040F63E4100F025F9E069002882
:1008B00018BFB0F5004F03D040F63F4100F01BF9E0
:1008C000606A002818BF012817D0022818BF032823
:1008D00013D0042818BF05280FD0062818BF0728F2
:1008E0000BD0082818BF092807D00A2818BF0B28E2
:1008F00003D04FF4446100F0FEF82268DFF8E80608
:100900001368A168034020690B4361690343E069F0
:100910000B43034313605168E06821F440510143E5
:100920005160A169B2421CBF206A01439368DFF89D
:10093000BC06DFF87CE6034019439160D16A606A27
:1009400063A7090940EA0111DFF8A406DFF8D039EE
:10095000D1624FF40041724530D11B6803F00303AC
:10096000032B4BD8DFE803F0024644480123E26939
:100970004FF6F076B2F5004F40F07B8043B1012B8B
:100980006FD0042B08D0082B6ED0102B6FD093E0C3
:1009900001F0A8FB002810D000F0A6F84A0802EBEE
:1009A0004002B2FBF1F0A0F11001B142EFD20640DB
:1009B000C0F3420006432068C6607EE0DFF8ECC565
:1009C00062450AD11B6813F00C03D0D0042B11D060
:1009D000082B0DD00C2B0FD010E0B2420ED19B682B
:1009E00003F00303032B09D8DFE803F01204020627
:1009F000042304E0082302E0102300E02023B24295
:100A0000B5D1042B08D0082B14D0102B15D053E0EF
:100A100001F076FB002850D0616A37F81120B0FB56
:100A2000F2F6626802EB42018E4245D31303B342F1
:100A300005D241E001F036FBECE70846ECE7500850
:100A4000002110EB0620DFF8C47951EB166100237A
:100A500001F0CAFBA0F54076BE422DD22168C860E5
:100A60002BE001F044FB95E701F01CFB92E7084600
:100A700092E743B1012B17D0042B07D0082B16D0D7
:100A8000102B17D018E001F02DFBB0B100F02CF8BE
:100A900000EB5100B0FBF1F0A0F11001B1420BD21C
:100AA000226880B2D06008E001F021FBEDE701F0A0
:100AB000F9FAEAE70846E9E7012504F168000121AF
:100AC000002341800180C36003612846F2BD00001D
:100AD000010002000400060008000A000C001000DB
:100AE0002000400080000001626A616837F812301F
:100AF000B0FBF3F07047384600F096BE38B50446B8
:100B0000A26ADFF8E054B2F5807F03D340F60551C6
:100B100000F0D8F894F82800010710D5A06B002841
:100B200018BFB0F5004F03D040F60A5100F0CAF8E4
:100B300021684A68A06B22F4004202434A6094F89C
:100B40002800C10710D5E06A002818BFB0F5003FA3
:100B500003D040F6115100F0B5F821684A68E06A08
:100B600022F4003202434A6094F82800810710D52D
:100B7000206B002818BFB0F5803F03D040F6185115
:100B800000F0A0F821684A68206B22F4803202430A
:100B90004A6094F82800410710D5606B002818BF00
:100BA000B0F5802F03D040F61F5100F08BF821687C
:100BB0004A68606B22F4802202434A6094F828005D
:100BC000C10610D5E06B002818BFB0F5805F03D0D8
:100BD00040F6265100F076F821688A68E06B22F42E
:100BE000805202438A6094F82800810610D5206C58
:100BF000002818BFB0F5005F03D040F62E5100F07A
:100C000061F821688A68206C22F4005202438A60ED
:100C100094F82800420636D5FFF7B2FD1CBFDFF876
:100C20000427904203D040F6365100F04BF8606C38
:100C3000002818BFB0F5801F03D040F6375100F0F0
:100C400041F821684A68606C22F4801202434A60CD
:100C5000616CB1F5801F16D1A06C002818BFB0F5EB
:100C6000001F09D0B0F5800F18BFB0F5C00F03D03A
:100C700040F63C5100F026F821684A68A06C22F446
:100C8000C00202434A6094F82800010610D5E06CC7
:100C9000002818BFB0F5002F03D040F6445100F0F3
:100CA00011F821684A68E06C22F4002202434A608D
:100CB00031BD0000FEFFFFEF010000102001000425
:100CC0008F100808284600F0AFBDF8B5044604F1BF
:100CD00084050020E86001F013FB064620686FF0F1
:100CE0007E4701680A0714D50097334600224FF467
:100CF0000011204600F03CF858B1FFF725FD21F027
:100D00008001FFF71DFDF8D104F18400202141602E
:100D100016E0206801684A0716D50097334600227E
:100D20004FF48001204600F023F868B100F016F877
:100D3000FCD1FFF70EFDFCD104F18400202181607D
:100D4000002202700320F2BD202068602021A960EB
:100D50000020E066002121672870F2BD206850E87D
:100D6000001F024621F4907142E8001000287047ED
:100D70002DE9F04105460E4690461F46069C286820
:100D8000C1693140B1420CBF01200020404537D13C
:100D900014F1010FF3D001F0B3FAC01B844200D369
:100DA00014B90320BDE8F081286801684A07E6D538
:100DB000802E18BF402EE2D0C169080704D42968EC
:100DC000C8690105DBD50DE02A68082010622846B5
:100DD00000F0BDF805F184000821C1600022027016
:100DE0000120DFE729684FF400600862284600F020
:100DF000AEF805F184002021C16000220270D0E726
:100E00000020CFE730B50346996503F15C010A8005
:100E10004A80002088619868FF24B0F5805F04D183
:100E2000186990B940F2FF140FE018B9186960B161
:100E30007F2007E0B0F1805F06D1186908B97F24F0
:100E400003E03F20888001E000248C80002048637C
:100E500022240C63196801F1080555E8001F186881
:100E600000F1080441F0010144E800100028F1D12C
:100E700003F15C018868B0F1005F26D18889824265
:100E800023D39A68B2F5805F04BF1869002803D1A4
:100E90000FF291528A6109E00FF2A1448C61186946
:100EA00020B100F034F8FFF749FCFAD1196801F1DC
:100EB000080454E8001F186800F1080241F080514E
:100EC000FFF73EFCF2D1002030BD9868B0F5805F9E
:100ED00004BF186900280CD10FF25D328A611868CE
:100EE00050E8001F024641F02001FFF729FCF6D12F
:100EF000E9E70FF2F1228A6118690028EFD000F0CB
:100F000006F841F49071FFF71BFCF8D1DBE7196894
:100F100051E8001F1A6870470020C866A068B0F545
:100F2000805F704710B500F008F8FCD100F01BF9A5
:100F3000FCD12021C0F8881010BD016851E8002FB5
:100F40000B4622F0C00243E80021002970470168E7
:100F500051E8002F0B4622F4907243E8002100294B
:100F6000F5D1016801F1080353E8003F01F10802DF
:100F7000DFF808160B4042E800310029F1D1C16EBC
:100F8000012909D1026852E8002F036822F01002FB
:100F900043E800210029F5D12021C0F88C1000225F
:100FA000C2664267704700000024004600440040CB
:100FB000003801400F8C08084F8208082F8C080861
:100FC000438E080857A50808FBA6080897AA080832
:100FD00057AE0808E38D08089FAF0808C7AC08089B
:100FE00020BCBE00B8B10A08F369FFCFFFF4FF11BF
:100FF0000024F4000146C86D096D81290FD000223C
:10100000A0F85620036803F1080252E8002F0833C5
:1010100022F0800243E800210029F3D174E0D0F8E7
:1010200098100847C06DD0F89410084744E8003085
:1010300000287047106850E8003F044670470000E1
:10104000F8B5C46D04F1880528686E68216804F15C
:1010500056078A68110606D5212804D10020388059
:101060002046FFF75FFF21688868410606D5222EDB
:1010700004D1002038812046FFF769FFA86840F0BE
:101080001000A8602046E969BDE8F4400847C06D3B
:101090000022A0F85E20D0F8A4100847D0F88810ED
:1010A00021290FD1B0F8561001B923E0036D026871
:1010B00019789162016D4A1C0265B0F856104A1EFB
:1010C000A0F856207047D0F88810212911D1B0F827
:1010D000561001B90EE0036D02681988C1F30801CA
:1010E0009162016D8A1C0265B0F856104A1EA0F884
:1010F00056207047026852E8002F036822F08002F1
:1011000043E800210029F5D1016851E8002F0B4682
:1011100042F0400243E800210029F5D17047D0F8A1
:101120008810212900D0704730B500F15602938A0B
:101130000DE00168CC69250608D5046D25788D621F
:10114000016D4C1C04651588691E11805B1E99B2E7
:1011500041B111880029ECD100F005F8FCD100F074
:1011600036F8FCD130BD026802F1080454E8002FC3
:10117000016801F1080322F4000243E8002100297C
:101180007047D0F88810212900D0704730B500F1A1
:101190005602938A0FE00168CC6925060AD5046DD2
:1011A0002588C5F308058D62016D8C1C04651588C2
:1011B000691E11805B1E99B241B111880029EAD1E4
:1011C000FFF7D1FFFCD100F002F8FCD130BD01687F
:1011D00051E8002F0B4642F0400243E8002100296D
:1011E0007047000010B500F050F81FD14B6A91888D
:1011F000846D0B402370816D4B1C00F04CF819D1AD
:1012000000F050F8FCD100F057F8FCD100F06CF879
:101210000BD10023136100F05DF8FCD10168CB69AC
:10122000DC0644BF10230B6282E07DE0886940F059
:101230000800886110BD000010B500F026F81FD12D
:101240004B6A9188846D0B402380816D8B1C00F06C
:1012500022F819D100F026F8FCD100F02DF8FCD1CD
:1012600000F042F80BD10023136100F033F8FCD1F9
:101270000168CB69DC0644BF10230B6258E053E0E1
:10128000886940F00800886110BD00F15C020168C7
:10129000136B222B7047836551884B1E53805188F6
:1012A00000297047026852E8002F036822F4907208
:1012B00043E8002100297047026802F1080454E85D
:1012C000002F01685208520001F1080343E8002191
:1012D00000297047016851E8003F0C4623F01003D5
:1012E00044E800310029704700F15C0220211163BD
:1012F00000239361002151610168A14B99420CD0F8
:1013000049680B0209D5016851E8003F0C4623F0FB
:10131000806344E800310029F5D111690129704743
:10132000E00C024600440040516CBDE81040084704
:101330001188126EBDE81040104700002DE9F843F7
:1013400000F0E3F84BD1A88900283AD0B80638D588
:1013500000F01CF90870A06D421C00F0C1F817D015
:10136000F90748BF5FEAC85200F0B1F803D5F207A9
:1013700001D500F019F9780703D5F20701D500F07F
:101380000BF9686B20B1A96C204688470020686380
:1013900068880028DAD100F03BF8FCD100F028F88A
:1013A000FCD100F0D0F809D100F0BDF844BF102105
:1013B000016229882A6E2046904702E0696C204627
:1013C0008847688868B1A98988420ADA00F091F8EC
:1013D000FCD16C48A86100F0EFF8FCD101E000F00E
:1013E00002F8BDE8F183816941F00801816170472D
:1013F000206800F1080252E8002F00F108015F4860
:10140000024041E8002000287047000000FD0F0066
:10141000216851E8001F226821F4807142E8001021
:10142000002870472DE9F84300F06FF84BD1A889E8
:1014300000283AD0B80638D500F0A8F80880A06D8A
:10144000821C00F04DF817D0F90748BF5FEAC85278
:1014500000F03DF803D5F20701D500F0A5F87807B4
:1014600003D5F20701D500F097F8686B20B1A96C9D
:10147000204688470020686368880028DAD1FFF793
:10148000C7FFFCD1FFF7B4FFFCD100F05CF809D135
:1014900000F049F844BF1021016229882A6E2046D5
:1014A000904702E0696C20468847688868B1A9893E
:1014B00088420ADA00F01DF8FCD13348A86100F038
:1014C0007BF8FCD101E0FFF78EFFBDE8F18305D585
:1014D00001210162686B40F001006863B807704742
:1014E000A2656888411E69802068C76917F0070FE8
:1014F0007047226802F1080353E8001F083221F008
:10150000805142E80010002870470446206804F12A
:101510005C05B5F80490C7690146D1F8008086687B
:10152000296B2229704700212961206850E8001F9B
:10153000024621F0100142E800100028F5D1206891
:10154000C169CA067047202028630021A9610020D4
:10155000686120680A4988420CD04068010209D5B8
:10156000206850E8001F024621F0806142E8001028
:101570000028F5D12869012870470000FEFFFFEF21
:1015800000240046E5110808391208082168486A55
:10159000A16D09EA00007047216804200862686BA9
:1015A00040F0020068637047216802200862686B9F
:1015B00040F0040068637047216851E8001F22680A
:1015C00041F0200142E800100028704780B500F08B
:1015D0009DFE00F0B5FE00F0BEF8834801680022D1
:1015E00041F0010101600068062100F00100009057
:1015F00000981D2000F081FF1D2000F0CFFF002289
:1016000005211E2000F079FF1E2000F0C7FF00F02A
:101610003DF800F019F800F02AF800F006F8002074
:1016200000F09DFE00F018FFFCE77048016821F40F
:10163000807101606E48026822F004020260016855
:1016400041F001010160704710B56A4C6A482060A2
:10165000204601F02FF808B100F0E4F86748E06098
:1016600004F10C0001F026F800B171E010BD80B566
:101670006348644920220160426001F099F808B192
:1016800000F0D0F8BDE8014001F048B938B58CB0A1
:101690003021684601F04AFA1F205B4CA0604FF0F1
:1016A00080405A490022E0614FF480752160226138
:1016B0006261A26122626562204601F03FFA08B1D0
:1016C00000F0B0F8204601F0FCFD08B100F0AAF8E7
:1016D00000204FF07C5107900190059006910B95EA
:1016E00001226946204601F014FB08B100F09AF887
:1016F0000DB030BD10B5464C464820600C206061EE
:101700004FF400404FF4E1310022E0616160A260DB
:10171000E2602261A26122626262A2622046FEF75A
:101720001FFD08B100F07EF80021204601F04EFEBA
:1017300008B100F077F80021204601F077FE08B1EB
:1017400000F070F8204601F007FE00B100E010BD87
:10175000BDE8104066E010B586B0142101A801F084
:10176000E5F92D4802684FF4881442F00202026045
:10177000016801F002010091009A036843F001033F
:101780000360016801F0010100910099026842F0D4
:1017900004020260006800F00400009000994FF419
:1017A0000050012101900391029401A91B4801F00E
:1017B000C1FEC021019101210391029401A91848A1
:1017C00001F0B8FE00220021112000F096FE002258
:1017D0000021122000F091FE00220021182000F0CC
:1017E0008CFE06B010BD0000880C024604080246BC
:1017F0000004034054A40120006002404061024004
:1018000084A4012000080C42E8A1012000780046D1
:1018100000970120003801408C0C0246000802426B
:101820000004024272B6FEE7FCE7F0B4024610681C
:1018300095681318506803EB5004C00748BF4D4427
:10184000A3422DD013F8016B16F0030004BF13F868
:10185000010BC01C31090F2907D113F8011B0F31EF
:1018600003E013F8017B05F8017B401EF9D1002944
:10187000E6D013F8010BC6F38106032E08BF13F858
:10188000016B00EB0620404228440026B71E8F4221
:101890001EBF10F8017B05F8017B761CF6D1CFE75F
:1018A000F0BC02F10C00704738B504001EBF04F113
:1018B0004C05A86A002835D0297A22685269012986
:1018C00003D002292AD1D10328D52A7A012A24D18A
:1018D0002978012901D1022032BD00F025F8A96A3A
:1018E000002008612068416941F4BA414161A8695A
:1018F00020B12068416941F400714161686A20B1FA
:101900002068416941F400514161A86A002269469A
:10191000006800F029F800F010F81EE04020E860B0
:1019200000212970012032BD0121297002222A7272
:10193000022303730021E9607047AA6A21681068D6
:10194000000C00040860AB6A00994FF6FC701A683E
:10195000236802400A43DA6770472068416941F012
:1019600001014161002032BD09B1034808600AB19C
:101970000520106070470000000001F82DE9F84FC5
:10198000044600F0BDFC0090002C00F0DF802068D1
:10199000DFF824B4DFF82454DFF82494DFF824A41B
:1019A000DFF82484DFF82464DFF82474584518BF76
:1019B000B84212D0B04218BF40450ED0504518BFB3
:1019C00048450AD0DFF80C1488421CBFDFF8082411
:1019D000904202D0FB2100F030F9E068002818BFE7
:1019E000B0F5806F09D0B0F5007F0FD0FC2100F07A
:1019F00024F9E068B0F5007F08D06068B0F5007F9A
:101A000004D0342802D3FF2100F017F9A068002881
:101A100018BFB0F5006F03D040F2011100F00DF9CE
:101A20002069002818BF082803D04FF4817100F006
:101A300004F96069002818BFB0F5002F03D040F208
:101A4000031100F0FAF8A06900281CBF0128022841
:101A500003D04FF4827100F0F0F8E06900281CBF59
:101A6000B0F5803FB0F5003F03D040F2051100F023
:101A7000E4F8206A002818BFB0F5800F09D0B0F54F
:101A8000000F18BFB0F5400F03D04FF4837100F082
:101A9000D4F8206B00281CBFB0F1004FB0F1404FCC
:101AA00003D040F2071100F0C8F8606B18B14FF492
:101AB000847100F0C2F82068584518BFB8420FD0B2
:101AC000B04218BF40450BD0504518BF484507D01D
:101AD000DFF8001388421CBFDFF8FC22904217D1C8
:101AE000606A08B1412803D340F20F1100F0A5F855
:101AF000A06A08B1412803D34FF4887100F09DF823
:101B0000E06A30F0402003D040F2111100F095F867
:101B100004F14C0500212970287A20B96961A86177
:101B2000E96128626962022028722068416941F0F7
:101B300006014161009E21684869C20708D500F08E
:101B4000DFFB801B0628F6D300F0E9F8012072E0E5
:101B50004A69206AD14622F4430202434A6162691B
:101B6000E0692169A669024327680A43C246164311
:101B7000D8469949974A924BDFF850C2DFF850E2B5
:101B8000474518BF77450BD0674518BF574507D065
:101B90004F4518BF9F4203D0974218BF8F420ED1C6
:101BA000E06A0643A06A401E000500F07C7B4BEA19
:101BB0000600666A761E360106F47C760643386CAB
:101BC00000F0802006433E642679A06806F03F06B8
:101BD0003043266B0643E068B0F5806F13D1206870
:101BE000404518BF70450BD0604518BF504507D021
:101BF000484518BF984203D0904218BF884207D189
:101C000046F4806604E0B0F5007F08BF46F4007635
:101C1000216872484A6C024016434E6422680021D3
:101C2000002091642168C867606B00216860E960EA
:101C3000012028720020BDE8F28F2846FFF7F4BD8E
:101C400070B5044600F05CFB0546002C2ED02068E1
:101C5000594988421CBF5E4A904215D05B49884270
:101C60001CBF594A90420FD0564988421CBF544A63
:101C7000904209D0574988421CBF574A904203D02E
:101C800040F25D1100F094F820684169060B3603BC
:101C900041F00601416120684169C80708D500F09C
:101CA0002FFB401B0628F6D300F039F8012070BD49
:101CB000216800200022086023685A6121680864B6
:101CC000206800214264226800209164216800227B
:101CD000C8642068002102652268D16770682268A4
:101CE0000121503AD20902F01F02914088437060EE
:101CF00021684FF4FE400022C86004F14C0100202E
:101D00004861C861486208698A610A628A6200B1F2
:101D10000A6100204860CA6008720A7070BD04F150
:101D20004C001021C1600322027270472DE9F0417E
:101D300004000F4690461D4637D015B1B5F5803FDB
:101D400003D340F2172100F033F804F14C06307849
:101D5000012808BF022029D001203070317A0129E2
:101D60001FD1022030720021F1602B4642463946D5
:101D7000204600F07EF92068416941F4BA41416192
:101D8000B06920B12068416941F400714161706A15
:101D900020B12068416941F40051416100F020F810
:101DA00004E04020F060002131700120BDE8F081A6
:101DB0000248FFF739BD000050000240B8AE0A08E3
:101DC000D002024050020240D001024050010240C5
:101DD000D000024050030240D0030240C031E03C3A
:101DE0002068416941F0010141610020704738B528
:101DF000044600F085FA05463CB304F14C00017A34
:101E0000022902D02022C2601DE021684A6942F006
:101E100004024A6105210172206801698A0416D40E
:101E200000F06EFA401B0628F6D304F14C00C1689E
:101E3000032241F01001C160027201790A0602D545
:101E4000826A0121117300210170012032BD4169B4
:101E5000042341F00201416104F14C000372226845
:101E60004FF4FE410123D160037201790A0605D5C2
:101E7000826A012111732368002199640021017095
:101E8000002032BD30B100F154010A78022A03D09B
:101E9000202048600120704704220A7000684169D0
:101EA00041F4005141F0040141610020704738B510
:101EB00004462068010B0903C968A0F15002D20949
:101EC00002F01F02D140C90740F1A380016904F16B
:101ED0004C054A0509D541694A0506D54FF480618C
:101EE000C160E86840F00100E860206801690A0507
:101EF00009D541690A0506D54FF40061C160E8685B
:101F000040F00200E86020680169CA0409D541690F
:101F1000CA0406D54FF48051C160E86840F004005F
:101F2000E860206801694A0409D541694A0406D578
:101F30004FF48041C160E86840F00800E860206824
:101F400001698A0509D541698A0506D54FF40071F2
:101F5000C160A96909B120468847206801698A04DF
:101F600024D541698A0421D54FF40051C160287AF3
:101F7000042815D12068416921F40051416100F025
:101F800049F804D5A96A0873226800209064296A78
:101F90000020287000293CD02046BDE83440084786
:101FA00005202872696A09B12046884721680869B6
:101FB000C2051FD54869C2051CD5287902060BD574
:101FC000C86F002804BF886C002809D1012129723C
:101FD000A96A0120087303E0886C08B901212972FD
:101FE00021684FF440700022C86069692A7009B105
:101FF00020468847E86860B100F00CF844BFA96A41
:102000000873E9690020287019B12046BDE8344002
:10201000084731BD2068416941F00201416101205A
:10202000287229790A067047000038B504000D4669
:1020300001D1012032BD112D18BF102D03D040F267
:102040006A51FFF7B5FE22680121100B503AD20900
:1020500002F01F0200039140EA0608D505F01105C1
:10206000112D42680CBF114322EA0101416000209A
:1020700032BD10B50068846C63F30F0484644FF4C0
:10208000FE43C360C164026510BD8268521C826059
:10209000426832B10268531C036011704168491EE6
:1020A000416070472149C86910F00C0001D12448F3
:1020B0007047082818BF00F03BB80968DFF8100126
:1020C000090D01F00101C840704780B5FFF7EAFF34
:1020D000404909683D4A1B4B01F00701515CC8406B
:1020E000186002BD80B5FFF7F0FF3A4A0CE080B5FA
:1020F000FFF7EBFF374A13683749C3F3022207E0C3
:1021000080B5FFF7E2FF354A13683349C3F3021283
:10211000895CC84002BD10EE100A491CB0FBF1F00A
:1021200010BD2F4804680FE000000000000C0246BC
:1021300010B5FFF7F6FFBCEEC00AC4F30661EAE78C
:102140000024F400404001202648416BC1F30801FF
:10215000491C00EE101A816AB8EE400AC1F302224F
:10216000521C00EE902AF8EE600ACA0643BF826B4A
:10217000C2F3CC0201EE102A9FED111A01F0030107
:10218000B8EE411A022902D0032903D00DE0DFED99
:102190000D1A0CE000680E49000D00F00100C1406E
:1021A00001EE901AF8EE611A01E0DFED051AC1EEBA
:1021B000A00ADFED051A01EE210A20EE800A704721
:1021C000000000000024744B0000003958D20A08B7
:1021D0000048E801200C024660D20A08240C02469E
:1021E000340C0246000C0246D3BBD9B1B2F5803F95
:1021F0005BD2022A1ED98C46B1FBF2F102FB11C35D
:102200001B0443EA1043B3FBF2FC02FB1C3380B215
:1022100040EA0343B3FBF2F002FB103240EA0C4009
:1022200000237047022A05D98446B0FBF2F002FB76
:1022300010C270474AB105D100F0010249085FEAB7
:102240003000704700220023704701F037BB0B00BD
:102250000200002100207047F7D3002200237047BE
:10226000904271EB030CF2D370B5B1FA81F4B3FA7A
:1022700083F52C1BA340C4F1200532FA05F6334345
:10228000A2405FF00046E64002E05B085FEA3202EF
:10229000841A71EB030524BF204629467641F4D306
:1022A00002000B003000002170BD70B5B1FA81F45E
:1022B000B2FA82F5C4F120046419B4F12006DAD32D
:1022C000B2405FF00044F440002502E052085FEAAB
:1022D0003303C61A71EB020E24BF304671466441C7
:1022E0006D41F3D302000B002000290070BD28B11E
:1022F0000068401AB0FA80F040097047002070472B
:1023000001484068704700BFE43F012080B50B489A
:10231000016841F480710160032000F0D5F801F0FC
:10232000DDFA042000F078F90E2001F0E1FA08B19E
:10233000012002BD01F026FB002002BD002002406A
:1023400080B5002200926946002001F093FC00282D
:1023500012BF0C200098807B01F0B4FE01BD10B5C7
:10236000002001F0E1FE32480168324C41F40001E6
:10237000016001F0DBFE304802F000F8FFF7BAF927
:10238000D4E9000102F00CF902F022F902F046F95A
:1023900002F044FA02F08AFD04F1080002F0B2FDF6
:1023A00008B1FFF73FFA254A0021202003F02FF85B
:1023B00000F05DFB224A0021012003F028F8214AA9
:1023C00000214FF4807003F022F80121012003F076
:1023D00053F80021022003F04FF80021002003F001
:1023E0004BF803F0B6F803F0C0F8174A002140207C
:1023F00003F00DF8154909884FF6FF72914201D09C
:10240000080001D1124803E0C908124800EB41302E
:1024100003F09AF908B1FFF705FA03F089FF0121EB
:10242000022003F029F8002001F07FFE002010BDFB
:10243000F40C0246D83E01204000003063520808E8
:10244000E12A0808B78308088DAF0808A007F90B30
:1024500000C00F0800C0FF074FF0FF3002F022BF9E
:102460007047704770470021402002F0DEBF002116
:10247000012002F0DABF0FF21D0101600FF21D0210
:102480000FF221034260836070470021202002F098
:10249000CCBF0000890004F00DBF0000800004F0F4
:1024A000ADBE000004F0EFBE00214FF4807002F0DA
:1024B000BCBF7047704703F0B3B8FA0096006400E1
:1024C0004B0032001E00140010B50446072C18BF44
:1024D000062C07D0052C1CBF042C032C02D0B721DE
:1024E00000F0D2F8DFF8A801016840F2FA5264F374
:1024F0000A2162F31F41016010BD2DE9F84F8046AB
:102500000E46DFF88C01016801251446C1F302274D
:10251000DFF880A1032F01D234B909E007F1FD02F1
:1025200005FA02F2944203D3D1215046FFF77CF919
:10253000C7F10709C7F1070B05FA09F9BBF1030F4A
:1025400002D84E4502D205E00F2E03D9D2215046C3
:10255000FFF76AF9BBF1050F2CBF4FF00F09A9F186
:102560000109381D072834BF0027FF1EBD4009EAB6
:1025700006066D1EBE402C40264330015FEA08016E
:1025800003D4DFF81421505406E0DFF8103101F0D5
:102590000F01194401F8040CBDE8F18F010001D5C9
:1025A000E32117E0012200F01F018A40DFF8F0303C
:1025B000400943F820207047010001D5F32109E0CC
:1025C000012200F01F018A40DFF8D830400943F8AB
:1025D000202054E0DFF8BC00FFF726B9401EB0F120
:1025E000807F08D2DFF8C010486000228A600B6844
:1025F00043F003030B60B0F1807F8041C043C00F04
:102600007047010007D4012200F01F018A40274BC8
:10261000400943F82020704770B50446244D224EEF
:10262000012C1CD0022C20D0042C0BD07CB140F209
:102630009D1100F029F8042C20D8DFE804F00810E0
:10264000161F0300316841F00401316070BD30682D
:1026500020F004003060296821F440010DE030686A
:1026600020F004003060012004E03268022022F0F3
:1026700004023260296860F39751296070BDBFF38E
:102680004F8FBFF36F8F70470248FFF7CDB8000040
:102690000CED00E094A90A0800E400E018ED00E069
:1026A00000E100E080E100E010E000E000E200E096
:1026B000E00C024610B5040001D1012010BD00F06D
:1026C0006AF81FBFDFF8D8209042DFF8D830984270
:1026D00002D0DC2100F011F802202071204601F028
:1026E00089F90020A0600121217110BD0220A8609D
:1026F000012070BD3046FFF797B82B48FFF794B81C
:1027000070B5054628680C462849274E88421FBFE9
:10271000234A9042234B984203D040F25321FFF7C3
:10272000E9FF002C18BFB4F5803F15D0B4F5003F89
:1027300018BFB4F5403F0FD0B4F5802F18BFB4F5E3
:10274000A02F09D0B4F5C02F18BFB4F5E02F03D0E7
:102750004FF41571FFF7CEFF2879012807D1022128
:1027600029712868012204602A71002070BDBDE72C
:1027700010B500F00FF81FBF094A9042094B98426C
:1027800003D040F27721FFF7B8FF2168086800F412
:10279000E02010BD044620680449884270470000CC
:1027A0004060024040610240A4AB0A080060024061
:1027B00038B5040001D1012032BD2068304A314DC6
:1027C000904203D0A3212846FFF72EF86068002826
:1027D00018BF202803D0A4212846FFF725F8607AE7
:1027E00020B900212172204601F011F90220607207
:1027F00020684AF6C723016821F00401016062687D
:102800002168214802430A602268136100F042F8FF
:10281000054600F03BF80CD5FFF772FD401B0B2876
:10282000F7D300F033F8F4D5012060720221E160A3
:1028300032BD016841F0040101602068416848062A
:1028400002D504216172B6E7FFF75AFD05462068FC
:102850004168C8070DD4FFF753FD401B0B28F6D382
:1028600020684168C807F2D4042161720220E06048
:10287000A1E7012060720021E160002032BD00006C
:1028800000080C42B8B00A08002DF040206801682A
:102890004A0070472068016821F080410160FFF71D
:1028A0002FBD10B50446206841688A0602D5102065
:1028B000E06027E04A0605D54B071BD4426822F0AA
:1028C00040024260C80714D52068016821F0080161
:1028D0000160206881682161607A042809D00121A3
:1028E00061720022227221692046BDE8104004F086
:1028F00025BD10BD0822E2602368186820F008009A
:102900001946086004206072204604F018FD216812
:102910006FF06000486010BD8068704780B504208B
:1029200004F00EFD7E48016821F0040101600120E1
:1029300000F020F80420BDE8024004F002BD38B5E4
:10294000044604F007FDEFF3108172B6754A92F861
:10295000820048B9744B1D6845F480251D601B68D2
:1029600003F480230093009B044382F8824081F3A8
:10297000108831BD82B0EFF3108272B6694991F8C8
:10298000823033EA000081F8820082F3108808D197
:10299000B222009202E00098401E009000980028A9
:1029A000F9D1EFF3108272B691F8820020B95E4837
:1029B000016821F48021016082F3108802B004F0E4
:1029C000D9BC2DE9F041044604F18007797800264E
:1029D000534D79B9032004F0B3FC0120FFF7AFFF9A
:1029E000286840F004002860032004F0AAFC0120BD
:1029F000787039E06868800705D56FF0200169605C
:102A000040F2011630E0686840060BD56FF04001D7
:102A100069600C242846FFF77FFF641EFAD14FF44B
:102A2000817621E0387820281BDAEFF3108872B61F
:102A3000052004F085FC08E02846FFF76DFF397893
:102A400044F821003878401C38703978202902DA9F
:102A50006868C007F0D4052004F073FC88F3108880
:102A600002E0FFF75BFF7E703046BDE8F08138B5CD
:102A70002C4C04F18005002028806860A870204656
:102A8000FFF79FFF6860687810B168680028F6D08B
:102A900031BD70B5234B03F18004EFF3108516E0D0
:102AA000521E2270D2B253F822200CE072B6227865
:102AB000002AF5D140F20312C6B2626006F01F068A
:102AC00053F82620D24385F3108841F8042B0246A0
:102AD000501ED2B2002AE9D1BDE87040FFF7C7BC52
:102AE000104838B500F180056978002411B92A78BA
:102AF000202A13DAEFF3108172B66C6800226A6044
:102B000081F310883CB9FFF75CFF040003D16878BB
:102B100020B1012400E00CB1FFF7A9FC204632BD32
:102B200000080C425C9801208C0C0246002204F044
:102B300025BC60000600F000F000600070B504469F
:102B40000120002C00F0CF802268DFF8AC31DFF8E4
:102B5000AC519A4203D040F2051100F0C5F860680C
:102B6000402818BF002803D04FF4837100F0BCF850
:102B7000A068802803D340F2071100F0B5F8E068A0
:102B8000B0F5004F03D34FF4847100F0ADF8206925
:102B9000002818BFB0F5001F0BD0B0F5800F1CBF88
:102BA000B0F5C00FB0F1806F03D04FF4857100F025
:102BB0009BF8A069002818BFB0F5801F03D040F231
:102BC0000B1100F091F8E069B0F1804F18BF0028B8
:102BD00003D04FF4867100F087F8206A002818BFF0
:102BE000B0F1005F03D040F20D1100F07DF8606994
:102BF000002818BFB0F1004F03D04FF4887100F0E7
:102C000073F8606A00281CBFB0F5807FB0F5007FC4
:102C100003D04FF4897100F067F8A06A002818BF4C
:102C2000B0F5806F15D0B0F5006F18BFB0F5406FEC
:102C30000FD0B0F5805F18BFB0F5A05F09D0B0F538
:102C4000C05F18BFB0F5E05F03D040F2131100F091
:102C50004BF804F12C05687820B900212970204632
:102C600000F0FDFE02226A70DFF8E4643068C106FD
:102C700036D4CA20B0615321B161204600F09CFADD
:102C8000010028D1F168DFF8CC040140F160F2685E
:102C9000606821690243A0690A430243F260E16867
:102CA000A06841EA004171603268606AA16A22F45A
:102CB000F85202430A433260204600F09FFA0100B6
:102CC00009D1F368216AE26923F060430B4361692B
:102CD00013430B43F360FF22B261010003D100E014
:102CE00000200121697070BD2846FEF79DBDDFF808
:102CF0006005FEF799BD00000078004638B10A086B
:102D0000206800F44070B0F5807F70474046FEF7C1
:102D10008BBD2DE9F84F00F072F908BF022000F0DA
:102D20004D8100F0CEF935D1B9F1000F18BFB9F1DE
:102D3000010F03D040F21461FFF7E8FF00F05BF9E8
:102D400018BFB0F5007F03D040F21561FFF7DEFF3A
:102D500000F046F903D040F21661FFF7D7FF286A6A
:102D6000002818BFB0F1804F03D040F21761FFF781
:102D7000CDFF6868B0F5004F03D34FF4C361FFF790
:102D8000C5FFA869002846D000F026F943D340F2D9
:102D900019613EE0FFF7B4FF11D1A86930B100F02E
:102DA0001BF903D340F21D61FFF7B0FFE86900286B
:102DB00018BFB0F1004F2ED040F21E6129E0B9F1EA
:102DC000000F18BFB9F1010F03D040F22261FFF7E5
:102DD0009DFF00F010F918BFB0F5007F03D040F25E
:102DE0002361FFF793FF00F0FBF803D040F224616A
:102DF000FFF78CFF286A002818BFB0F1804F03D07E
:102E000040F22561FFF782FF00F000F903D240F2A3
:102E10002961FFF77BFF00F0E7F853D02878B9F17C
:102E2000000FE1684FD14A060ED508B10D2803D333
:102E300040F23661FFF76AFFE878002818BF0128E2
:102E400009D040F2376104E0EE70182803D340F255
:102E50003C61FFF75BFF68783C2803D340F23E619A
:102E6000FFF754FFA8783C2803D340F23F61FFF7F7
:102E70004DFF296A387829B908B1202813D340F2C8
:102E800043610EE0012818BF02280CD0032818BFA8
:102E9000042808D005281CBF0628072803D040F2C4
:102EA0004761FFF733FF287800F0DCF906466878C1
:102EB00000F0D8F900F0B4F88046387800F0D2F984
:102EC00000F07EF85DE04A0612D500F0D6F918B1A0
:102ED00000F0ABF80D2803D340F25561FFF716FF61
:102EE000E878002818BF01280BD040F2566106E0B0
:102EF000EE7000F0C2F9182803D340F25B61FFF7CF
:102F000005FF00F0D3F83C2803D340F25E61FFF7E1
:102F1000FDFEA87800F0B1F93C2803D340F25F61D0
:102F2000FFF7F4FE296A387849B900F0A6F918B11C
:102F300000F074F8202822D340F264611DE000F014
:102F40009CF901281BD000F069F8022817D000F086
:102F500065F8032813D000F061F804280FD000F0C2
:102F60005DF805280BD000F059F8062807D000F0CE
:102F700055F8072803D04FF4CD61FFF7C7FE00F0E6
:102F800056F800F038F8E0680BD100F078F80CBF84
:102F900040F0006020F00060E060E06840F488509D
:102FA0000AE000F056F80CBF40F0805020F080504E
:102FB000E060E06840F4085000F07AF8BDE8F28F75
:102FC000E97848EA06026E6942EA815141EA006105
:102FD000286A08430643704700F17F405045704718
:102FE000686930F080307047D4F800A00AF4407A65
:102FF000BAF5807F7047B868B0F5807F704700F100
:103000002C0B9BF800000026012870472068A96956
:10301000C0F382200830B0EB116F704738782CE194
:10302000000240EA0646A8781CE1287825E1697884
:103030002878EA78090241EA0041A8783B786E696D
:10304000014341EA8251286A41EA036101430E4388
:10305000704720F40850E06002212165BAF5807FB6
:1030600004D1A969E8690143216402E0E663A86923
:1030700020646868A0667968E0680129704720F4D8
:103080008850E06001212165BAF5807F04D1A969EB
:10309000E8690143A16302E06663A869A063686808
:1030A00060667968E0680129704728706878E4E014
:1030B000E06001208BF8010000218BF80010002057
:1030C00070470D4601208BF8000002218BF801109B
:1030D0001F4C206805F12407DFF87CA1DFF8708120
:1030E000914610F4407F704738B50D460446B5F55B
:1030F000807F18BFB5F5007F03D040F2D461FFF7A1
:10310000F6FD04F12C000178012901D1022032BD25
:1031100001210170022242704E49B5F5807F0A6894
:1031200007D122F488520A60CB6A23F00043CB62B5
:1031300006E022F408520A604B6B23F000434B6315
:103140000121417000220270002032BD0000000009
:103150000C780046BFFF8FFB70B5404D2E680446CB
:10316000F10703D50122AA6004F09FF9B00704D546
:103170000221A960204604F0B4F9012084F82D0052
:1031800070BD70B50446364D286820F020002860D8
:10319000FFF7B6F80646286881060BD4FFF7B0F8AB
:1031A000801B40F2E9318842F5D32868810601D4BA
:1031B0000320E3E7002070BDF8B500F043F84106B6
:1031C0001AD4306840F080003060FFF799F8074665
:1031D00003E00320032584F82D00316848060BD452
:1031E000032D09D0FFF78CF8C01B40F2E93188426B
:1031F000F3D330684106ECD52846F2BD70B500F037
:1032000021F820F080003060F168880608D420465C
:10321000FFF7B7FFA0B1032084F82D0003250FE0CE
:10322000F06820F02000F0602046FFF7AAFF18B1F8
:10323000032084F82D000325F06840F02000F060A2
:10324000284670BD0446064E3068002570470000D1
:1032500038B10A08187800460100003E547800464C
:103260000C780046002101E0491C0A38C2B20A2A43
:10327000FAD240EA0110C0B2704701090A2200F0F8
:103280000F0002FB0100C0B2704730000600A00032
:10329000A00030000A60012141700022027000206D
:1032A000704710F82C1F012901D10220704701211D
:1032B000017002234370DFF84C100A6842F02002CC
:1032C000E8E710F82C1F012901D1022070470121E5
:1032D000017002234370DFF82C100A6842F080026C
:1032E000D8E710B50446DFF82C0001684A0604D57B
:1032F00040218160204604F0DAF8012184F82D1085
:1033000010BD000018780046DFF84400FEF78CBAC4
:10331000000000005478004638B50C461546202CB5
:1033200003D340F60A21FFF7EFFF0A4800EB8400C1
:10333000056031BD10B50C46202C03D340F6242186
:10334000FFF7E2FF034800EB8400006810BD0000B7
:10335000ACAC0A08007D004638B500F031F81FBF5C
:10336000DFF878219042DFF87831984203D040F2BC
:10337000F71100F021F804F184052878012801D123
:10338000022032BD01202870242169602068016874
:1033900002685208520002604FF0005060662268D6
:1033A00041F000512046116000F09CF82020686038
:1033B00000212970002032BDDFF81C01FEF734BA6D
:1033C00004462068DFF80C1188427047F8B500F019
:1033D00079F81FBFDFF804219042DFF804319842EA
:1033E00003D040F24E2100F06AF8002C18BFB4F16F
:1033F000005F0FD0B4F1804F18BFB4F1C04F09D0B7
:10340000B4F1004F18BFB4F1204F03D040F24F2168
:1034100000F055F805F184063078012801D102202A
:10342000F2BD00F03FF821F060412EE0F8B500F069
:1034300049F81FBFDFF8A4209042DFF8A43098427B
:1034400003D040F27F2100F03AF8002C18BFB4F10D
:10345000007F0FD0B4F1806F18BFB4F1C06F09D0F6
:10346000B4F1006F18BFB4F1206F03D04FF4207196
:1034700000F025F805F184063078012801D10220FA
:10348000F2BD00F00FF821F060610C438460284623
:1034900000F028F82868202100220760716032704F
:1034A0000020F2BD01203070242171602868076877
:1034B0000168490849000160286881687047304602
:1034C000FEF7B2B9054628680C460249024E88420A
:1034D000704700000038014030AD0A080044004049
:1034E0000024004630B5416E11B90122012114E0DB
:1034F000026800BF0FF22C040CA391689268490E79
:1035000001F00701520FA55C645C9A5C595CED0008
:10351000E40095FBF2F294FBF1F168304280018007
:1035200030BD00000101010307010000080402048E
:10353000080101012DE9F84F81460027DFF8580303
:103540000E46DFF8588381451CBFDFF854138945C8
:103550000AD0DFF8500381451CBFDFF84C239145AA
:1035600002D0AF2100F0F1F83068010402D0000C65
:10357000000402D0B02100F0E8F87068002818BFFD
:1035800001281CD0112818BF022818D0122818BFF3
:10359000B0F5881F13D0B0F5041F18BFB0F5441F55
:1035A0000DD0B0F5901F18BFB0F5081F07D0B0F5CB
:1035B000481F18BF032802D0B12100F0C6F8B7E0B9
:1035C0000125BD402C4000F0B2804FEA470A03209D
:1035D00000FA0AF06FEA000B706800F0030101299D
:1035E0001CBF00F0030002281AD1F06800281CBF9D
:1035F0000128022802D0C02100F0A7F8D9F808005D
:10360000F16800F09CF8C9F80800D9F8040020EA35
:1036100005057068C0F30010B8400543C9F80450B0
:103620003179B06801F00301032908BF01280ED0E9
:1036300000281CBF0128022802D0D32100F085F801
:10364000D9F80C00B16800F07AF8C9F80C003079AC
:103650000F2500F00300022827D18F4881451CBFA9
:103660008F49894508D08F4881451CBF8E498945BF
:1036700002D0E02100F069F83069102802D3E1217E
:1036800000F063F8F80809EB8000D0F820C0B9001A
:10369000336901F01C0105FA01F22CEA020203FA77
:1036A00001F141EA020CC0F820C0D9F800000BEA91
:1036B0000001307900F0030000FA0AF040EA010A44
:1036C000C9F800A0716811F4403F30D0B8087749BC
:1036D00051F82020FB0003F018039D4022EA050565
:1036E000734A02EA992202FA03F31D4341F820507B
:1036F000704802687368E1430A40DB0248BF224316
:103700000260426873680A409B0248BF22434260DD
:10371000694A5068736808409B0348BF2043506063
:10372000106801407068C30348BF214311607F1CCB
:10373000346834FA07F07FF443AFBDE8F18F0BEA49
:10374000000001FA0AF1084370474046FEF76CB8E2
:103750002DE9F843044600264F4888464F4F8442DF
:103760001CBF4F498C4209D04E4884421CBF4E4A70
:10377000944203D040F22F1100F08AF85FEA08412A
:1037800003D04FEA1840000457D04FF4987100F06E
:103790007FF852E00121B14011EA08004CD0B20894
:1037A000424BDFF80C9153F82250F70009EA9429B4
:1037B00007F018074FF00F0C0CFA07FE0EEA05058C
:1037C00009FA07F7BD4219D13B4F3D68C043054098
:1037D0003D60D7F8049000EA0909C7F80490354F16
:1037E0007D6805407D60D7F8009000EA09003860E8
:1037F00053F8220020EA0E0E43F822E02268032745
:10380000700087403A43F308226004EB8300026AA9
:10381000B30003F01C030CFA03F322EA030CC0F814
:1038200020C0A068FF433840A060626822EA01011E
:103830006160E0680740E760761C38FA06F0A9D1BD
:10384000BDE8F18338B504460D0004D14FF4BF71D3
:103850001248FDF7E9FF2069284018BF0120C0B2D7
:1038600032BDF8B50D46164604460C4F2A0003D16A
:103870004FF4CE7100F00CF8300007D0012E03D0C9
:1038800040F29D1100F004F8A561F1BDA562F1BD03
:103890003846FDF7C9BF000000000242B8AF0A0871
:1038A0000004024200080242001C0242602002465C
:1038B0007F7F2F0000200246802002467047D00400
:1038C0008901D00478018901DFF800F019E0070CC4
:1038D0000548016841F470010160704780B5FFF749
:1038E000F3FF0249086001BD88ED00E0404001207F
:1038F000F8B504461F4D2878002100282ED01E4A16
:1039000012681E4B1E68770702D54FF47A710DE0DE
:103910001B4B1B6813F4400306D0B3F5800F08D08F
:10392000B3F5000F0ED015E04FF4FA51B1FBF0F0F3
:103930000EE04FF47A72B2FBF0F24FF4FA43B3FBAD
:10394000F2F107E04FF47A71B1FBF0F04FF400426E
:10395000B2FBF0F10846FEF741FE08B10120F2BDCE
:10396000002221464FF0FF30FEF7C7FDAC6000207B
:10397000F2BD00BFE43F01204040012010E000E024
:10398000E00C024680B5AC480168002241F0040119
:1039900001600068012100F004000090009B0920F4
:1039A000FEF7ABFD0920FEF7F9FD002205214220BC
:1039B000FEF7A3FD4220BDE80240FEF7EFBD81B057
:1039C00000689E49884209D19D48026842F48052AD
:1039D0000260006800F480500090009801B07047C9
:1039E00000689649884204D19548026822F48052C2
:1039F0000260704781B09248016841F40031016073
:103A0000006800F400300090009801B0704718B5CD
:103A100093B000F04CF822688A498A421DD14FF4D5
:103A2000807001904FF400510A9101A800F038F91C
:103A300008B1FDF7F7FE84480168002241F48021B7
:103A400001600068002100F48020009000983B2075
:103A5000FEF753FD3B20FEF7A1FD14B010BD18B5D5
:103A600093B000F024F8226878498A421DD14FF4BF
:103A7000804001904FF48071119101A800F010F97D
:103A800008B1FDF7CFFE72480168002241F4001131
:103A900001600068042100F40010009000980220EA
:103AA000FEF72BFD0220FEF779FD14B010BD044691
:103AB000482101A8FFF73AB838B598B00446142158
:103AC0006846FFF733F8482106A8FFF72FF820686B
:103AD0006049884275D1012202210692079106A809
:103AE00000F0DEF808B1FDF79DFE574881695A4D98
:103AF00041F480418161816901F480410591059A19
:103B0000036843F002030360016801F002010591BC
:103B100005990268022142F001020260006800F08B
:103B200001000590059A4FF48050002200F059F8EA
:103B30004A48FFF7FFFC00224FF48070022100F09A
:103B400050F84748FFF7F6FC464828604FF400203D
:103B5000686101200B2100226862A8626960AA6086
:103B6000EA602A6100F034F808B1FDF75BFEC4F8A2
:103B7000805000F028F808B1FDF754FE3A4D3B485C
:103B800028604FF480600C21E86069600120002209
:103B900008216862A862AA6029616A6100F018F8C9
:103BA00008B1FDF73FFEE56700F00DF808B1FDF73D
:103BB00039FE002207212E20FEF79FFC2E20FEF763
:103BC000EDFC19B030BDEC6510212846FEF72DBA8A
:103BD000AA61EA612A62EA622A636A632846FDF7FB
:103BE000CDBE029203920090019107220492694691
:103BF000704710B504462068164988421AD11C48FF
:103C000002684FF4805122F4804202601348FFF7AB
:103C10009FFD4FF480711248FFF79AFDD4F88000A1
:103C2000FEF70EF8E06FFEF70BF82E20BDE810400F
:103C3000FEF7C2BC10BD0000940C024600300240EA
:103C4000880C024600080C428C0C024600780046A4
:103C5000A80C024600380140649901200004024289
:103C600000000242D0000240DC99012050000240D6
:103C7000A40C024640B5084A084E00E0103A0A601B
:103C8000D37B834218BFB242F8D1834201D00120D6
:103C900040BD002040BD0000F001F90B0000F90B11
:103CA0002DE9FC4706463068DFF85814DFF85894D1
:103CB000084203D0DFF85424104202D0782100F0EB
:103CC000FEF93078DFF84854C10711D57068002834
:103CD00018BF012806D0022818BF032802D07E2171
:103CE00000F0EDF929687068890840EA81012960CF
:103CF0003178880711D5B068002818BF042806D08D
:103D0000082818BF0C2802D0892100F0D8F92968AA
:103D1000B06821F00C01014329603178480710D5C3
:103D2000F06800281CBFB0F5806FB0F5006F02D0BE
:103D3000A12100F0C4F92968F06821F44061014331
:103D400029603178080714D53069002818BFB0F50C
:103D5000802F08D0B0F5002F18BFB0F5402F02D04B
:103D6000D12100F0ACF92968306921F440210143E8
:103D700029603178C80610D5706900281CBFB0F5DD
:103D8000801FB0F5001F02D0DD2100F098F92968EE
:103D9000706921F44011014329603178880610D5FB
:103DA000B06900281CBFB0F5800FB0F5000F02D03D
:103DB000E82100F084F92968B06921F44001014349
:103DC0002960317848060ED5F069002818BFB0F197
:103DD000004F02D0F22100F072F92968F06921F059
:103DE0000041014329603178DFF8287308061ED5A9
:103DF000306A002818BF202807D060281CBF402840
:103E0000802802D0FD2100F05AF96968306A21F05B
:103E1000E00101436960306A18B9386840F48030C5
:103E200004E0202803D1386840F40030386031685D
:103E3000C8051DD5706A002818BFB0F5805F09D08D
:103E4000B0F5005F18BFB0F5405F03D040F2171126
:103E500000F035F96968706A21F4405101436960E6
:103E6000716AB1F5405F03D1386840F400303860C2
:103E7000316888021CD5B06A002818BFB0F1804FA5
:103E800003D040F23F1100F01AF96968B06A21F0DE
:103E9000804101436960B06A18B9386840F48030E5
:103EA00005E0B0F1804F03D1386840F4003038604D
:103EB0003168880512D5F06A002818BF012807D09C
:103EC000022818BF032803D04FF4AC7100F0F7F8B4
:103ED000A968F06A890840EA8101A960316848054B
:103EE0000FD5306B00281CBF0828102803D04FF4D2
:103EF000B17100F0E4F8A968306B21F018010143BA
:103F0000A960316808050FD5706B00281CBF4028D8
:103F1000802803D040F26D1100F0D1F8A968706BD1
:103F200021F0C0010143A9603168C80415D5B06B08
:103F3000002818BFB0F5806F09D0B0F5006F18BF2A
:103F4000B0F5406F03D040F2771100F0B8F8A968DF
:103F5000B06B21F440610143A960316888041FD52A
:103F6000F06B002818BFB0F5805F0BD0B0F5005F94
:103F70001CBFB0F5405FB0F5804F03D040F2811117
:103F800000F09DF8A968F06B21F4E0410143A960BD
:103F9000F16BB1F5005F03D1386840F480303860D0
:103FA0003168480467D5306C0024002818BFB0F58C
:103FB000807F09D0B0F5007F18BFB0F5407F03D0F7
:103FC00040F2931100F07BF8D5F81080306C08F4C3
:103FD000407880454FD0F96E480709D4F96E012426
:103FE00041F00401F966F86E00F0040000900098BA
:103FF000DFF82451286840F001002860FEF780F9BE
:1040000082462868C10707D4FEF77AF9A0EB0A00B8
:104010000328F6D3032050E0DFF8F4502869B8F104
:10402000000F20F4407009D0A9692A6942F4803257
:104030002A612A6922F480322A61A961316C014324
:104040002961DFF8D81011EA00080FD0FEF758F9FF
:104050008246286910EA480F08D1FEF751F9A0EB13
:104060000A0041F289318842F3D3D3E71CB1F86EDC
:1040700020F00400F866306801041DD5706C00283B
:1040800018BFB0F5802F09D0B0F5002F18BFB0F5DC
:10409000402F03D040F2E91100F011F82969706C4B
:1040A00021F44021014329612969706C01F4402108
:1040B000814218BF012000D10020BDE8F6874846A4
:1040C000FDF7B2BB10B50446402C03D340F2CD51EE
:1040D00000F008F81248016821F47C1141EA04411B
:1040E000016010BD0848FDF79FBB0E48016841F014
:1040F0000201016070470B48016821F00201016074
:1041000070470000FFFF200028AC0A080000DFFF16
:10411000E00C0246280C0246280802460100002452
:10412000100E0246080E0246704770470020914963
:104130000860914B1A681047F8B5040015461E46F2
:1041400011D030000FD0069F00202060084600F0FC
:104150005CF86060002020726072A072E6602761E7
:10416000E5726061F2BD0120F2BD2DE9F041044627
:10417000002594B300F0C1F8002804BF607A00283D
:104180002BD1EFF3108672B67B4F386AD4F80480D7
:104190008047404538BF404620600120257260724C
:1041A000A572DFF8D081D8F8000018B938698047C7
:1041B00020460AE0B8698047216840182060D8F896
:1041C000002013689842204602D200F0CAF801E0AD
:1041D00000F0B4F886F3108800E001252846BDE819
:1041E000F08110B50400084601D1012010BD00F097
:1041F0000CF86060204600F080F810B1204600F016
:1042000007F82046BDE81040AFE75B4A516A08470F
:10421000F8B5002420B3EFF3108572B6554E32681E
:104220000127877213461146BAB1447282420BD1FC
:104230005069147218B1306000F06AF80DE04E4910
:10424000C8688047346008E0814204D00B46496961
:104250000029F9D101E04869586185F3108800E030
:1042600001242046F2BD2DE9F84300240026002752
:10427000EFF3108572B6DFF80081D8F8140080479C
:10428000D8F81010814688473A4A1168A0EB090017
:1042900059B30B460A68904238BFA2EB000C10D30A
:1042A0004FF0000C32000CD1CA7A5B6981F808C06B
:1042B00081F809C0012A02BF8A7A002A0C460F69D8
:1042C000CE68C1F800C049690029E3D1DFF8A480B5
:1042D000C8F8003014B12046FFF747FFD8F80000B7
:1042E00018B1017A09B900F013F885F3108830008D
:1042F0001CBF3846B047BDE8F1831E49096800E09D
:10430000496919B18142FBD10120704700207047F3
:10431000F8B50446184D286A804701212172AF691B
:104320000646B84721683018814202D2B84736188D
:1043300026602068A968BDE8F440084710B50D491B
:104340000A68536901E01A465B69516931B11C681A
:1043500001688C42F7D35061436110BD50614161E7
:1043600010BD044A116809B100230B72416110604D
:10437000CEE7000064A50120C0CC0A0838B5044689
:10438000012C18BFB4F1011F12D0022C1CBFDFF8A2
:10439000580184420CD0DFF854118C421CBFDFF866
:1043A0005001844204D0082C1CBFDFF8480184422D
:1043B0007CD0DFF844118C421CBFDFF840018442FE
:1043C00074D0202C1CBFDFF8380184426ED0DFF897
:1043D00034118C4218BF402C68D0DFF82C01844285
:1043E0001CBFDFF828118C4260D0DFF82401844222
:1043F0001CBFDFF820118C4258D0DFF81C0184422A
:104400001CBF40F201118C4250D0DFF810018442F1
:104410001CBF40F202218C4248D0DFF804018442E4
:104420001CBFDFF800118C4240D0DFF8FC00844252
:104430001CBF40F608018C4238D0DFF8F0008442FF
:104440001CBFDFF8EC108C4230D0DFF8E80084426B
:104450001CBF42F220018C4228D0DFF8DC008442ED
:104460001CBFDFF8D8108C4220D044F240008442B8
:104470001CBFDFF8CC108C4218D0DFF8C800844293
:104480001CBFDFF8C4108C4210D0DFF8C00084429B
:104490001CBFDFF8BC108C4208D0042C1CBF102CB1
:1044A000802C03D04FF4F07100F019F8DFF8A4204D
:1044B000506804F0FF010325884340EA142050604F
:1044C00091FAA1F09368B0FA80F040008540AB43C8
:1044D00043EA1443936013681943116031BD0148E6
:1044E000FDF7A2B938B00A08020004000400100069
:1044F000040020000800400010000001100000022D
:10450000200000042000000C40000010400000309B
:104510008000004080000080800000C00101010098
:1045200002020400040410000404200008084000F3
:104530001010000110100002202000042020000CA8
:10454000404000104040003080800040808000806B
:10455000808000C01408024630B51A4C656AC1B0AC
:10456000854213D311F1010F0EBF4FF0FF3101202F
:1045700000FA01F1246A214208D04FF480716846A4
:1045800002F0B0FF81B2684602F0E5FF41B030BDF5
:1045900008B400B501ABFFF7DFFF5DF808FB0000D2
:1045A00038B504460D4602F0BBFF00BF06A1D1E9B5
:1045B000002304480021C0E90023446205628162AF
:1045C00031BD000044A201202525255B5D5C5C25F2
:1045D0000FF2050002F0BBBF70B50F4CB4F80051EC
:1045E0004FF480762946B1F5807F0DD200780D28F2
:1045F00003D12046FDF75FFF06E00A2801D129001C
:1046000007D060546D1C04E0314620460025FEF7BB
:104610008DFAA4F8005170BD1494012010B503F078
:104620007DF8040009D106480021064A4160C260B5
:10463000016003F0F3F803F021FA204610BD00BF3B
:10464000F03D012000100246DFF81C08016841F42B
:10465000803101607047DFF81008016841F4801173
:1046600001607047DFF80008016821F480110160E3
:104670007047DFF8F8170A68920840EA820008607D
:104680007047DFF8E807006800F00C007047DFF8BB
:10469000E0170A6822F010020BE0DFF8CC0701688F
:1046A00021F0807101607047DFF8C8170A6822F4B2
:1046B0008032104308607047DFF8B8070068C00B0D
:1046C00000F001007047000010B5044603F0D8F96F
:1046D00003F0E2F90020FFF7CCFF00BFFFF7D1FFA6
:1046E0000028FBD1FFF7B0FF00F058FB03F0D5F92D
:1046F00014B9FFF7B7FF01E0FFF7ADFF0220FFF7A6
:10470000B8FF00BFFFF7BDFF0828FBD1BDE8104090
:1047100003F0C4B900B581B04FF48030FFF7C4FF97
:10472000FFF7CAFF0028FBD00020FFF7CDFF0320D2
:1047300000F020FA01B000205DF804EBA7E70000CC
:1047400000B581B00220FFF794FF00BFFFF799FF8B
:104750000828FBD1FFF7A1FF01B003205DF804EBAF
:1047600008E2DFF80407816A41F480218162816AEE
:1047700041F003018162026842F080720260016DC3
:1047800041F040010165704710B586B0142101A8C1
:10479000FEF7CCF9DFF8E406016841F4003101606E
:1047A0000068DFF8DC1600F40030009000980A681A
:1047B000C2F30222C2F10700052828BF012104D25A
:1047C00001218140491E01F00101131D072B24BF67
:1047D000D01E81400901DFF8AC2611704FF4002093
:1047E000DFF8A43618600021ADF804101022029200
:1047F0004FF4486103910022DFF89046049205923D
:1048000001A9204603F04EF9206820F080002060C6
:10481000216841F00801216006B010BD70B5DFF8D5
:10482000584682B004F10C0000210022002300252C
:104830002EC02EC0DFF858160A68DFF8585605F16A
:104840000C0002F00F026260FDF792FFA0600021F1
:104850002970DFF82066D6F87C0440F40030C6F8F2
:104860007C04D6F87C0400F400300090009800F03E
:104870008CFAFFF789FFD6F8100400F00C000C2822
:104880005AD8DFE800F007595959595959591F5951
:1048900059592A0001202070D6F8F41341F48011F0
:1048A000C6F8F413D6F8F40540F01000C6F8F40585
:1048B00000F046F8306820F480303060207802B094
:1048C000287170BDD6F8F403C00254BF0220012045
:1048D0002070207802B0287170BD03202070D6F8B7
:1048E0001C04C0F30220401C2061D6F82804C0F349
:1048F0000800401C6061D6F82804C0F34620401C24
:10490000A061D6F82804C0F30640401CE061D6F848
:104910002804C0F30660401C2062D6F82C04C0F3C3
:10492000CC006062D6F8F40500F00700A062606A6F
:10493000022818BF01206073207802B0287170BD72
:1049400030B581B00F2002F0FBFCDFF82845D4F829
:10495000F403DFF8405540F48030C4F8F403287ABB
:10496000F8B1297801291CD1D4F81014022060F381
:104970000101C4F8101400BFD4F8100400F00C00BA
:104980000828F9D1032000F0F5F803F087F8DFF8E4
:10499000E8040178032908BFFFF7E3FEFEF79EFF56
:1049A00025E0022000F0E6F8DFF8CC0401780129C8
:1049B00003D0206840F480302060287A10B100F0E5
:1049C00061F914E00920FDF7F7FDD4F8440440F044
:1049D0001000C4F84404D4F8F403800304D5102173
:1049E000C4F84C1400F016FA0920FDF7D7FD01B009
:1049F0000F20BDE8304002F0A4BC000070B5EFF31A
:104A00001184102282F31288DFF88824131D1954B0
:104A10001079002100B101465079884238BF08461C
:104A20009179814238BF0146DFF84854D5F81034F7
:104A30000846DFF8446413F00C0F44D130700129AC
:104A400006D1286820F48030286084F3118870BD76
:104A5000296841F4803129601078002800F08780AF
:104A6000D5F8440420F01000C5F844042868000478
:104A7000FCD500F093F9D5F8F40320F48010C5F8C4
:104A8000F403D5F81014022060F30101C5F81014E6
:104A9000D5F8100400F00C000828F9D1032000F02C
:104AA00069F8D5F8F40520F01000C5F8F40502F017
:104AB000F5FF3078032808BFFFF753FEFEF70EFF1F
:104AC00084F3118870BD3178814250D0307010204D
:104AD00002F036FC307801282CD045D3032801D0D1
:104AE0000BD341E0D5F8F403C00203D5FFF712FE63
:104AF000FEF7F4FEFFF735FE36E0D5F8F403C0020A
:104B000002D5FFF707FE2DE0D5F8100400F00C00E9
:104B10000C2802D1FFF714FE24E0D5F8F40320F0AE
:104B20008070C5F8F403D5F8440420F04000C5F8BF
:104B3000440419E0D5F8100400F00C000C2808BF5C
:104B4000FFF7FEFDD5F8F40540F01000C5F8F405B8
:104B5000022000F00FF80120FFF7B6FD286820F4CE
:104B600080302860FEF7BAFE102002F0EAFB84F3E2
:104B7000118870BD042800D9704730B581B0DFE8D6
:104B800000F0031B37577100DFF8040302680321AC
:104B900061F303020260036803F00F03032BFAD1F1
:104BA000BC4C4FF4803104F10C00FDF7A9FD4FF42B
:104BB000803104F1180016E0B549AF4C0A6860680E
:104BC000120940EA02120A6060680A6802F00F02E5
:104BD0008242FAD1A168AF4D05F10C00FDF790FDBE
:104BE000A16805F1180001B0BDE83040FDF788BDAF
:104BF000A7480268012161F303020260036803F021
:104C00000F03012BFAD1A34C4FF4803104F10C00B7
:104C1000FDF776FD4FF4803104F11800FDF770FDCB
:104C2000954801214FF480324160826001B030BD6F
:104C300097480168090909010160026812F00F0F25
:104C4000FBD1944C002104F10C00FDF759FD00212B
:104C500004F11800FDF754FD874800214160816090
:104C600001B030BD8A480268032161F3030202608B
:104C7000036803F00F03032BFAD103207E49486039
:104C800001B030BD30B581B0112002F059FB794C34
:104C9000D4F8100410F00C0F44D120680004FCD5A7
:104CA000754D297802200129D4F8F41311D141F46B
:104CB0008011C4F8F413D4F8101460F30101C4F89F
:104CC000101400BFD4F8100400F00C000828F9D12B
:104CD0001EE021F48011C4F8F413D4F8101460F32A
:104CE0000101C4F8101400BFD4F8100400F00C0047
:104CF0000828F9D10320FFF73DFF2878032808BFD3
:104D0000FFF72FFDD4F8F40520F01000C4F8F405E7
:104D100002F0C4FED4F8440420F01000C4F84404A7
:104D2000FEF7DCFD01B01120BDE8304002F009BB08
:104D3000514810B501784C4C032911D10420FFF7DC
:104D400019FFE06940F00300E061E06900F00C0049
:104D50000C28FAD1FEF7C2FDBDE8104002F011BFE9
:104D6000206820F080702060216D21F040012165D5
:104D700010BD484920B101220A700221012003E040
:104D800000220A700121012038E6EFF3108072B68C
:104D90000121404A117280F3108870473D49087A1A
:104DA000002800D0704700B581B038490868C007B6
:104DB00007D5CA6852085200CA60486A0028FCD168
:104DC00020E00869C00703D56FF001020A6119E00D
:104DD000254800688103FBD52C496FF0010008616C
:104DE000CA6852085200CA60086840F001000860B2
:104DF0000868C007FCD5486A0028FCD1C86840F0A4
:104E00000100C860FFF7C1FF00F01BF801B05DF8BA
:104E100004EB37E71F49087A90B91C480168C907B5
:104E20000ED46FF001020261016821F002010160FD
:104E3000C26842F00102C260016841F001010160F4
:104E40007047EFF3108072B610490A68520852009A
:104E50000A600B6843F002030B60CA6852085200F4
:104E6000CA6080F310887047000C02461C0C024692
:104E7000000E02460C08024670A20120A40C024655
:104E80000CED00E033E400E004E100E00044014008
:104E900000200240543F012000B581B0FFF775FFAC
:104EA000FFF7CFFF01B05DF804EBEBE680B51448E7
:104EB00002F068FE032818BF002801D1002002BDBF
:104EC000022002BD38B50020ADF80000EFF31184D8
:104ED000102282F312880A4D0121284602F06EFE4C
:104EE0006946284602F08EFE0021284602F066FE42
:104EF000BDF90000283002F0FFFE84F3118831BDB7
:104F0000003E0120F8B50446DFF89073387801229E
:104F1000012808BF0C2201D00CB9022288E02068C9
:104F200020B110F0030F01D163680BB903227FE0B9
:104F3000A668E56816B10DB9042279E006EB460CC7
:104F40004FF0000E07E0634503D201E00028FAD1DC
:104F500004220EF1010EB6450AD2012A08D1281DFD
:104F600050F83E0015F83E1084440029EED1EFE7DA
:104F7000012A5DD1002038627862B862F862386335
:104F800078637860B860F86038617861B861F8611A
:104F9000381DFDF770FA7A68002A1CBFB86800282F
:104FA00001D0F86808B9052242E06168796220689A
:104FB00038629047A068B96800EB40008847786382
:104FC00018B9A06808B1062232E007F1100002F01B
:104FD00098FE07F1180002F094FEA068B96A3863E1
:104FE00000EB40004018B86200200C211AE0E56890
:104FF00001FB00F27B6B15F830609E54E5681344AA
:105000002E1D56F830C00025401CC3F801C07B6B34
:105010001344C3F805507B6B1344D3F80120FB6A9B
:10502000D218FA623A6B9042E1D301203870002224
:105030001046F2BD2DE9FE4F164600253560DFF81B
:105040005C8298F800400CB90D208EE00D0008BF7E
:105050000A20FAD0691C1F460091030024D1EFF307
:10506000108472B600F083F8954216D20098D8F8F2
:105070000810884760B125F07F4140F8041B30607C
:10508000D8F828200020AD186D1CC8F8285008E07A
:10509000384600F0FBF80B2003E0384600F0F6F845
:1050A0000A2084F3108860E0EFF3108972B601964D
:1050B00004463E464FF0000A002709200AE0304629
:1050C00000F0E4F80A2003E0304600F0DFF80B209F
:1050D0000AF1010AD8F830108A4544D2092842D191
:1050E0000C2101FB0AFBD8F8341011F80B309C425C
:1050F000EED1481D584402685944D1F801309A4213
:1051000003D2D1F8017001687F1A00F030F8BA18A4
:105110009542D4D20098D8F8081088470028D3D0F8
:10512000294664F31F6140F8041B01990860D8F810
:105130003400421D02EB0B0001684919491C016053
:10514000D8F83400421C52F80B10431D53F80B00E2
:10515000814206D2D8F828002818C01B401CC8F885
:1051600028000020B4E789F31088BDE8FE8FD8F846
:105170002420D8F82800D8F82C10121A521A704798
:105180002DE9FC41454D297809B90D2766E008B99C
:10519000022763E010F0030118BF07275ED1296AD8
:1051A0006B6A01EB830484422CBF8842082755D3E5
:1051B000EFF3108672B650F8041C001F0C0E21F09D
:1051C0007F4101F10108E96888473CB9A86A0027D6
:1051D000A0EB0800A8620020009035E0092700201D
:1051E00002E0A2EB08011BE0296B8842F3D2092FF1
:1051F000F1D10C2141436A6B535C9C4218D1531886
:10520000D3F80510D3F80120891A002909DDAA6A0C
:105210004145E6D2D3F80570D3F80110D21B8918A6
:10522000A962D3F805100027A1EB0801C3F8051007
:10523000401CD9E7694605F1100002F08EFD009987
:1052400005F1180002F073FD05F1100002F05CFD9D
:105250000028EFD086F31088FDF717F93846BDE82F
:10526000F6811CB50D4C01E080688047002100915B
:1052700004F1180002F048FD20B9694604F1180055
:1052800002F06BFD00980028EED113BD01001CBF99
:10529000034802F04CBD70470000000044A101200B
:1052A00054A101202DE9FF476E4CA569DFF8B881B4
:1052B0004FF0FF392840A06120694FF0010A0390A8
:1052C000E6696769206A02902EE00022271D231DEF
:1052D00053F832C00AFA01F62CEA060C47F832C03D
:1052E00053F832604DF82260521C012AF0D98047F1
:1052F0000020221D211D51F830305DF820100B4098
:1053000042F83030401C0128F4D9606A02F03CFDBC
:1053100020690390E6696769206AA16A0290606A61
:105320000AFA00F00143A1620398A26938401042D2
:1053300051D0029806424ED1002007EA020100E057
:10534000401C54F830301942FAD054F8301004EBB5
:10535000C003586839400A40104208BFC3F804909F
:105360002069D4F828C059686CEA010C20EA0C00C6
:1053700012EA000118BF0A4608B94FF0000C58683D
:10538000C4F828C0104000F071F86062EFF310819B
:1053900072B60AFA00F22069D2431040206102205E
:1053A00004EBC00353F808CC401E02EA0C0C43F88F
:1053B00008CCF5D181F31088606A02F0E6FC616ADE
:1053C000202904D258F8210000287FF47EAF002065
:1053D00002F0DCFCA8E7C4F82490206A064213D14E
:1053E000FDF73FF8EFF3108672B62269E169606954
:1053F000A36902401A4202BF206A0142FDF730F859
:1054000086F31088FDF72EF8A561BDE8FF8738B553
:10541000144600F006F8144941F8204085F310883E
:1054200031BDEFF3108572B620E030B5EFF3108296
:1054300072B60C4B1C6904431C6153F8315028436D
:1054400043F8310082F3108830BD506181F3108839
:105450007047EFF3108172B6024AD3691843D061E6
:10546000F4E70000B83F0120E4980120B0FA80F092
:10547000C0F11F00C0B2704710B5EFF3108272B6D2
:10548000012303FA00F02D4B21B1012906D119683F
:10549000084302E01C6824EA0000186082F31088C8
:1054A00010BD0A46254938B50B6801249D0704D56F
:1054B0000B685D0701D5012032BD0B68DD07FCD408
:1054C0000146012002F064FC00B90024204632BDF0
:1054D00038B584B01A490A8801244FF6FF718A4210
:1054E00001D0130001D1802201E09202520B8242CE
:1054F00006D3124A13689D0704D513685D0701D5CA
:10550000012019E01368DD07FCD4022201920C4D42
:105510002A888A4201D0110001D17F2202E0920242
:10552000520B521E104002900394694601A802F0EB
:1055300009FD00B90024204605B030BD54A5012066
:10554000A007F90B242148436D4B01221844027730
:10555000704780B5002002F075FD012002F072FD59
:105560000220BDE8024002F06DBD38B501210020E7
:1055700002F0B6FD0121012002F0B2FD012102205E
:1055800002F0AEFD5F4A00214FF40070FFF73FFFCD
:105590005D4A00214FF48060FFF739FF5B4A00212C
:1055A0004FF40060FFF733FF00240FF221052421A0
:1055B000614353482B460844009001220021001DFE
:1055C000FEF7BAFD641C032CF1D331BD10B50446BF
:1055D000207802F0FDFD216A32312162012803D1D9
:1055E000B1F5FA7F01D210BD10B12078FFF7AAFF04
:1055F000201DFEF70DFE207818B1022809D004D333
:1056000010BD00214FF4007006E000214FF48060CF
:1056100002E000214FF40060BDE81040FFF705BF35
:1056200038B504462DA1002502F008FE00283BD025
:105630002BA100F046F8002836D00FF2A80100F0A8
:1056400040F818B132A100F03CF818B90020FFF77B
:1056500079FF29E024A100F034F870B123A100F013
:1056600030F850B122A100F02CF818B12AA100F0B6
:1056700028F820B90120FFF765FF012514E01DA1DE
:1056800000F01FF878B11CA100F01BF858B10FF220
:105690006C0100F016F818B121A100F012F870B9F1
:1056A0000220FFF74FFF02254FEA04031EA202214A
:1056B0000020FEF76DFF284600F006F80125284679
:1056C00032BD204602F0BABD242148430C4A0023D3
:1056D000104403623221001DFEF783BD42310000F9
:1056E0005357310042314C004232000053573200D0
:1056F00042324C00423300005357330042334C00D7
:105700006C3E0120AF700808C770080809710808CE
:105710005357314C000000005357324C000000003A
:105720005357334C0000000025732070726573736B
:1057300065642062792053657269616C20436F6DE6
:105740006D616E642E0000002DE9FE4FDFF8707B66
:10575000397900250026012908BF032002D00090D6
:1057600008B90620C5E010F00F0F18BF0720F9D1C7
:10577000DFF8500B00884FF6FF72904208D001000E
:1057800006D08002410B022909D300F1006001E03C
:105790004FF00160009901F58041884201D2082054
:1057A000A7E0DFF8240B02F053FD00281CBF0328FC
:1057B0000C20F5D1EFF31080029072B600980FF232
:1057C0002D41396100F178400190282107F118003E
:1057D000FDF7ACF9DFF8F48A98F8010098F80010AA
:1057E00001FB00F2022900D301D90D207EE008B1AF
:1057F000022A01D90E2079E007F11800C8F8040048
:10580000A94625E0143019E000F075F80028FBD017
:10581000DFF8BC2A01210120FEF7BAFED8F80C00FF
:1058200050B198F800301421D8F804204B43D11817
:10583000A1F11404A042E5D1D8F80400C8F808008A
:1058400098F801006D1CADB206EB403609F1010974
:1058500098F800105FFA89F0884244D21420009C26
:1058600068433419002107EB000ACAF81840DDF834
:1058700004B0204600F0B9FBB3440028C4D0204651
:1058800000F0FEFB30B900F036F80028FBD0DFF85E
:10589000442ABFE7D8F80C4024B90AF11800C8F828
:1058A0000C00BBE720460168DAF8182052784978E6
:1058B000914204D2521AFF2A18BF0AF11800C8F800
:1058C0000C00A04204D100F016F80028FBD0A5E798
:1058D000206898F8011000F17840400B00F043FC7C
:1058E0000028F5D09AE7012038710020029981F351
:1058F0001088BDE8FE8F98F801104FEA5B3000F089
:1059000032BCF8B59500DFF8B8790F353B792D0931
:10591000860810242D010BB9022454E07B79012B59
:1059200008BF04244FD008B10F244CE009B911245A
:1059300049E011F0030018BF122444D12AB3DFF864
:105940008C3903EB8613186A00281CBF986A00285C
:1059500006D0186B00281EBF986B0028092432D18E
:10596000002603EBC607386A58B1786A80000F300A
:10597000000905EB00155878400305F11007B842FF
:1059800003D3761C042EECD301E013241BE0EFF3C9
:10599000108572B619625A62002103EBC102106AC7
:1059A00058B19868066800EB8100A6194660526AF3
:1059B00092000F32120904EB0214491C0429ECD3A3
:1059C00085F3108800242346DFF80C2900F009F93C
:1059D0002046F2BD2DE9F041DFF8E4482179820844
:1059E00000F0030309B9022541E06179012908BFEC
:1059F00004253CD008B10F2539E0DFF8D00800EBD2
:105A0000821505EBC306306A08B910252FE0E86857
:105A100008B90A252BE0EFF3108772B601206071F8
:105A2000D5F80C801146D8F8000000F0DEFA20B15D
:105A3000D8F8000000F024FB08B90B2513E0E96852
:105A400009680879002802BF706AB1F80520904201
:105A500015D11021E868726A00250368306A920047
:105A6000C91802F013FC0020607187F310882B46E0
:105A70000FF6800200F0B5F82846BDE8F081C8793D
:105A8000002802BF706A0A89904207D1B1F8051058
:105A900089000F31090909011031DBE7887A0028F4
:105AA00002BF706AB1F80B2090420CD1B1F805002A
:105AB0000989890080000F310F30090900090901A7
:105AC00001EB0011E8E7487B002802BF706ACA8931
:105AD000904213D10A89B1F80500B1F80B10920079
