:020000040C00EE
:1000000060100130111B000CE91A000CEB1A000CF7
:10001000ED1A000CEF1A000CF11A000CF31A000C88
:10002000000000000000000000000000F51A000CB5
:10003000F71A000C00000000F91A000CFB1A000C63
:1000400000000000311B000C351B000C391B000C9C
:100050003D1B000C411B000C451B000C491B000CF8
:100060004D1B000C511B000C551B000C0000000028
:10007000591B000C5D1B000C611B000C651B000C68
:10008000691B000C6D1B000C711B000C751B000C18
:10009000791B000C7D1B000C811B000C851B000CC8
:1000A000891B000C8D1B000C911B000C951B000C78
:1000B000991B000C9D1B000CA11B000CA51B000C28
:1000C000A91B000CAD1B000CB11B000CB51B000CD8
:1000D000B91B000C00000000000000000000000040
:1000E000BD1B000CC11B000CC51B000CC91B000C68
:1000F000CD1B000CD11B000CD51B000CD91B000C18
:10010000DD1B000CE11B000CE51B000CE91B000CC7
:10011000ED1B000CF11B000CF51B000CF91B000C77
:10012000FD1B000C011C000C051C000C091C000C24
:100130000D1C000C111C000C151C000C191C000CD3
:100140001D1C000C211C000C251C000C291C000C83
:100150002DE9F84F040044D0DFF87476D7F81C90EE
:10016000D7F828A0207809F00C090AF00305C10788
:100170002AD5B9F1080F04D0B9F10C0F08BF032D2F
:1001800051D1606800282CD0B9F1080F1CD1396812
:10019000A068012221F48811014341F480313960C3
:1001A0003868DFF84C16DFF84436000D00F0010027
:1001B0008240B1FBF2F1DFF830261160186800F0E0
:1001C00029FB002840F0B1812078810712D5B9F1D0
:1001D000000F04D0B9F10C0F08BF022D46D12069E1
:1001E000002800F0A2813869616920F4F81040EA23
:1001F000014038612078DFF8FC85DFF8FC55010705
:1002000040F1968000F0C0F951D400F0B5F90646EF
:10021000D8F80000C1074AD400F052FB801B032825
:10022000F6D3032058E1606888B13A68A16822F4E7
:1002300088121043084300F09CF906463868810391
:10024000C2D400F03DFB801B6528F7D3E9E738688E
:1002500020F4881000F08DF9064638688103B3D584
:1002600000F02EFB801B6528F7D3DAE7206978B110
:10027000396841F48071396000F022FB0546386826
:100280004105B0D400F01CFB401B0328F7D3C8E79E
:10029000386820F4807000F06CF905463868410534
:1002A000A8D500F00DFB401B0328F7D3B9E7EE6D8E
:1002B000A06926F0806160B3420119D5E06906F0BB
:1002C0008052904210D030010ED50E46EE6500F0FF
:1002D000F7FA8346E86D010106D500F0F1FAA0EBCC
:1002E0000B001528F6D39CE726F08050E6690643FC
:1002F000A0690643EE6500F0E3FA0646E86DA169E1
:1003000010EA410F12D100F0DBFA801B1528F5D35B
:1003100087E7E96500F0D4FA0646E86D010105D5E6
:1003200000F0CEFA801B1528F7D37AE700F019F910
:1003300021784A075BD500F027F90CD400F01CF9AE
:100340000646D8F80000C10705D400F0B9FA801BB2
:100350000328F6D365E7E06841F2893828B3E96DF0
:1003600021F080010843E86500F0AAFA0646E86D2E
:10037000810705D400F0A4FA801B4045F7D350E76D
:10038000207B010608D5E86D01052ED400F098FA0F
:10039000801B4045F7D344E7E86D010525D500F003
:1003A0008FFA801B4045F7D33BE7E86D20F08100D2
:1003B000E865E86D20F00400E86500F081FA064683
:1003C000E86D810705D500F07BFA801B4045F7D327
:1003D00027E7E86D010608D5E86D010505D500F0B1
:1003E0006FFA801B4045F7D31BE700F0BAF8206A8C
:1003F000002870D0B9F10C0F70D00228386820F0B6
:100400008070386056D100F05BFA0546D7F800A03E
:1004100000F056FA401B0328E6D25FEA8A10F5D4B2
:10042000616A032907D14FEA1A52DFF8C40302F0C8
:100430000102D04001E0DFF8AC03A36ADFF8BC237F
:10044000B0FBF3F090422CBF0C220022D7F828908A
:10045000DFF8AC035B1E00EA090001430A4342EAED
:10046000032242F48022BA62E06A216B401E491ED8
:1004700040EA4120616B491E40EA0140A16B491EE0
:1004800040EA01607863E06B28B1C000B863B86AE5
:1004900040F01000B862386840F0807000F069F8F1
:1004A00004463868810116D400F00AFA001B0328BC
:1004B000F7D3B6E600F004FA04463868810105D5A2
:1004C00000F0FEF9001B0328F7D3AAE6B96ADFF8AB
:1004D00034030140B9620020BDE8F28F012824D026
:1004E000B86A796B636A00F003029A4201BFC0F3F5
:1004F0000220401CA26A904217D1E26AC1F30800B0
:10050000401C904201BFC1F34620401C226B904228
:100510000BD1626BC1F30640401C904201BFC1F396
:100520000660401CA16B884201D00120D4E7B86B63
:10053000E16BC0F3CC008142CDD0B86A20F010004E
:10054000B86200F0BDF9054600F0BAF9401BFBD0D7
:10055000E16B3846C9008163816A41F01001816214
:10056000B9E7BAF1000F03D0286820F00400286032
:100570007047386000F0A4B9D8F8000040F00100DE
:10058000C8F8000000F09CB928684FF0000A410745
:100590000AD42A684FF0010A42F004022A6028684F
:1005A00000F0040000900099D8F80000C1077047DF
:1005B0002DE9F0410400884637D0DFF84C623068FE
:1005C00000F00F00404509D23168090948EA0111DD
:1005D0003160306800F00F00404526D12178880650
:1005E00009D5DFF8FC211368A069E16923F017033E
:1005F00003430B4313602078DFF8D471C10742D561
:100600003868616803290CD180016BD5F96901F064
:100610000C010C290CD0B96A012060F31551B962A4
:1006200006E0022902D1800302D45BE0420559D5DD
:10063000F9696068890840EA8101F96100F040F9D0
:1006400005466068F96901F00C01B1EB800F08D034
:1006500000F036F9401B41F289318842F1D3032082
:1006600055E003280FD1B86A20F48010B86200F07A
:1006700027F90546B86A410205D400F021F9401B6C
:100680000B28F7D3EBE7396A22680020930704D5DB
:10069000C908C800A16801430120530704D521F00F
:1006A0007000E16801430120120705D5206921F49B
:1006B000E06141EA001100E000B139622078C10632
:1006C00044BF60697862316801F00F0188450BD240
:1006D0003068000948EA00103060316801F00F010D
:1006E000414501D0012012E000F013F83A6ADFF82A
:1006F0001C11DFF8F43002F00702895CC840186072
:10070000DFF8E8000068BDE8F04100F083B8BDE81C
:10071000F0812F49C86910F00C0001D131487047B1
:10072000082818BF00F010B809683148090D01F019
:100730000101C840704710EE100A491CB0FBF1F0EF
:1007400010BD3348046807E010B5FFF7FAFFBCEEB0
:10075000C00AC4F30661EEE71D48416BC1F308010E
:10076000491C00EE101A816AB8EE400AC1F3022259
:10077000521C00EE902AF8EE600ACA0643BF826B54
:10078000C2F3CC0201EE102A9FED121A01F0030110
:10079000B8EE411A022902D0032903D00DE0DFEDA3
:1007A0000E1A0CE000681249000D00F00100C14073
:1007B00001EE901AF8EE611A01E0DFED061AC1EEC3
:1007C000A00ADFED061A01EE210A20EE800A70472A
:1007D000000C0256000000000024744B0000003999
:1007E000000E02560024F4000C0001300800013015
:1007F0000048E80128080256940C025601127A00BB
:10080000E0F8FFFFFCFFF8FF002002501C19000C6D
:10081000340C0256F8B50446244D287800210028EF
:1008200038D0234A1268234B1E68770702D54FF44D
:100830007A7117E0204B1B6813F4400310D0B3F516
:10084000800F12D0B3F5000F18D0B3F5400F01BFE1
:100850004FF47A63B3FBF0F31848B0FBF3F115E003
:100860004FF4FA51B1FBF0F00EE04FF47A72B2FBA4
:10087000F0F24FF4FA43B3FBF2F107E04FF47A7170
:10088000B1FBF0F04FF40042B2FBF0F1084600F08B
:100890004FF808B10120F2BD002221464FF0FF3091
:1008A00000F01EF8AC600020F2BD00BF0000013077
:1008B0000C00013010E000E0E00C02560024F400CF
:1008C00001484068704700BF0000013065490A6870
:1008D00060F30A2240F2FA5060F31F420A60704748
:1008E00070B5604B1C68C4F302230124C3F10705F3
:1008F000052D2EBF0F2504FA05F56D1E1E1D072EB2
:1009000034BF0023DB1E2940994004FA03F35B1E29
:100910001A4011430901020002D45348815470BDAA
:10092000524B02F00F021A4402F8041C70BD000082
:10093000401EB0F1807F07D24D49486000228A6096
:100940000B6843F003030B60B0F1807F8041C0432C
:10095000C00F70474749464A68B1012813D00228A2
:1009600017D0042802D008281CD07047116841F025
:10097000040111607047106820F0040010600A68DC
:1009800022F440020CE0106820F004001060012006
:1009900003E0136823F0040313600A6860F39752BE
:1009A0000A607047136823F004031360086840F47A
:1009B000400008607047BFF35F8F2F4940F001008F
:1009C0000867086840F4803008600BE0BFF35F8F71
:1009D0002948FFE7016821F480310160026F520865
:1009E00052000267BFF34F8FBFF36F8F704701460E
:1009F0002248FFE710B5BFF35F8F4A788260036932
:100A00005B085B0003614B68CA7B4C7B5B095B0145
:100A100043EAC2038A7B43EA44031343C3608B68FF
:100A20000A7B09785B095B0143EA42030B430361DC
:100A300010BD01461148FFE710B5BFF35F8F0A787C
:100A4000042A32BF30303430121F03684978D20094
:100A5000FF249440A34301FA02F21A43026010BD3E
:100A6000000000000CED00E000E400E018ED00E004
:100A700010E000E0E00C025624ED00E090ED00E014
:100A800038B594B01021002201A800F097F9002198
:100A9000ADF80010FFF79AFF00218DF80510DFF880
:100AA000F012012003918DF804004FF04064002201
:100AB000032102948DF810208DF81110ADF812204A
:100AC00001A8FFF794FF00208DF8000022218DF887
:100AD00001106846FFF7ADFF0420FFF76CFF00F040
:100AE0008BF900F081F800F0C7F800F0DCF800F0B6
:100AF00007F91821002207A800F060F91C2100F076
:100B0000CEF8002046F20F01079008910A900B9052
:100B1000A04D07A9284600F0A0F908B100F04CF953
:100B2000002000900390049005906946284600F04C
:100B3000ACF908B100F040F9284600F07EF908B1A0
:100B400000F03AF9502100F0AAF800F0BFF908B11E
:100B500000F032F900F0E1F908B100F02DF90820B9
:100B6000009004210D910E94684600F03BFA08B104
:100B700000F022F900F0E0F908B100F01DF900F0F2
:100B8000BCF908B100F018F900F040FB00F001F8E2
:100B9000FEE780B5804881490860026882F3888852
:100BA00040682DE9F00FA2B020F001002DEC000A02
:100BB0000146024603460446054606460746804669
:100BC000814682468346844680F300888447EFF35B
:100BD000148515F0080F18BFB0EE400A3DEC000A6E
:100BE00022B0BDE8F00F01BD80B598B040210022D1
:100BF00008A800F0E3F8202100F051F8022000F0EE
:100C000037FB002000F00AFB08B100F0D5F800F037
:100C100061FB63480268012161F3C4024FF4803133
:100C20000260002209910A9281214FF4807207200C
:100C30000B910C920890102100220D91109208A89F
:100C4000FFF786FA08B100F0B7F83F2000210090C6
:100C500000F04EF801216846FFF7AAFC08B100F049
:100C6000ABF80020FFF776FE0F20FFF7D3FD08B1A9
:100C700000F0A2F819B000BD80B590B0402100F09E
:100C80000EF84FF400414FF4802200910F92684615
:100C900000F028FB08B100F08FF811B000BD002271
:100CA000684600F08BB800B58BB02C21FFF7F7FF3A
:100CB0000021009100F01CF8089109910A91694601
:100CC0004FF0405000F028FC08B100F075F84FF0EC
:100CD000FF31029103910021069107910A91694623
:100CE000304800F019FC08B100F066F80BB000BD08
:100CF000019102910391049105910691079170472A
:100D000010B586B01421002201A800F057F826483B
:100D10000268264C42F002020260016801F0020102
:100D20000091009A036843F001030360016801F039
:100D30000101009100990268802142F004020260E2
:100D40000068002200F0040000900098204600F0A7
:100D5000F7FC002249F21001154800F0FFFC0022C8
:100D600047F24601204600F0F9FC00224FF4005102
:100D7000104800F0F3FC8020012101900291002234
:100D80000392049201A9204600F032FC06B010BD87
:100D9000FFFF0F0C100001300000020808ED02E018
:100DA000F00C0256000001308C0C0256000002527A
:100DB000000402520008025272B6FEE74018491CB5
:100DC0001CBFB1F1010100F8012DF9D170470EE00F
:100DD00002684368024408305FEAC37C44BF4B4466
:100DE0005B1E52F804CB43F804CB091FF9D150F82D
:100DF000041B0029ECD1704780B50B48016841F411
:100E0000807101600320FFF761FD00F0E1FC042028
:100E1000FFF7A0FD0F20FFF7FDFC08B1012002BD88
:100E200000F080FD002002BD002002500A60012178
:100E30004170002202700020704710F82C1F012919
:100E400001D1022070470121017002234370DFF8B5
:100E50006C100A6842F08002E8E710B54B680A6837
:100E600046F20F0020EA03031A43154C22608A68F9
:100E700048690B7B024308691A431249000400F4D5
:100E80007F0002430A60002010BD10B50A68486860
:100E90000D4B02431A608C68C8688A69094B044389
:100EA00014435C601C680869496924F0FF1404431A
:100EB00044EA014400201C6010BD00001878005670
:100EC00020780056207C00561C78005610B53E4A0B
:100ED000146A00203D493E4B002C41BF1360116055
:100EE000146A002C07D4546A002C41BF536051602F
:100EF000516A002900D5012010BD36490A68012039
:100F000042F000420A600B68002B05D54A680020B9
:100F100042F000424A60496870472F4881694A00A0
:100F200008D52E4901602E4B03608069410001D530
:100F300001207047002070472648016841F0804139
:100F40000160006800F08040401E8041C00F704783
:100F5000F8B50646FFF7B4FC0746184CA068002811
:100F60004EBF184D164A151D286810F4403F09D091
:100F700016F1010FF8D0FFF7A3FCC01BB042F3D36A
:100F80000320F2BD0E492A68086802F0FA0200F454
:100F9000005010430AD062680243626028608004F7
:100FA00044BF4FF400520A600120F2BD2868C10717
:100FB00044BF012028600020F2BD00004000013045
:100FC000202002502020024008200250AB89EFCDA3
:100FD0002301674528200250102002503B2A19089F
:100FE0007F6E5D4C2DE9F04100F0FBF808BF022058
:100FF00000F0F58000F0FBF8010040F0EE80207872
:10100000DFF80012C2070FD5207CE268C043A36856
:10101000120442EAC07266681A43012E08BF0A63CE
:1010200002D0022E08BF4A632078830705D58A695B
:101030006069120A40EA02228A612278500613D5BA
:10104000D4F83CC0E06CA26C636C266CDFF8B8711D
:10105000BCF1010F04D13E607B60BA60F86003E030
:101060003E617B61BA61F861207842075CD5A36973
:1010700000270026E26913F4E06F1CBF02F4E0676A
:101080004FF4E066D80404D502F48050074346F4D8
:101090008056980404D502F40050074346F40056E5
:1010A000180404D502F40040074346F40046D80370
:1010B00004D502F48030074346F48036980304D503
:1010C00002F40030074346F40036580304D502F416
:1010D0008020074346F48026D80104D502F08070B2
:1010E000074346F08076980104D502F0007007436C
:1010F00046F00076580104D502F08060074346F0C0
:101100008066180104D502F00060074346F00066CF
:10111000002B04D502F00042174346F000468869D0
:1011200020EA060637438F612278D0062AD5276A3F
:101130004FF0000CE26AA36A666AE64617F0040004
:101140001CBFD1F828C0D1F82CE05FEAC76805D5EC
:101150002CF07F1C4CEA034346EA030CBB0644BF59
:101160002EF4FE0343EA024E3A0648BF4EF07F4E8D
:10117000FA0544BFB42262F31F6E18B1C1F828C04B
:10118000C1F82CE02078830605D54A6A206B520806
:1011900040EA42024A622278100718D5626BA06BBF
:1011A000012A05D1CA6902F07F021043C8610EE02E
:1011B000022A05D10A6A02F07F021043086206E0A3
:1011C000042A04D14A6A02F07F0210434862086888
:1011D00040F40030086000F00EF800212970BDE8EE
:1011E000F0810446DFF81850287801287047012064
:1011F0002870002169604FF47A70FFF7A9BE0000E3
:10120000400001302820025010210250024801689D
:1012100021F002010160704710E000E010B5DFF836
:10122000A420116B01F4403181421DD01168DFF818
:10123000984021F440310843106023683220DFF8E1
:101240008C104343B3FBF1F0401C014601E069B14F
:10125000491E13681C04FAD541B101E030B1401EAB
:10126000116B0B04FAD508B1002010BD032010BD8E
:1012700010B5DFF8544022683221DFF850304A437D
:10128000B2FBF3F1DFF84820491C002810680AD1AE
:1012900020F002001060506B83070DD5002918BFA5
:1012A000491EF8D10BE040F00200106001E031B1BE
:1012B000491E506B8307FAD509B1002010BD0320E9
:1012C00010BD00000C0802560C00013040420F0017
:1012D000080802560248016841F0010101607047A8
:1012E000280802562DE9F84306463078DFF81852F0
:1012F000C20705D529687068890840EA810129601C
:101300003178480705D52968B06821F44061014368
:1013100029603178080705D52968F06821F4402153
:10132000014329603178880605D52968306921F4A0
:101330004001014329603178480605D52968706964
:1013400021F00041014329603178DFF8C0710806BF
:1013500011D56968B06921F0E00101436960B069A5
:1013600018B9386840F4803004E0202803D1386888
:1013700040F4003038603168C8050DD56968F069FF
:1013800021F4405101436960F169B1F5405F03D137
:10139000386840F4003038603168880212D56968D6
:1013A000306A21F0804101436960306A18B93868B9
:1013B00040F4803005E0B0F1804F03D1386840F44C
:1013C000003038603168880505D5A968706A8908D9
:1013D00040EA8101A9603168480505D5A968B06A6D
:1013E00021F018010143A9603168080505D5A968F5
:1013F000F06A21F0C0010143A9603168C80405D535
:10140000A968306B21F440610143A9603168880408
:101410000DD5A968706B21F4E0410143A960716B9F
:10142000B1F5005F03D1386840F48030386031682E
:10143000480455D5D5F81080B06B002408F44078E6
:1014400080454DD0F96E480709D4F96E012441F06A
:101450000401F966F86E00F0040000900098DFF8CF
:10146000B050286840F001002860FFF729FA814653
:101470002868C10707D4FFF723FAA0EB0900032867
:10148000F6D303203EE0DFF880502869B8F1000F62
:1014900020F4407007D0296941F48031296129691D
:1014A00021F480312961B16B01432961DFF86410B7
:1014B00011EA00080FD0FFF703FA8146286910EA05
:1014C000480F08D1FFF7FCF9A0EB090041F2893180
:1014D0008842F3D3D5E71CB1F86E20F00400F8661B
:1014E000306802040DD52969F06B21F440210143D5
:1014F00029612969F06B01F44021814218BF012064
:1015000000D10020BDE8F283E00C0256280C025600
:101510002808025601000004F0B5DFF8BC60DFF8CF
:10152000BC70B0F1005F18BFB0F1405F0BD0B842A3
:1015300018BFB04207D0DFF8A82090421CBFDFF8E8
:10154000A43098420BD10A68002A18BFB2F1004FAC
:1015500005D14B68002B18BFB3F1804F01D001209B
:10156000F0BD1A43B0F1005F18BFB0F1405F03D186
:10157000DFF87440042506E0B84219BFB042AD0B55
:10158000DFF868400225002007E001EB8007BB6917
:1015900004EB8006401CC6F80032A842F5D30020B8
:1015A00007E001EB8007BB6804EB8006401CC6F82F
:1015B0000031A842F5D32068012303FA05F520F095
:1015C0004040024322602269886A6D1E22EA0505B6
:1015D000054325610020F0BD00000130000001201E
:1015E0000080024800800258002C03500030035055
:1015F0002DE9F04F0024DFF85481DFF85491DFF833
:1016000054A14FF00F0C02460B4692E00125A54075
:1016100028404FD0610003268E406FEA060E5E68B8
:1016200006F00307012F1CBF06F00306022E0FD1A0
:101630009668DF680EEA06068F403E43966056685D
:1016400026EA05055E68C6F30016A64035435560D8
:101650001E799D6806F00306032E08BF012D05D0F4
:10166000D6688D400EEA06063543D5601D7905F033
:101670000305022D11D1E50802EB8505D5F820B050
:10168000A60006F01C060CFA06F72BEA070B1F69EA
:1016900007FA06F646EA0B062E6215680EEA0506FC
:1016A0001D7905F0030505FA01F131431160596810
:1016B00011F4403F3CD0A1085AF82170E500264EB5
:1016C00005F0180E06EA92260CFA0EF5AF4306FA5C
:1016D0000EF52F434AF82170D9F800E05D68C14348
:1016E00001EA0E0EEE0248BF40EA0E0EC9F800E015
:1016F000D9F804E05D6801EA0E0EAE0248BF40EA88
:101700000E0EC9F804E0D8F804E05D6801EA0E0E98
:10171000AE0348BF40EA0E0EC8F804E0D8F800E077
:101720005D6801EA0E01ED0348BF0143C8F80010EF
:10173000641C186830FA04F17FF468AFBDE8F08FDC
:101740000AB18161704781627047000080200256B3
:1017500000200256602002567F7F2B00036B002A78
:1017600014BF194323EA0101016370475E48002159
:1017700001655E4A42655E498165012202655D49F7
:1017800041655D4A8265022101654FF00052426564
:101790005A498165032202654FF080414165584AEC
:1017A0008265012181644268564942F44062426088
:1017B0000B68042262F39C630B6053494FF0FF32C5
:1017C0000A604A608A60016841F4700101607047F4
:1017D00030B54E49CB694E484E4A03F00C03082BF6
:1017E00002D00C2B07D04BE010460A68120D02F015
:1017F0000102D04044E08B6A4C6BC3F302256D1CA0
:1018000000EE105AC4F30805C4F30664641C6D1C92
:1018100001EE104A00EE905ADC0607D58C6BC4F33B
:10182000CC0401EE904AFBEEE91A01E0DFED2D1A3F
:1018300003F00303022B02D0032B03D00AE002EED5
:10184000100A09E00868000D00F00100C24002EE35
:10185000102A01E09FED232AB8EE422AB8EE400A92
:10186000F8EE600A82EE000A70EEA10A20EE200A6D
:10187000F8EE410A80EE200ABCEEC00A10EE100A13
:10188000254A1060096A00BF24A301F00701595CD2
:10189000C840106030BD80B5FFF79AFF1E48006851
:1018A000BDE80240F1EE101A21F09F0121F07041D5
:1018B000E1EE101A714672467346F4464EEC10EB98
:1018C0004EEC11EB4EEC12EB4EEC13EB4EEC14EB3A
:1018D0004EEC15EB4EEC16EB4EEC17EB8EF300884E
:1018E000744700000000000088ED00E000000208DE
:1018F000E1FFFF0B00E0010CE3FF010CE1FF002022
:10190000E17F025834EF00E080E300E0000C025673
:101910000024F4000048E8010C0001300000000041
:101920000102030481B00A48C16841F00401C160AA
:10193000C16801F0040100910099026842F08072D0
:101940000260006800F080700090009801B070475D
:10195000880C0256C0B231B11E4A18B1012808BF26
:10196000516000E01160F1EE100A20F09F0020F0BD
:101970007040E1EE100A70467146724627E080B56D
:10198000012201E080B5002280211348FFF7D8FE34
:10199000BDE80140F1EE100A20F09F0020F07040F9
:1019A000E1EE100A7046714672467346F4464EECFC
:1019B00010EB4EEC11EB4EEC12EB4EEC13EB4EEC4D
:1019C00014EB4EEC15EB4EEC16EB4EEC17EB8EF3E6
:1019D00000887447580001300000025230B40025DE
:1019E00012E050F8042BD30744BF4A44521E091F8B
:1019F000042942F8045BFAD213468C0744BF1580D1
:101A00009B1CC90748BF1D7050F8041B0029E8D172
:101A100030BC704710B5074979441831064C7C44F6
:101A2000163404E00A68081D114488470146A142A3
:101A3000F8D110BD2C0000004C0000004EF688517B
:101A4000CEF20001086840F470000860BFF34F8FC9
:101A5000BFF36F8F4FF00170E1EE100A7047000086
:101A60007DFFFFFF5000000010000130000000006B
:101A70005FF3FFFF10000000A8000000000001302D
:101A80000000000000F00DF8002801D0FFF7C2FFB1
:101A9000AFF300800020AFF30080FEF7F1FF00F00D
:101AA00002F80120704700F001B8000007463846F0
:101AB00000F002F8FBE7000080B5AFF30080024AB7
:101AC00011001820ABBEFBE72600020005480146C6
:101AD00003B4684680F30988AFF30080FFF7AEFFD8
:101AE000FFF7D0FFA5EDF5FEFEE7FEE7FEE7FEE718
:101AF000FEE7FEE770477047704700F001B800004E
:101B000002494A68087882184A607047000001302C
:101B100001488047014800476D17000CCD1A000CA2
:101B20000100000000000000100000000024F4008C
:101B3000FFF7FEBFFFF7FEBFFFF7FEBFFFF7FEBFD9
:101B4000FFF7FEBFFFF7FEBFFFF7FEBFFFF7FEBFC9
:101B5000FFF7FEBFFFF7FEBFFFF7FEBFFFF7FEBFB9
:101B6000FFF7FEBFFFF7FEBFFFF7FEBFFFF7FEBFA9
:101B7000FFF7FEBFFFF7FEBFFFF7FEBFFFF7FEBF99
:101B8000FFF7FEBFFFF7FEBFFFF7FEBFFFF7FEBF89
:101B9000FFF7FEBFFFF7FEBFFFF7FEBFFFF7FEBF79
:101BA000FFF7FEBFFFF7FEBFFFF7FEBFFFF7FEBF69
:101BB000FFF7FEBFFFF7FEBFFFF7FEBFFFF7FEBF59
:101BC000FFF7FEBFFFF7FEBFFFF7FEBFFFF7FEBF49
:101BD000FFF7FEBFFFF7FEBFFFF7FEBFFFF7FEBF39
:101BE000FFF7FEBFFFF7FEBFFFF7FEBFFFF7FEBF29
:101BF000FFF7FEBFFFF7FEBFFFF7FEBFFFF7FEBF19
:101C0000FFF7FEBFFFF7FEBFFFF7FEBFFFF7FEBF08
:101C1000FFF7FEBFFFF7FEBFFFF7FEBFFFF7FEBFF8
:0C1C2000FFF7FEBFFFF7FEBFFFF7FEBF9F
:020000040C01ED
:10E000007FE97FE9E3F7BBBC7FE97FE9E3F7BABCCF
:10E010007FE97FE9E3F79EBC7FE97FE9E3F73BBC5B
:040000050C001ACD04
:00000001FF
