:020000040C00EE
:1000000048100030D923000CB123000CB323000C9E
:10001000B523000CB723000CB923000CBB23000C44
:10002000000000000000000000000000BD23000CE4
:10003000BF23000C00000000C123000CC323000CF0
:10004000E923000CED23000CF123000CF523000C38
:10005000F923000CFD23000C0124000C0524000CE6
:100060000924000C0D24000C1124000C1524000C94
:100070001924000C1D24000C2124000C2524000C44
:100080002924000C2D24000C3124000C3524000CF4
:100090003924000C3D24000C4124000C4524000CA4
:1000A0004924000C4D24000C5124000C5524000C54
:1000B0005924000C5D24000C6124000C6524000C04
:1000C0006924000C6D24000C7124000C7524000CB4
:1000D0007924000C7D24000C8124000C8524000C64
:1000E0008924000C8D24000C9124000C9524000C14
:1000F0009924000C9D24000CA124000CA524000CC4
:10010000A924000CAD24000CB124000CB524000C73
:10011000B924000CBD24000CC124000CC524000C23
:10012000C924000CCD24000CD124000CD524000CD3
:10013000D924000CDD24000CE124000CE524000C83
:10014000E924000CED24000CF124000CF524000C33
:10015000F924000CFD24000C0125000C0525000CE1
:100160000925000C0D25000C1125000C1525000C8F
:100170001925000C1D25000C2125000C2525000C3F
:100180002925000C2D25000C2DE9F84F040073D013
:100190002068DFF8F09830B10009000103D04FF477
:1001A000AB7100F0D4FADFF8BC58D5F81C80AE6A09
:1001B000207808F00C0806F00306C1073ED56068F9
:1001C000002818BFB0F5803F03D040F25F1100F067
:1001D000BEFAB8F1080F04D0B8F10C0F08BF032E17
:1001E00079D16068002847D0B8F1080F26D1A068FF
:1001F000002818BFB0F5801F03D04FF4B77100F08E
:10020000A6FA2968A068012221F48811014341F46B
:10021000803129602868DFF87418000D00F00100B3
:100220008240B1FBF2F1DFF85828DFF85C0811607A
:10023000006800F08BFC002840F05B82207881078A
:1002400023D52069002818BFB0F5807F03D04FF474
:10025000D67100F07CFA6069202803D340F2AD111A
:1002600000F075FAB8F1000F04D0B8F10C0F08BF18
:10027000022E5FD12069002800F03B822869616965
:1002800020F4F81040EA014028612078DFF8007877
:10029000010740F1D680A06900281CBFB0F1806F33
:1002A000B0F1005F03D04FF4F77100F050FA3868F6
:1002B000002600F062FA5ED400F056FA8346DAF8BF
:1002C0000000C10757D400F08BFCA0EB0B00032803
:1002D000F5D30320E4E16068E8B1A068002818BF06
:1002E000B0F5801F03D040F2831100F030FA2A6885
:1002F0006168A06822F488120A4302432A6000F071
:100300006FFC07462968880398D400F069FCC01B7D
:100310006528F7D3DDE7286820F4881000F021FA7B
:1003200007462868810389D500F05AFCC01B652860
:10033000F7D3CEE7206978B1296841F4807129604C
:1003400000F04EFC06462868410597D400F048FCB2
:10035000801B0328F7D3BCE7286820F4807000F0E6
:1003600000FA0646286841058FD500F039FC801B4D
:100370000328F7D3ADE7D7F85CA0A06900284ED0DA
:10038000400125D5E069002818BFB0F1805F03D097
:1003900040F21A2100F0DBF9E0690AF0805188424E
:1003A00011D05FEA0A100ED52AF0806A00F0D2F967
:1003B0008346F86D010106D500F012FCA0EB0B009E
:1003C0001528F6D385E7E1692AF0805041EA000A52
:1003D000A06940EA0A0A00F0BDF90090D346A1697D
:1003E000F86D10EA410F06D100F0FAFB0099401AAF
:1003F0001528F4D36DE781F0105A2BEA0A0BC7F8E1
:100400005CB000F0EDFB8346F86D10EA4A0F16D0A1
:1004100000F0E6FBA0EB0B001528F5D359E72AF016
:10042000105A00F097F98246F86D10F0904F06D000
:1004300000F0D6FBA0EB0A001528F5D349E700F041
:1004400075F9217848076CD5E0680026002818BFA8
:10045000012808D081281CBF0528852803D04FF427
:100460001F7100F074F9386800F087F90DD400F0BE
:100470007BF98346DAF80000C10706D400F0B0FB30
:10048000A0EB0B000328F5D323E7E06841F2893A9B
:1004900028B3F96D21F080010843F86500F0A0FB56
:1004A0008346F86D810705D400F09AFB00F04BF904
:1004B000F7D30EE7207B010608D5F86D01052ED491
:1004C00000F08EFB00F03FF9F7D302E7F86D01056D
:1004D00025D500F085FB00F036F9F7D3F9E6F86D85
:1004E00020F08100F865F86D20F00400F86500F058
:1004F00077FB8346F86D810705D500F071FB00F0AE
:1005000022F9F7D3E5E6F86D010608D5F86D010587
:1005100005D500F065FB00F016F9F7D3D9E600F039
:1005200005F9206A002809D0012818BF022807D041
:1005300040F2EB2100F00BF9206A002800F0AF80B8
:10054000206AB8F10C0F00F0AD80022840F09680D0
:10055000606A022818BF032803D040F2F52100F09A
:10056000F6F8A06A08B1092803D340F2F62100F09A
:10057000EEF8E06A40F2FD11001F884203D340F21A
:10058000F72100F0E4F8206B08B1812803D34FF481
:100590003E7100F0DCF8606B08B1812803D340F2B3
:1005A000F92100F0D4F8A06B08B1812803D340F200
:1005B000FA2100F0CCF800F0D1F807462E6800F0E0
:1005C0000FFBC01B0328A9D2B001F7D4616A03292D
:1005D00006D1360DDFF8B40406F00106F04001E064
:1005E000DFF89804A16ADFF83825B0FBF1F8DFF8EE
:1005F00034054044904203D340F21B3100F0A7F889
:10060000DFF8240580452CBF0C220022AB6A606A0B
:10061000DFF818150B40A16A03431A43491E42EA4A
:10062000012242F48022AA62E06A216B401E491E28
:1006300040EA4120616B491E40EA0140A16B491E1E
:1006400040EA01606863E06B48B1B0F5005F03D336
:100650004FF44E7100F07BF800F06EF8A862286845
:1006600040F0807000F07DF804462868810116D4BF
:1006700000F0B6FA001B0328F7D32AE600F06EF864
:1006800004462868810105D500F0AAFA001B03285A
:10069000F7D31EE6A86ADFF898140840A862002085
:1006A000BDE8F28F012824D0A96A686B636A01F063
:1006B00003029A4201BFC1F30221A26A521E914273
:1006C00017D1E26AC0F30801521E914201BFC0F384
:1006D0004621226B521E91420BD1626BC0F3064140
:1006E000521E914201BFC0F30660A16B491E8842B1
:1006F00001D00120D4E7A96BE06BC1F3CC018842A3
:10070000CDD0B0F5005F03D340F2833100F01FF885
:10071000A86A20F01000A86200F062FA064600F015
:100720005FFA801BFBD000F007F8B7E71EB138680E
:1007300020F0040038607047E06BC000A863A86A2E
:1007400040F010007047A0EB0B0050457047484642
:1007500000F0FEBBC7F85CA000F042BA286820F0A9
:100760008070286000F03CBA8A46DAF8000040F059
:100770000100CAF8000000F033BA410709D4386814
:10078000012640F004003860396801F0040100914E
:100790000098DFF8A0130868C20770472DE9F843F6
:1007A00004000D4600F02C812068DFF8D88210F09C
:1007B0003F0F02D08009800103D040F2D53100F014
:1007C00069F9002D18BF012D1FD0022D18BF032D70
:1007D0001BD0042D18BF052D17D0062D18BF072DCF
:1007E00013D0082D18BF092D0FD00A2D18BF0B2DBF
:1007F0000BD00C2D18BF0D2D07D00E2D18BF0F2DAF
:1008000003D040F2D63100F045F9DFF82C73386898
:1008100000F00F00A84209D23968090945EA011120
:100820003960386800F00F00A84268D12178880646
:1008300020D5E069002818BF102803D040F2EF311E
:1008400000F028F9A069002818BF042808D005285E
:100850001CBF0628072803D04FF47C7100F01AF95A
:10086000DFF804221368A169E06923F017030B4342
:10087000034313602178DFF8EC61C80753D5606843
:10088000E0B9306840053AD5F1696068890840EA06
:100890008101F16100F0A4F981466068F16901F01D
:1008A0000C01B1EB800F2BD000F09AF9A0EB0900FE
:1008B00041F289318842F0D30320B4E0022808BF16
:1008C00030681AD0032808BF306807D04FF47E7113
:1008D00000F0E0F83068616803290CD180010ED582
:1008E000F16901F00C010C29CED0B16A012060F34E
:1008F0001551B162C8E70229C4D18003C4D47FE096
:10090000032810D1B06A20F48010B06200F068F9BA
:100910008146B06A410206D400F062F9A0EB0900FA
:100920000B28F6D3C8E7D6F82090217800208A0754
:1009300013D5A068002818BF042808D005281CBFBC
:100940000628072803D040F2554100F0A3F8A0681C
:100950004FEAD90140EAC109012021784A0713D59D
:10096000E068002818BF402808D050281CBF602825
:10097000702803D040F2614100F08CF8E06829F063
:10098000700140EA0109012021780A0713D5206986
:10099000002818BF402808D050281CBF60287028A5
:1009A00003D040F26C4100F075F8206929F4E06151
:1009B00041EA001900E008B1C6F820902078C1068D
:1009C0000FD56069002818BF402808D050281CBFE8
:1009D0006028702803D040F27D4100F05BF8606928
:1009E0007062396801F00F018D420BD2386800093E
:1009F00045EA00103860396801F00F01A94201D0C2
:100A0000012010E000F011F8326ADFF830111C4BC1
:100A100002F00702895CC84018601B480068BDE806
:100A2000F24300F093B8BDE8F2830E49C86910F0B4
:100A30000C0001D111487047082818BF00F016B803
:100A40000968DFF8FC00090D01F00101C84070479A
:100A500010EE100A491CB0FBF1F010BD39480468D3
:100A60001CE00000000C0256000E025610B5FFF705
:100A7000F5FFBCEEC00AC4F30661E9E70024F40008
:100A80000C000030A022000C080000300048E801F3
:100A9000940C0256404600F05BBA00002A48416BB5
:100AA000C1F30801491C00EE101A816AB8EE400A31
:100AB000C1F30222521C00EE902AF8EE600ACA0628
:100AC00043BF826BC2F3CC0201EE102A9FED111AD4
:100AD00001F00301B8EE411A022902D0032903D024
:100AE0000DE0DFED0D1A0CE000681549000D00F077
:100AF0000100C14001EE901AF8EE611A01E0DFED4D
:100B0000051AC1EEA00ADFED051A01EE210A20EE5A
:100B1000800A7047000000000024744B0000003978
:100B2000011BB70000F7C2FF01127A00E0F8FFFFD7
:100B3000FCFFF8FF2808025600200250D81F000CC6
:100B40000048E801340C0256000C0256F8B5044681
:100B50001F4D2878002100282ED01E4A12681E4BF7
:100B60001E68770702D54FF47A710DE01B4B1B68A6
:100B700013F4400306D0B3F5800F08D0B3F5000F8F
:100B80000ED015E04FF4FA51B1FBF0F00EE04FF447
:100B90007A72B2FBF0F24FF4FA43B3FBF2F107E0E2
:100BA0004FF47A71B1FBF0F04FF40042B2FBF0F178
:100BB000084600F059FA08B10120F2BD0022214692
:100BC0004FF0FF3000F0FFF9AC600020F2BD00BF35
:100BD000000000300C00003010E000E0E00C025695
:100BE00001484068704700BF0000003018B58DB064
:100BF00000F094FA00F061F800F0B0F800F0C5F8E9
:100C000000F02EF91822002107A800F0A3FA1C22F8
:100C100000F0B7F80021079146F20F020A910B91FC
:100C2000DFF80043089207A9204600F0BAFA08B19D
:100C300000F08CF90021009103910491059169461F
:100C4000204600F0FAFA08B100F080F9204600F0E2
:100C500091FA08B100F07AF900F052FB00F001F8C7
:100C6000FEE780B54FF00160AF490860026882F38B
:100C700088884068A2B02DEC000A2DE9F00F002111
:100C800000220023002400250026002788468946EC
:100C90008A468B468C4681F3008820F00100844709
:100CA000BDE8F00FEFF3148515F0080F18BFB0EE94
:100CB000400A3DEC000A22B001BD80B598B0402248
:100CC000002108A800F046FA202200F05AF800207F
:100CD00000F052FB4FF4803000F01AFB08B100F036
:100CE00035F900F089FB91480268012161F3C402E3
:100CF0004FF480310260002209910A9281214FF461
:100D0000807207200B910C920890102100220D9107
:100D1000109208A8FFF738FA08B100F017F93F2140
:100D200000910021029102224021019204910022AF
:100D3000002103920592069107926846FFF72EFD67
:100D400008B100F003F9022000F0A2F90F20FFF72C
:100D5000FDFE08B100F0FAF819B000BD00B597B07B
:100D60005C2200F00EF84FF400414FF48022009115
:100D70001692684600F04AFB08B100F0E7F817B099
:100D800000BD0021684600F0E5B918B5BBB0EC2203
:100D9000FFF7F7FF002100914FF0FF3121AC002257
:100DA000029103910491059106910791089109918F
:100DB0000A910B910C910D910E910F91109111913F
:100DC000209121916160A160E16021616161A16177
:100DD000E16121626162A162E16221636163A163F9
:100DE000E16321646164A164E16421656165A165D9
:100DF000E165216601921292139214921592169255
:100E00001792189219921A921B921C921D921E927E
:100E10001F92626669464FF0405000F08BFD08B1AA
:100E200000F094F8002102910391049105911E9124
:100E30001F9120912191616669463D4800F07AFD3D
:100E400008B172B6FEE7002102911E916066694604
:100E5000384800F06FFD08B172B6FEE73CB010BD37
:100E600070B586B01422002101A800F073F9324C4D
:100E70002068324D324E40F002002060216801F0BF
:100E8000020100910098216841F00101216022686F
:100E900002F0010200920098216841F004012160F3
:100EA000226841F2100102F0040200920098002230
:100EB000284600F02EFF00224FF4C241214800F0E6
:100EC00028FF002242F22001304600F022FF0022DB
:100ED00042F23001304600F01CFF00224FF48871CE
:100EE000284600F016FF2068002240F0080020602D
:100EF0002168154C01F00801009100984FF48071B1
:100F0000204600F006FF4FF4807101910122029209
:100F1000002103910222049201A9204600F07CFDE9
:100F200006B070BD1000003008ED02E0F00C025673
:100F300000000730008002588C0C02560004025258
:100F40000008025200000252000C025272B6FEE784
:100F5000704730B5016884684218416802EB51035C
:100F6000C90703D54C4401E0491C08D19A4218BF77
:100F700012F9011B01D10C3030BD12F8015B0029C0
:100F800004F8015BF0D4491EF7D5EFE710B504462D
:100F9000072C18BF062C07D0052C1CBF042C032CD3
:100FA00002D0B72100F0A9F8DFF8542110684FF6FD
:100FB000FF012402084004F4E0640443DFF8440124
:100FC0000443146010BD2DE9F84F80460E46DFF84B
:100FD0003001016801251446C1F30227DFF828A17A
:100FE000032F01D234B909E007F1FD0205FA02F23C
:100FF000944203D3D1215046FFF7AAFFC7F1070956
:10100000C7F1070B05FA09F9BBF1030F02D84E45EA
:1010100002D205E00F2E03D9D2215046FFF798FFE8
:10102000BBF1050F2CBF4FF00F09A9F10109381DC5
:10103000072834BF0027FF1EBD4009EA06066D1EC3
:10104000BE402C40264330015FEA080103D4DFF89C
:10105000BC20505406E0DFF8B83001F00F0119440D
:1010600001F8040CBDE8F18F401EB0F1807F08D27A
:10107000DFF8A010486000228A600B6843F0030389
:101080000B60B0F1807F8041C043C00F704700000B
:1010900070B50446DFF88050DFF87860012C1CD072
:1010A000022C20D0042C0BD07CB140F29D1100F01A
:1010B00024F8042C20D8DFE804F00810161F0300E1
:1010C000316841F00401316070BD306820F00400E7
:1010D0003060296821F440010DE0306820F0040000
:1010E0003060012004E03268022022F00402326005
:1010F000296860F39751296070BD0348FFF728BF46
:101100000CED00E00000FA050021000C00E400E016
:1011100018ED00E010E000E0E00C025680B5DFF8CA
:101120003000016841F4807101600320FFF72EFF59
:1011300000F09CFE0420FFF7ABFF0F20FFF706FD39
:1011400008B1012002BD00F04BFF002002BD0000ED
:101150000020025010B5044610460A4601462046BB
:1011600000F056FF204610BD0B6001214170027057
:101170000020704710F82C1F012901D10220704770
:101180000121017002224270DFF80C100B6800226E
:1011900043F08003E8E70000187800562846FFF780
:1011A000D7BE38B500F09CF818BF002803D040F631
:1011B000BA21FFF7F3FF60684F49084203D040F6B9
:1011C000BB21FFF7EBFFA068B0F1004F18BF00286C
:1011D00003D040F6BC21FFF7E1FFE068202803D3ED
:1011E00040F6BD21FFF7DAFF2069202803D340F63F
:1011F000BE21FFF7D3FF6069B0F5004F18BF00288C
:1012000003D040F6BF21FFF7C9FF6268216846F2AC
:101210000F0020EA02021143364B1960A168606991
:10122000227B014320691143304A000400F47F000F
:1012300001431160002032BD000038B500F050F8C5
:1012400018BF002803D040F6F321FFF7A7FF60681E
:101250002949084203D040F6F421FFF79FFFA06818
:10126000B0F1004F18BF002803D040F6F521FFF77A
:1012700095FFA069B0F5004F18BF002803D040F6D5
:10128000F621FFF78BFFE06830F0C04003D040F656
:10129000F721FFF783FF2069202803D340F6F821C8
:1012A000FFF77CFF6069202803D340F6F921FFF7A0
:1012B00075FF21686068114A01431160A368E16805
:1012C000A0690A4A0B4303435360116820696369AC
:1012D00021F0FF11014341EA03410020116032BDBA
:1012E0000C462068024DB0F5004F7047207C005638
:1012F000FC21000C20780056F09FFFFF1C78005660
:101300000248016821F002010160704710E000E02E
:1013100010B50446B4F5803F18BF002C03D040F24E
:10132000051100F05AF8DFF8BC20106B00F4803093
:10133000A0421DD01068DFF8B01020F480300443C4
:1013400014600B683220DFF8A4404343B3FBF4F190
:10135000491C084601E068B1401E13681C04FAD518
:1013600040B101E031B1491E106B0304FAD509B157
:10137000002010BD032010BD10B5040018BF022CC2
:1013800003D04FF4A47100F028F8DFF85C100A686D
:101390003220DFF858304243DFF85410B2FBF3F04C
:1013A0000A68401C002C0AD122F002020A604A6B33
:1013B00093070DD5002818BF401EF8D10BE042F06E
:1013C00002020A6001E030B1401E4A6B9307FAD571
:1013D00008B1002010BD032010BDDFF81800FFF792
:1013E000B7BD00000C0802560C00003040420F0050
:1013F000080802565421000CDFF80C00016841F087
:101400000101016070470000280802562DE9F84FDD
:1014100006463068DFF808A5810202D0800D8005FD
:1014200002D0782100F078FA3078DFF8F844C1076C
:1014300011D57068002818BF012806D0022818BFEF
:10144000032802D07E2100F067FA216870688908BD
:1014500040EA810121603178880711D5B068002801
:1014600018BF042806D0082818BF0C2802D08921EC
:1014700000F052FA2168B06821F00C0101432160AC
:101480003168C80311D5F068002818BF102806D0AD
:10149000202818BF302802D0952100F03DFA21689D
:1014A000F06821F03001014321603178480710D500
:1014B000306900281CBFB0F5806FB0F5006F02D016
:1014C000A12100F029FA2168306921F4406101432B
:1014D00021603168880310D5706900281CBFB0F501
:1014E000805FB0F5005F02D0AD2100F015FA2168F1
:1014F000706921F44051014321603168480310D5DF
:10150000B06900281CBFB0F5804FB0F5004F02D085
:10151000B92100F001FA2168B06921F4404101438A
:1015200021603168080310D5F06900281CBFB0F5B0
:10153000803FB0F5003F02D0C52100F0EDF92168F1
:10154000F06921F44031014321603178080714D556
:10155000306A002818BFB0F5802F08D0B0F5002FF2
:1015600018BFB0F5402F02D0D12100F0D5F9216885
:10157000306A21F44021014321603178C80610D53A
:10158000706A00281CBFB0F5801FB0F5001F02D0A4
:10159000DD2100F0C1F92168706A21F44011014396
:1015A00021603178880614D5B06A002818BFB0F5DC
:1015B000800F08D0B0F5000F18BFB0F5400F02D073
:1015C000E82100F0A9F92168B06A21F44001014343
:1015D0002160317848060ED5F06A002818BFB0F1B6
:1015E000004F02D0F22100F097F92168F06A21F053
:1015F0000041014321603178DFF82C5308061DD5E6
:10160000306B002818BF202807D060281CBF402856
:10161000802802D0FD2100F07FF96168306B21F055
:10162000E00101436160306B10B900F071F904E032
:10163000202803D1286840F4003028603168C805AC
:101640001DD5706B002818BFB0F5805F09D0B0F5CC
:10165000005F18BFB0F5405F03D040F2171100F0F3
:101660005BF96168706B21F4405101436160716BFB
:10167000B1F5405F03D1286840F40030286031683C
:10168000C8021FD5B06B002818BFB0F1805F09D029
:10169000B0F1005F18BFB0F1405F03D04FF4947118
:1016A00000F03AF96168B06B21F04051014361608C
:1016B000B06BB0F1805F18BFB0F1405F02D100F0B5
:1016C00027F92860316888021BD5F06B002818BF05
:1016D000B0F1804F03D040F23F1100F01DF9616876
:1016E000F06B21F0804101436160F06B10B900F0B4
:1016F0000FF905E0B0F1804F03D1286840F40030C5
:1017000028603168880512D5306C002818BF012880
:1017100007D0022818BF032803D04FF4AC7100F0A3
:10172000FBF8A168306C890840EA8101A16031684A
:1017300048050FD5706C00281CBF0828102803D05E
:101740004FF4B17100F0E8F8A168706C21F0180155
:101750000143A160316808050FD5B06C00281CBF9B
:101760004028802803D040F26D1100F0D5F8A16820
:10177000B06C21F0C0010143A1603168C80415D5E7
:10178000F06C002818BFB0F5806F09D0B0F5006F7D
:1017900018BFB0F5406F03D040F2771100F0BCF8ED
:1017A000A168F06C21F440610143A16031688804B4
:1017B0001ED5306D002818BFB0F5805F0BD0B0F596
:1017C000005F1CBFB0F5405FB0F5804F03D040F222
:1017D000811100F0A1F8A168306D21F4E0410143CE
:1017E000A160316DB1F5005F02D100F091F8286081
:1017F0003168480468D5706D4FF00008002818BFA4
:10180000B0F5807F09D0B0F5007F18BFB0F5407FFC
:1018100003D040F2931100F07FF8D4F81090706D6F
:1018200009F4407981454FD0E96E48070AD4E96E42
:101830004FF0010841F00401E966E86E00F0040091
:1018400000900098DFF8E470386840F001003860DC
:10185000FFF7C6F983463868C10707D4FFF7C0F918
:10186000A0EB0B000328F6D303204FE02769B9F162
:10187000000F27F4407709D0A069216941F4803135
:101880002161216921F480312161A061716DDFF84E
:10189000A0003943216107400FD0FFF7A1F981462D
:1018A000206910EA470F08D1FFF79AF9A0EB090069
:1018B00041F289318842F3D3D6E7B8F1000F03D063
:1018C000E86E20F00400E866306801041DD5B06DB4
:1018D000002818BFB0F5802F09D0B0F5002F18BF31
:1018E000B0F5402F03D040F2E91100F015F821695E
:1018F000B06D21F44021014321612169B06D01F4F3
:101900004021814218BF012000D10020BDE8F28FA4
:10191000286840F4803070475046FFF719BB00003C
:10192000A821000CE00C0256280C0256280802568A
:1019300001000024F0B5DFF8C440DFF8C450B0F176
:10194000005F18BFB0F1405F0BD0A84218BFA042A3
:1019500007D0DFF8B02090421CBFDFF8AC309842CF
:101960000BD10A68002A18BFB2F1004F05D14B68AD
:10197000002B18BFB3F1804F01D00120F0BD1A43F6
:10198000B0F1005F18BFB0F1405F03D1DFF87C30E9
:101990001C2409E0A84218BFA04207BFDFF870303E
:1019A0000424DFF870300124002007E001EB8005FB
:1019B000AE6F03EB8007401CC7F80062A042F5D36E
:1019C000002007E001EB8005AE6803EB8007401CB8
:1019D000C7F80061A042F5D31868012505FA04F4A0
:1019E00020F0404002431A601A69D1F8E800641EF2
:1019F00022EA040404431C610020F0BD000007300B
:101A0000000007200080024800800258002C03508C
:101A100000300350004003502DE9F84F8146002567
:101A2000DFF888030F46DFF8888381451CBFDFF8A5
:101A30008413894532D0DFF8800381451CBFDFF86D
:101A40007C1389452AD0DFF8780381451CBFDFF875
:101A50007413894522D0DFF8700381451CBFDFF87D
:101A60006C1389451AD0DFF8680381451CBFDFF885
:101A70006413894512D0DFF8600381451CBFDFF88D
:101A80005C1389450AD0DFF8580381451CBFDFF895
:101A90005423914502D0AF2100F01DF938680104AC
:101AA00002D0000C000402D0B02100F014F97868D4
:101AB000002818BF01281CD0112818BF022818D0F0
:101AC000122818BFB0F5881F13D0B0F5041F18BF37
:101AD000B0F5441F0DD0B0F5901F18BFB0F5081F2A
:101AE00007D0B0F5481F18BF032802D0B12100F07D
:101AF000F2F8E3E00126AE40344000F0DE804FEA29
:101B0000450A032000FA0AF06FEA000B786800F03B
:101B1000030101291CBF00F0030002281AD1F86854
:101B200000281CBF0128022802D0C02100F0D3F8F1
:101B3000D9F80800F96800F0C8F8C9F80800D9F821
:101B4000040020EA06067868C0F30010A8400643A7
:101B5000C9F804603979B86801F00301032908BFA6
:101B600001280ED000281CBF0128022802D0D32152
:101B700000F0B1F8D9F80C00B96800F0A6F8C9F87F
:101B80000C0038790F2600F0030002284FD1DFF84F
:101B90001C0281451CBFDFF81C12894532D0DFF8DA
:101BA000180281451CBFDFF8141289452AD0DFF8DE
:101BB000100281451CBFDFF80C12894522D0DFF8E6
:101BC000080281451CBFDFF8041289451AD0DFF8EE
:101BD000000281451CBFDFF8FC11894512D0DFF8F7
:101BE000F80181451CBFDFF8F41189450AD0DFF800
:101BF000F00181451CBFDFF8EC11894502D0E021DE
:101C000000F069F83869102802D3E12100F063F888
:101C1000E80809EB8000016AAA0002F01C0206FA3B
:101C200002F399433B6903FA02F211430162D9F8C6
:101C300000000BEA0001387900F0030000FA0AF016
:101C400040EA010AC9F800A0796811F4403F34D095
:101C5000A808DFF8941151F82020EB0003F01803D6
:101C60009E4022EA0606DFF8842102EA992202FA5F
:101C700003F31E4341F82060DFF874110A687B68A3
:101C8000E0430240DB0248BF22430A604A687B68A7
:101C900002409B0248BF22434A60DFF85821516846
:101CA0007B6801409B0348BF214351601168084095
:101CB0007968CB0348BF204310606D1C3C6834FA40
:101CC00005F07FF417AFBDE8F18F0BEA000001FAD1
:101CD0000AF1084370474046FFF73AB9F8B50D4698
:101CE00016460446DFF8C8702A0003D14FF4CE71BF
:101CF00000F00CF8300007D0012E03D040F29D1107
:101D000000F004F8A561F1BDA562F1BD3846FFF70A
:101D10001FB9F8B500F041F81CBF26498D4227D005
:101D2000254885421CBF25498D4221D02448854243
:101D30001CBF24498D421BD0234885421CBF234928
:101D40008D4215D0224885421CBF22498D420FD0BA
:101D5000214885421CBF21498D4209D02048854237
:101D60001CBF204A954203D040F27F21FFF7CEFFEF
:101D7000300003D14FF42071FFF7C8FF012C08D0C9
:101D80001CB9286B20EA060605E040F28121FFF726
:101D9000BDFF286B06432E63F1BD054603480E4682
:101DA0001446034F854270470000000000000242C5
:101DB0005022000C000002520004024200040252B1
:101DC0000008024200080252000C0242000C0252BB
:101DD0000010024200100252001802420018025283
:101DE000001C0242001C0252602002567F7F2B0022
:101DF000002002568020025610B566480021016579
:101E00004FF00162426564498165012202656349C0
:101E10004165634A826502210165624A4265624901
:101E200081650322026561494165614A8265042139
:101E300001654FF0804242655E49816501228264FE
:101E400041680422042441F4406141605A490B680E
:101E500062F39C630B605949594A0A60594B4B60C5
:101E60008C60016841F47001016010BD30B55649C5
:101E7000CB695648564A03F00C03082B02D00C2BB2
:101E800007D04BE010460A68120D02F00102D04064
:101E900044E08B6A4C6BC3F302256D1C00EE105AB4
:101EA000C4F30805C4F30664641C6D1C01EE104AFB
:101EB00000EE905ADC0607D58C6BC4F3CC0401EE1F
:101EC000904AFBEEE91A01E0DFED311A03F003035B
:101ED000022B02D0032B03D00AE002EE100A09E025
:101EE0000868000D00F00100C24002EE102A01E077
:101EF0009FED272AB8EE422AB8EE400AF8EE600AB3
:101F000082EE000A70EEA10A20EE200AF8EE410AE5
:101F100080EE200ABCEEC00A10EE100A2D4A1060B6
:101F2000096A00BF2CA301F00701595CC84010608A
:101F300030BD80B5FFF79AFFBDE80240254800217B
:101F40000068002200238C4600EE101A00EE901A62
:101F500001EE101A01EE901A02EE101A02EE901A1B
:101F600003EE101A03EE901A04EE101A04EE901A03
:101F700005EE101A05EE901A06EE101A06EE901AEB
:101F800007EE101A07EE901A81F3008874470000DC
:101F90000000000088ED00E0E1FF1F080000F90BE1
:101FA000E13FFA0B00E00F0CE3FF0F0C00000420F0
:101FB000E1FF0720E1FFFF4F34EF00E080E300E0A6
:101FC0000482016100400828000C02560024F4003D
:101FD0000048E8010C00003000000000010203048A
:101FE00081B00A48C16841F00401C160C16801F0D4
:101FF000040100910099026842F08072026000685A
:1020000000F080700090009801B07047880C025674
:1020100062F30F2262F31F42401810F0030308D04E
:10202000C91A1FD3DB0748BF00F8012D28BF20F8CD
:10203000022D130030B414461546103928BF20E98C
:102040003C00FAD8490728BF20E90C0048BF40F8F7
:10205000042D890028BF20F8022D48BF00F8012D6B
:1020600030BC7047C91818BF00F8012DCB0728BF36
:1020700000F8012D7047000031B11F4A18B1012846
:1020800008BF516000E0116000200021002230E014
:1020900080B5012201E080B500224FF4807117481D
:1020A000FFF71CFEBDE801400020002100220023B4
:1020B000844600EE100A00EE900A01EE100A01EECE
:1020C000900A02EE100A02EE900A03EE100A03EEE6
:1020D000900A04EE100A04EE900A05EE100A05EECE
:1020E000900A06EE100A06EE900A07EE100A07EEB6
:1020F000900A80F30088744740000030000C0252C0
:10210000433A5C6465765C7762615C6769745C46DF
:1021100069726D776172655C447269766572735C31
:1021200053544D333257424178785F48414C5F44B5
:1021300072697665725C5372635C73746D33327767
:10214000626178785F68616C5F636F727465782E26
:1021500063000000433A5C6465765C7762615C67AB
:1021600069745C4669726D776172655C4472697608
:102170006572735C53544D333257424178785F48EF
:10218000414C5F4472697665725C5372635C737430
:102190006D333277626178785F68616C5F707772F7
:1021A0005F65782E63000000433A5C6465765C7777
:1021B00062615C6769745C4669726D776172655CC7
:1021C000447269766572735C53544D3332574241A1
:1021D00078785F48414C5F4472697665725C5372EF
:1021E000635C73746D333277626178785F68616CB9
:1021F0005F7263635F65782E63000000433A5C643E
:1022000065765C7762615C6769745C4669726D775C
:102210006172655C447269766572735C53544D33C8
:102220003257424178785F48414C5F447269766525
:10223000725C5372635C73746D3332776261787869
:102240005F68616C5F7274635F65782E6300000085
:10225000433A5C6465765C7762615C6769745C468E
:1022600069726D776172655C447269766572735CE0
:1022700053544D333257424178785F48414C5F4464
:1022800072697665725C5372635C73746D33327716
:10229000626178785F68616C5F6770696F2E630058
:1022A000433A5C6465765C7762615C6769745C463E
:1022B00069726D776172655C447269766572735C90
:1022C00053544D333257424178785F48414C5F4414
:1022D00072697665725C5372635C73746D333277C6
:1022E000626178785F68616C5F7263632E6300007F
:1022F00010B5074979441831064C7C44163404E083
:102300000A68081D114488470146A142F8D110BD52
:102310002C000000380000004EF68851CEF200017B
:10232000086840F470000860BFF34F8FBFF36F8FF1
:102330004FF00170E1EE100A7047000017ECFFFF4C
:10234000F00100001A0000000000003000F00DF85D
:10235000002801D0FFF7CCFFAFF300800020AFF3DF
:102360000080FEF743FC00F002F80120704700F007
:1023700001B800000746384600F002F8FBE700000D
:1023800080B5AFF30080024A11001820ABBEFBE716
:10239000260002000548014603B4684680F3098818
:1023A000AFF30080FFF7B8FFFFF7D0FFA5EDF5FE14
:1023B000FEE7FEE7FEE7FEE7FEE7FEE77047704751
:1023C000704700F001B8000002494A680878821896
:1023D0004A607047000000300148804701480047CC
:1023E000F91D000C9523000CFFF7FEBFFFF7FEBFA1
:1023F000FFF7FEBFFFF7FEBFFFF7FEBFFFF7FEBF11
:10240000FFF7FEBFFFF7FEBFFFF7FEBFFFF7FEBF00
:10241000FFF7FEBFFFF7FEBFFFF7FEBFFFF7FEBFF0
:10242000FFF7FEBFFFF7FEBFFFF7FEBFFFF7FEBFE0
:10243000FFF7FEBFFFF7FEBFFFF7FEBFFFF7FEBFD0
:10244000FFF7FEBFFFF7FEBFFFF7FEBFFFF7FEBFC0
:10245000FFF7FEBFFFF7FEBFFFF7FEBFFFF7FEBFB0
:10246000FFF7FEBFFFF7FEBFFFF7FEBFFFF7FEBFA0
:10247000FFF7FEBFFFF7FEBFFFF7FEBFFFF7FEBF90
:10248000FFF7FEBFFFF7FEBFFFF7FEBFFFF7FEBF80
:10249000FFF7FEBFFFF7FEBFFFF7FEBFFFF7FEBF70
:1024A000FFF7FEBFFFF7FEBFFFF7FEBFFFF7FEBF60
:1024B000FFF7FEBFFFF7FEBFFFF7FEBFFFF7FEBF50
:1024C000FFF7FEBFFFF7FEBFFFF7FEBFFFF7FEBF40
:1024D000FFF7FEBFFFF7FEBFFFF7FEBFFFF7FEBF30
:1024E000FFF7FEBFFFF7FEBFFFF7FEBFFFF7FEBF20
:1024F000FFF7FEBFFFF7FEBFFFF7FEBFFFF7FEBF10
:10250000FFF7FEBFFFF7FEBFFFF7FEBFFFF7FEBFFF
:10251000FFF7FEBFFFF7FEBFFFF7FEBFFFF7FEBFEF
:10252000FFF7FEBFFFF7FEBFFFF7FEBFFFF7FEBFDF
:0D2530000001F9000010FC000124F4C700B8
:020000040C0FDF
:10E000007FE97FE904F744B87FE97FE904F743B883
:10E010007FE97FE904F730B87FE97FE903F789BF3B
:040000050C00239533
:00000001FF
