:020000040802F0
:10000000B8E3002089D40508C1F80508C5F805083B
:1000100015A40508C9F8050817A40508CDF80508B2
:1000200000000000000000000000000019A4050806
:10003000D1F80508000000001BA405081DA4050850
:1000400000000000D5F8050821A40508D9F8050826
:10005000DDF80508E1F80508E5F80508E9F8050800
:10006000EDF8050835A40508F1F8050800000000C2
:1000700001A5050807A50508F5F8050855A4050814
:10008000F9F80508FDF8050801F9050805F905085E
:1000900009F905080DF9050811F9050815F905080C
:1000A0000DA5050819F905081DF9050821F9050828
:1000B00057A405085DA4050825F9050829F90508D0
:1000C0002DF9050831F9050835F9050839F905084C
:1000D0003DF90508000000000000000000000000DD
:1000E00041F9050845F9050849F9050863A405081B
:1000F0004DF9050851F9050855F9050869A40508E1
:1001000059F905085DF9050861F9050865F905085B
:1001100069F905087DA405086DF905089DA4050881
:1001200071F9050875F9050879F905087DF90508DB
:100130007FA4050899A4050881F9050885F9050833
:1001400089F905088DF9050891F9050895F905085B
:100150002DE9F04FA7B08246002016468B460021BD
:100160003422159003209AF8C8428DF81F0008A881
:1001700001F0C4FDBBF80A00DBF800100144087967
:1001800023288DF8590003D0112805D14F7907E0B5
:1001900001218AF8CC1202E03C2800F27C80002782
:1001A000BBF80C200FF67851095C043A8A4240F003
:1001B00072800DF120090DF11F000DF159015B4610
:1001C0004A4601F0D1FD9AF830C2BCF1070F04D0C5
:1001D0009AF83112073901290ED89DF85910CA1E14
:1001E000042A09D3112900F2B980012202FA01F18F
:1001F000A74A114200F0B280013C9DF859200AF54F
:100200002C78002800F052803C2A00F2D184DFE8EC
:1002100012F0A000A201B100BD01CB01D901F10192
:10022000B6003D003D0066028D078702D3003D0009
:10023000C10BFA000301D102D102E102E102FA0787
:10024000FA0218033E0378034101B003B903CA035D
:10025000CF04CF04CF04CF04D403EB032F044D0409
:100260005B04C504A907B00350017401CF04CF0497
:10027000CF04CF04CF04CF04CF04CF04CF04CF04E6
:10028000CF04CF04CF04CF04DD04CB0508A950462A
:1002900001F0E2FF8CE08DF8200008A8514607220B
:1002A00002F011F884E027B0BDE8F08F3C2A3FF659
:1002B000ABAFDFE812F03E0043013D005501700195
:1002C0007E019701C401FC0106020C0218022E02F5
:1002D0003D003A0244025B023D0074027A0284024D
:1002E0008A0294029F02B402E402220349035A03E1
:1002F000630374033D003D003D003D007E03950314
:10030000D903F30302046C0479043D003D003D0071
:100310003D003D003D003D003D003D003D003D00F5
:100320003D003D003D003D003D003D008104750560
:100330006AE701F0CBFF00F03B849AF831020A280B
:1003400018BF002840F00487DAF8D001002840F0F8
:10035000FF8608A9504601F0BDFF29E09AF8230264
:10036000AA2804D150463D2102F052F820E0CAF8F4
:1003700004B298E708A9504602F02AF918E09DF85F
:100380002000A0F10E010F2900F2B686DFE811F07F
:100390007501750A100010009F0A1000A70A1000CE
:1003A000BA0A100010001000D10A10001000EC0A68
:1003B000584602F023F976E7BCF1090F18BFBCF1EB
:1003C000070FF5D102F038F99AF8300200248AF8C4
:1003D0003742072814D1DFF8880B0068C36B2BB1B4
:1003E000BAF8E2119DF8200000229847BB208AF855
:1003F0002302DAF8D80118B10AF5EC7002F020F9FE
:100400008AF83042D4E79AF834020028D0D1BCF1FF
:100410000A0F00F0B881BBE1032F01F00A813B2FE6
:1004200001F01F81102F01F04C81162F01F06F8118
:100430001A2F01F08081232F01F09381262F01F0E4
:10044000B6810F2F08BFBCF10A0FB1D102F0F4F84A
:1004500000209AF834128AF837028AF830029DF8A0
:1004600021001A2808BF002901F08382012941F0E8
:100470004181BAF8BE11BAF8B8218A4201F03A8136
:10048000AAF8B611AAF8B811AAF8B41101F032B955
:10049000042C0200112840F05B82DFF8C40A0068D7
:1004A000C26F002A00F05482BAF8E201002190479E
:1004B0004EE2012002F0D1F8012002F0CEF89DF8C2
:1004C00021000A283FF674AF00283FF471AF9DF871
:1004D000201088423FF66CAF02F0C2F802201A28C2
:1004E00001F0BC8119F8001001300029F7D09DF807
:1004F00021108AF8421101F0B3B9012002F0ADF8E1
:10050000012002F0AAF802F097F89DF821000A28CD
:100510003FF64EAF00283FF44BAF02F0A1F80220A7
:100520001A2800F0FF8619F8001001300029F7D0D2
:100530009DF821108AF8421100F0F6BE01F0C6FEC7
:1005400000F0368302F096F840F00286DAF8D00127
:10055000002840F0FD8508A9504602F08FF827E7F3
:100560009AF83102072804D19AF82212082940F09B
:100570003E81C11F18BF0121002818BF0120084279
:1005800040F0E68501F0A2FE00F0E28508A95046A1
:1005900002F0D6F80CE79AF83402012800F008833C
:1005A000BCF1070F40F0D48508A9504602F00DF9C0
:1005B000FEE69AF83402012800F0FA82BCF1070F37
:1005C00040F0C685012051460622002300248AF807
:1005D0002602BB208AF82302002002F011F9CAE9A2
:1005E0007B44E5E6BCF1070F04D09AF831020728F6
:1005F00040F0AE859AF83102072840F02E84DAF8F0
:10060000D40108B102F06CF9002051460622002303
:10061000CAE97B06002002F0F3F8DFF844099AF8F3
:1006200022120068082940F0A385026C002A00F01D
:10063000B685BAF8E2110020904700F0B0BD9DF8F1
:100640002000A0F10E010F2900F2C587DFE811F0AC
:1006500011001109100010003B091000430910009F
:1006600056091000100010006D09100010008809D4
:1006700087E6BCF1040F40F06B8501F0DDFF02F06E
:1006800033F99AF84601022801F0E58100287FF449
:100690008FAEDFF8CC0800684369002B3FF488AECA
:1006A000BAF8E2110AF14A021A20984780E601F0EE
:1006B0000DFE00F07D8201F0DDFF40F0498508224B
:1006C000E4E5BCF1040F40F043850922DEE501F0CA
:1006D000FDFD00F06D8201F0CDFF40F03985504600
:1006E00002F008F964E6BCF1070F11BF00209AF888
:1006F0003402B0FA80F040099AF83112072940F02C
:1007000012859AF834120139B1FA81F1490900F0E1
:100710000BBDBCF1030F03D001F0ACFF40F0188516
:1007200008A9504602F00EF942E602F03BF900F04B
:100730003F8201F09FFF40F00B850E22A6E59AF85C
:100740003102002840F00485BCF1010F00F0008563
:10075000BCF1020F01F01B81BCF10A0F41F01181C5
:1007600001F0B4FD41F0168100F0F2BC9AF83402B9
:10077000012800F01D82BCF10A0F40F0E98401F06D
:10078000A5FD7FF415AE01F057FF00208AF8300276
:10079000BAF8E2010AF5BE7102F008F908E601F0C4
:1007A00069FF40F0D584122204E0BCF1060F40F04E
:1007B000CF8413225046114602F042F9F8E501F0C9
:1007C00059FF40F0C584142204E0BCF1090F40F049
:1007D000BF84152208A9504602F05AF9E8E59AF8B4
:1007E0003102002800F00A850C2840F0B184504600
:1007F0002421B9E59AF83402012800F0D981BCF12E
:100800000C0F40F0A58401F061FD7FF4D1AD089993
:10081000504602F075FA504602F0B1FAC8E59AF86F
:100820003402002800F0C481BCF10C0F04D09AF807
:1008300031020C2840F08C84DAF8D001002840F016
:10084000878402F0AFF87FF4B3ADDAF8D40108B1D1
:1008500002F046F8DAF8CC0108B101F0EDFE9DF89F
:100860002000032808D09DF82110032904D0042873
:1008700098BF0529C1F0068150461E2174E502F09B
:1008800091F800F0958101F0F5FE40F0618401F0EF
:100890001DFD7FF48DAD00208AF837029DF8210000
:1008A000263810F1240FFFF483AD9DF820000028B6
:1008B0003FF47EAD07283FF67BADBDF82000002158
:1008C0008AF88A1101218AF84512010A8AF843023E
:1008D0008AF844129AF83B12084000063FF468ADCB
:1008E0000AF1300002F08EFA9DF821108842BFF420
:1008F0005FAD504602F089FA5AE501F0BBFE40F0C8
:1009000027849AF86E02012840F0F38220209AF89A
:10091000421201290ED19AF834229AF8A11122B973
:100920009AF8A031042B00F02F83012A08BF042974
:1009300000F02A83002840F0288317A808A9012284
:1009400002F096FA1B2226E3BCF10F0F40F0008460
:1009500001F072FE01F0C8FFBAF8960200287FF499
:1009600027AD01208AF89A0222E501F083FE40F0CB
:10097000EF8308A9504602F0C1FA19E501F07AFEAA
:1009800040F0E68308A9504602F01CFC17AE304642
:1009900002F034FC304651461E22FFF781BCBCF108
:1009A000100F40F0D58308AA5046002102F034FC15
:1009B000FEE401F05FFE40F0CB83012001F04DFE2C
:1009C000012001F04AFE9DF822007E2840F0CE82F0
:1009D0001E208DF85D0023208DF85C0017A8BDE374
:1009E000BCF1150F40F0B48300259AF8C8420120ED
:1009F00001218DF890508DF85B5002F039FC0120F8
:100A000001F02BFE01F018FE601E9DF822409DF8BB
:100A100023208AF837528AF83052C0B200EB4001E6
:100A20009DF8200008F8010041444A7004B18D701F
:100A30009AF8D412022900F0B282012940F0B5825E
:100A4000DFF81C1502F019FC00F0AF829AF8C832EA
:100A5000BAF8E211002452B2CDE90020029400203D
:100A6000022202F00FFCA0E201F004FE40F07083CD
:100A7000012001F0F2FD012001F0EFFD9DF82100C1
:100A800000283FF495AC0F283FF692AC9AF8CE12AE
:100A9000002900F08284002400F0A1BC01F082FF54
:100AA00000F0868001F0E6FD40F0528301F00EFC7C
:100AB00000F0E682002000F055BC01F007FC77D082
:100AC00001F0D8FD40F04483012001F0C6FD01F0A3
:100AD00069FF7FF46DACDAF8CC0108B101F0ACFD30
:100AE000BDF83E00BDF83810BAF81630421C4A4333
:100AF00053435C00BDF82830B4EBC30F80F0538340
:100B0000B2F5FA7F00F24F83BDF82620914240F201
:100B10004A834C1EA4087C2C00F2458384087C2C5C
:100B200000F2418394087C2C00F23D83A3F10A0477
:100B300040F67745AC4280F03683BDF83A40A5B226
:100B4000B5F5804F0BD3BAF8DE610027B7EB963FBF
:100B500005D1C5F58035B5FBF1F505FB0144AAF8D3
:100B60001843BAF81840844240F02383BAF81A4078
:100B70009C4240F01E83BAF81A43944240F0198315
:100B8000BAF81643641AB4FA84F4640912E301F063
:100B90009DFB0DD001F06EFD40F0DA8208A95046B1
:100BA00002F0A8FBFFF704BC01F0FCFE40F0CD8290
:100BB0008DF82020FFF771BB9AF83102002840F031
:100BC000C7829AF83402002800F02486BDF822007B
:100BD00042F2117100260027884224BF42F21070B1
:100BE000ADF82200BDF820100024814298BF0126F4
:100BF0009DF82600082838BF0127BDF82420202AA8
:100C000038BF0124002800F0C680002A00F0C3800D
:100C10009AF8453100F00201012B1FD121B19AF859
:100C20004B30DB0700F03D84430704D59AF84B3086
:100C30001B0740F1368412F0180F0FD09AF84D20A0
:100C4000D30604D49AF83432012B00F02A84920699
:100C500004D49AF83422002A00F0238441B1012000
:100C6000012102F0B1FB002800F095839DF82600D9
:100C7000400706D50120082102F0A6FB002800F05D
:100C80008A83BDF8240010F0180F11D00320202112
:100C900002F09AFB18B901F085FE00F07C83032076
:100CA000102102F091FB18B901F010FB00F07383E2
:100CB00006EA0700AB499DF82630BDF822E0BDF8F2
:100CC00020700AF54C760122204003960690A64833
:100CD0008968049300680844C0EB401101EB900C54
:100CE00000211FFA8CF00590BDF82400032900F0C4
:100CF0001F8702FA01F41C4246D04FF000094FF062
:100D00000008059AB9F1050F3CD020FA09F5ED0766
:100D100033D09AF83452012D0CD0FDB99AF83A52DA
:100D20002C4204D05FFA89F5013D022D12D39AF8C6
:100D30003B520AE09AF83B522C4204D05FFA89F504
:100D4000013D022D06D39AF83A522C4206D0B9F151
:100D5000000F03D136F81950AE451CD308F07F05BB
:100D6000022D03D2782F08D2782503E005D1BC45A7
:100D7000154602D92F46ADF8205008F1010809F1B7
:100D80000109BFE70122049B0A3601311124069DA7
:100D9000002DABD100E01E243B208DF82140E4E281
:100DA000BCF11B0F40F0D481BDF8221042F211704B
:100DB000814224BF42F21070ADF82200BAF82A1323
:100DC000BDF82000814265D3BAF82813814261D86A
:100DD0009AF82E139DF82620BAF82C43BDF824303B
:100DE00022EA010123EA0404214353D100240AF535
:100DF0004C794FF6FF7E01214FF002088DF86440D8
:100E0000032C4ED022FA04F5ED0722D00027052F3F
:100E10001FD001FA07F51D4019D09AF83B6216421F
:100E200008D09AF834620EB9012D06D0012E08BF01
:100E3000022D02D029F8170009E08AF82E438AF81B
:100E40005283AAF82C73AAF82AE3AAF828030137D8
:100E5000DDE709F10A090134D2E7BCF1070F40F0E0
:100E6000518201F0E9FB00209AF822128AF8370239
:100E70000120CAE97B06DFF87C0E0829006840F0F3
:100E80001082026C002A00F02382BAF8E2110020DE
:100E900090471DE2BAF8E2011E2102F09DFAFFF729
:100EA00087BA1BB912B900208AF85203BCF11B0F94
:100EB00003D101F0C1FB01F017FD504602F0C6FA64
:100EC000DFF8300E02F0D0FA3FF472AABDF820002D
:100ED00002F0CFFA00208DF86300BDF82400ADF8D1
:100EE0006000BAF8E201ADF85C0017A88847FFF788
:100EF0005FBA9DF820003F2804D89AF86C12C90701
:100F00003FF404AD00F0C001802900F03182402997
:100F100040F033829AF86C1289077FF5F7AC2CE227
:100F20000C0802170D010102090901010602091846
:100F30001803010109090303050302012302022426
:100F40000910040405050B0B040B2B1B1B151A1AA7
:100F50001C021D16130501490D15050806000000A9
:100F60009CD30020A4CA0020DC0200209DF8207041
:100F7000781E0228C0F09A82042F00F09482082F75
:100F800040F0268304278FE22A208DF85D001A2086
:100F900011228DF85C0017A85146FFF781B924B1E2
:100FA0009AF8CE12002900F023849AF8CF02002884
:100FB0007FF4FEA99AF83A62042E05D1BAF83C02F1
:100FC0000426022808BF03269DF820104FF4317034
:100FD000032908BF40F2C5209AF8C8128E427FF458
:100FE000E7A99DF82110FF293FF4E2A91AF80000B3
:100FF000494224AA0DF15B0349B240B202F040FA23
:101000009DF85B0000283FF4D3A917A80021042213
:10101000042400F073FE032E03D0042E14BF3446C4
:1010200008249DF85B009DF990108DF85D408DF8C7
:101030005E008DF85F1017A802F05AFA9DF8201094
:101040009DF89000032914BF8AF8C4028AF8C502EB
:1010500017A9504602F072FA3A2800F031850028AC
:1010600040F04385BAF816004FF47A7100EB800027
:101070008008B1FBF0F001308AF8CF0200F035BDF6
:1010800002F0A4FA002800F069810AF2FE2624A8E2
:101090000A22314601F0ECFEBDF82410BDF8942080
:1010A0001120914200F25B81BDF82820BDF89830F4
:1010B0009A4200F25481BDF89030BDF822409C4223
:1010C000C0F04D81BDF82030BDF89240A34200F23F
:1010D00046810224D20004EB41015943BAF816308C
:1010E0005943914280F03B8108A802F077FA00282A
:1010F00000F05D84302032E1232800F0738228283C
:1011000000F092833B287FF453A99AF8520000F034
:10111000FD008AF8520001F08FFA00208AF83702A9
:101120008AF85203E6E30021084311D0BCF1070F0F
:101130007FF43EA9032051460B228AF82602AA20FA
:101140008AF823020020FFF7ABB801F093FA09D028
:1011500023208DF821008DF8202008A85146112267
:10116000FFF79EB808A9504602F067FAFFF720B9CA
:10117000C36B0BB102F089FA052001218AF837020E
:10118000DAF8D80102F086FADFF86C0B02F087FA81
:101190000028CAF8D80118BF012001F05EFA072024
:1011A0008AF82202AEE09AF8300218287FF400A9EB
:1011B0001CE30024AAF81C03AAF81613AAF8E001FD
:1011C000AAF81800AAF81A23AAF81A301CB19AF83B
:1011D000300218280DD1ADF83C2008AA0020514655
:1011E000002402F061FA9AF83002182808BF8AF841
:1011F0003042504602F084FAFFF7DAB89AF8340227
:10120000002800F01D830C208AF831029AF83E0273
:1012100010B19AF83F1249B924A80DF15B010DF104
:101220005A0202F095FA9AF83E0208B18DF85B0076
:101230009AF83F0208B18DF85A0001F047F810D132
:101240009DF85B0008998AF8A0019DF85A008AF879
:10125000A101504601F054FD504601F090FD9AF86E
:10126000340201287FF4A4A89DF85B009DF82110AA
:10127000172200238AF8A1018DF85C009DF85A001E
:101280008AF8A01151468DF85D0017A801F0B8FA50
:1012900050460C2102F06AFA03208AF84202FFF756
:1012A00087B8C36B0BB102F0F0F9052001218AF871
:1012B0003702DAF8D80102F0EDF9DFF83C0A02F063
:1012C000EEF90028CAF8D80118BF012001F0C5F9CD
:1012D00000208AF8300207208AF8220200F0F6FF88
:1012E00002D1504602F06CFADAF8C40102F0BEFAFC
:1012F000DAF8041231B150463246FEF729FF0020D9
:10130000CAF80402DAF8D80102F0D8FA15A9504652
:1013100002F024FB1599DAF8D801490102F032FBFA
:10132000FFF746B89DF821109AF951209DF820004A
:10133000B2F1FF3F8AF843013FF73AA80131C9B241
:101340000A2906D80128024698BF01228A4280F065
:10135000E783504602F050FBFFF72AB81A2000211D
:101360008AF830128DF8210026208DF82000F4E64E
:101370009AF86C1249077FF5C9AA00F01F001428DB
:101380003FF6C4AA9AF83A02411E1E20022938BF2D
:101390000020FFF7BCBA1124FEE4DFF8581901F071
:1013A0006CFF3FF478AB17A80021082200F0A6FCE0
:1013B0004FF480709DF820109DF822209DF8233076
:1013C0000124ADF85E00BAF8E2018DF862308DF8C4
:1013D00061108DF86320ADF85C009DF82100C10715
:1013E00015D002F047FB8AF8B12200228AF8B01229
:1013F0008AF8B2225CB101208DF86000DFF8F408B1
:101400000068D0F8881017A888479DF82100810748
:1014100015D502F02FFB8AF8B42200228AF8B31205
:101420008AF8B5225CB102208DF86000DFF8C408AC
:101430000068D0F8881017A888479DF82100410758
:1014400015D502F017FB8AF8B72200228AF8B612E7
:101450008AF8B8225CB103208DF86000DFF89408A8
:101460000068D0F8881017A888479DF82100000769
:101470007EF59EAF9DF823109DF820008AF8BA12E1
:1014800000218AF8B902002C8AF8BB123EF490AF12
:1014900004208DF86000DFF85C080068D0F8881040
:1014A00023E51A2478E403278DF820700DF15C09F8
:1014B000002104220424484600F020FC9AF83A1245
:1014C000042905D1BAF83C02022808BF03242146AA
:1014D0009DF820204FF431700AF531760AF2C524C8
:1014E000032A08BF40F2C5201AF800008A420AD039
:1014F000042908BF032A06D0FF207E218DF85D0055
:101500008DF85F101FE09DF82110F1B140B249B293
:1015100009F1030209F1020301F0B2FF504602F0A3
:10152000AEFA9DF820208DF85D009DF85F10032A2B
:1015300014BF317021709DF85E1021B19AF8D0125D
:10154000002900F02D82002509E08DF85F000025BC
:1015500050468DF85E5002F092FA8DF85D009AF8D0
:101560003012152903D1FF208DF85D0005E020B170
:10157000FF281CBF03208AF8CD029DF82000013F00
:10158000032808BF264696F9006017A8314601F0E7
:10159000AFFF7DB1F0B2BAF8E2119DF820309DF8AE
:1015A0005C209DF85E4040B28DE8150000200022CE
:1015B00001F068FE17A85146242200F084FEF8B21C
:1015C0009DF8221000EB400040444170FEF7F0BE51
:1015D0002020FFF7FEB923287EF4D3AEBCF1150F0F
:1015E0007FF4B6AD01F028F801F07EF99AF84E00CC
:1015F00000F0F9008AF84E009AF8D40201287EF42F
:10160000D7AEDFF8F00602F05DFA3EF4D1AE04EB9F
:1016100044009AF8C832002408EB000118F80000D2
:1016200091F90120BAF8E2110294CDE900201A20C4
:10163000BBE0BCF1070F7EF4BBAE00F0FDFF01F094
:1016400053F9DFF8B0060068C36B2BB1BAF8E211AA
:101650009DF8210000229847BB208AF82302FEF75C
:10166000A7BEBCF11B0F7EF4A3AEDAF8CC0108B123
:1016700000F0E2FFDFF87C1600208AF852038AF8B7
:1016800030028AF837020968D1F8B01000293EF418
:101690008FAE8DF86300BAF8E2019DF82120ADF815
:1016A0005C00BAF828038DF86420ADF85E009AF863
:1016B0002E038DF86200BAF82C03ADF86000FFF736
:1016C00014BC9AF831020A287EF472AEBCF10C0FF9
:1016D0003EF46EAE01F004F900208AF837028AF871
:1016E00031029DF821001A2804D19AF834120029F9
:1016F00000F03F81DFF8FC150968CC6A002C3EF44D
:1017000057AE02F0E4F9BAF81A500095B7E1BCF10F
:101710000C0F7EF44DAE00F08FFF00209AF83A12C5
:101720009AF83B229DF821308AF83002504602F0A8
:10173000D5F9FEF73DBEBCF10F0F7EF439AE00F0D7
:101740007BFF01F0D1F8DFF8AC050068C26F002A1A
:101750003EF42EAEBAF8E2019DF821109047FEF754
:1017600027BEBCF1150F7EF423AE00F065FF01F03B
:10177000BBF89AF8D40201287EF41AAEDFF874059B
:1017800002F0A0F93EF414AE04EB44009AF8C8321B
:10179000002508EB000118F800409DF8210091F9A0
:1017A0000120BAF8E2118DE834000222B4E101F020
:1017B000F9F87EF4FDADDAF8CC0108B100F03CFF99
:1017C000BAF800035146ADF87400BAF80403ADF856
:1017D0007800BAF80203ADF87A00BAF80603ADF85B
:1017E00064009DF8210017AA01F05EFF002081E04F
:1017F000DFF8001501F041FD3FF4D7AB9AF8C8328D
:10180000BAF8E21152B20294CDE900200020012280
:10181000FFF727B9BCF11B0F3FF49AACBCF1120FD4
:1018200000F0B580FFF7D2B900F050FD7EF4C0ADF6
:101830009AF84E0000F07F008AF84E00FEF7B8BD1F
:10184000ACF101000228C0F0A280BCF10C0F3FF403
:101850007FACBCF10A0F00F09A80D4E49DF821100F
:101860009DF820008AF84301504602F051F9FEF736
:101870009FBDBCF10A0F7FF46BAC9AF84A0000F0F0
:10188000FD008AF84A0000F0D7FE01F02DF800F0C4
:101890001DFD6ED0BAF8BE01BAF8B811814205D06C
:1018A000AAF8B601AAF8B801AAF8B401DFF844040E
:1018B0000068C46A002C3EF47BAD02F008F9BAF867
:1018C0001A000090DAE0BCF1060F7FF441AC5046FC
:1018D0000721FEF771BFBCF1090F7FF439AC9AF80C
:1018E0004A0000F0DF008AF84A0000F0A5FE002060
:1018F0008AF837028AF83002FEF75ABDBCF10C0FA5
:101900007FF426AC00F098FE9AF8A40100248AF82F
:101910003042012805D102F034F902F0DFF88AF8EC
:10192000A4418AF84242FEF743BDBCF10F0F7FF499
:101930000FAC00F081FE9AF84C0000F0FB008AF832
:101940004C0000F0D1FFDFF8AC030068C26F002A42
:101950003FF407A8BAF8E2011A219047FFF701B84F
:10196000BCF1100F7FF4F4AB50461A210022FFF7B0
:101970001DB8BAF8E2010AF5BE7102F009F9FEF7E6
:1019800017BD9AF8340228B9BCF10C0F02D12A20F5
:10199000FFF7DFBB08A9504602F0DEF9FEF708BDED
:1019A000D44901F06AFC3FF4CEAD0125D7E51720FC
:1019B000BDF892208AF8300200208AF81E03BDF894
:1019C0002200904238BF0246BAF81603BDF826102E
:1019D000AAF81623AAF80803BAF81803AAF80A0303
:1019E000BAF81A03AAF80C03BAF8DE010130AAF813
:1019F0001803BDF896008142034688BF0B46013AA2
:101A00009A4203DD0A46814298BF0246BDF824008F
:101A1000BDF89410AAF81A23884238BF0146AAF8E4
:101A20001C13BDF82800BDF89810884238BF014645
:101A3000AAF8061317AF38463146262201F018FAE5
:101A40003846514627220123012400F0D9FE8AF8A6
:101A50000E43FEF7ADBCA7480068D0F8B440002C98
:101A60003EF4A6AC9AF842219AF84331BAF8E21152
:101A70000AF152000AF14A05CDE900501A20A047A8
:101A8000FEF796BC08436FD19AF8A401012806D14D
:101A900002F077F8002402F021F88AF8A4419AF8BD
:101AA00030020C2804BF00208AF830029AF8310274
:101AB0000C2804BF00208AF831020020FFF7EDBB9C
:101AC000FC208AF8C9029DF85B008AF8CB0200204E
:101AD00002280AD00AEB0001013091F8E812FF2930
:101AE000F6D15044162180F8E712824801F0EAFF4F
:101AF0003EF45EAC9AF8D00200287EF459AC9DF911
:101B00005F00BAF8E2119DF85C209DF85E308DE828
:101B10000D0000200022334601F0B4FBFEF748BC64
:101B200081423EF645AC504602F0C4F9FEF740BC97
:101B30009AF83A529AF83B629AF834427208690865
:101B4000012C2CD0ECBB1E4202D0C4073C4605D170
:101B500002EB82020AEB4202B2F83043049A1542C9
:101B60004DD040074BD550E0BAF8DE71BDF8226089
:101B7000B74288BF06F58036BAF816203046394697
:101B800002F0C8F98046F01B00B2012803DB47F6DB
:101B9000FF71884218D150462821FEF7E5BB1D424F
:101BA00002D0C3073C4605D101EB81010AEB41019C
:101BB000B1F8304304990E4220D0400711461ED59B
:101BC00023E00024002720E05046092102F0B6F966
:101BD00001209DF82110AAF8A2618AF84202002093
:101BE000AAF8E0019DF820008AF8A0114FEA4811F8
:101BF0008AF8A101DAF8D001FFF790BB114601EB9A
:101C000081000AEB4000B0F83473BAF8AE21BAF89C
:101C1000B211504602F0B6F9391940F2E2421124ED
:101C20000844BAF81610514388423FF6B5A8069802
:101C300090F0010003987FF4AFA8BDF82010BDF824
:101C400024209DF826304FF000084FF6FF7C012637
:101C50004FF0030EB8F1030F35D023FA08F4E40770
:101C60002DD00024052C2AD006FA04F515EA020727
:101C700020D09AF83B521D421AD09AF834520DB92E
:101C8000012F03D0012D0CD1022F15D18AF82E83FC
:101C90008AF852E3AAF82C43AAF82AC3AAF8281310
:101CA00008E02DB9022F03D130F81450AAF8505390
:101CB00020F814100134D5E7012FF5D0F8E70A30E9
:101CC00008F10108C6E708A851463C2202F0D2F903
:101CD000504601F0BBFB074801F0C6FB3EF468AB81
:101CE000BDF820008DF8644001F0C3FB0220FFF72F
:101CF000F2B800BF9CD30020B9F50508F0B500F09C
:101D00000303C3F104039A421C4638BF1446042A55
:101D100028BF1C46231F18BF2346D21A0024A5B291
:101D20009D4202D241550134F9E74FF0013403449A
:101D3000002701FB04F5042492FBF4F4A6B2B74299
:101D400003D243F827500137F9E7064D02F00302AA
:101D500005EA840423440024A24298BFF0BD19552B
:101D60000134F9E7FCFF0300F8B5074600201D46E3
:101D700014460E462FB126B11DB12046002C18BFC7
:101D8000012002F07BF92868002818BF012002F02A
:101D900075F9688929680A5C02F00302032A3A701F
:101DA00040F04980084400793C28307000F24380BC
:101DB0000026DFE810F0DF0002013D0017013901C5
:101DC000410041003D0043004300410041004E01FD
:101DD0003D0043004D004D005F0141004100920075
:101DE0009200A300A30069017A0195012E02AA00C6
:101DF000AF00AF004000400040004000BF00AD0118
:101E0000CC013402EB01BF000402AA00DA00DA00C0
:101E100040004000400040004000400040004000C2
:101E200040004000400040004000400021022702E6
:101E3000002C204676E01F263046F8BD002C2046B8
:101E400018BF012002F01AF9688929680822CCE13C
:101E5000002C204618BF012002F010F9688929687B
:101E6000002608444179827941EA02212181C17921
:101E7000027A41EA02216181417A827A41EA0221B1
:101E8000A181C17A027B41EA0221E181417B84F890
:101E90002810817BC27B41EA02212183017C427CA4
:101EA00041EA0221A182817CC27C41EA0221E183D4
:101EB000017D427D41EA02212184817DC27D41EA8A
:101EC00002216184017E427E41EA0221A184817E59
:101ED000C07E41EA0020E084AEE7002C204618BF17
:101EE000012002F0CBF868892968002602F0C9F8C1
:101EF000C17A007B41EA0020E0809DE7002C20466B
:101F000018BF012002F0BAF8E2E02846214602F0AC
:101F1000C9F86FE1002D284618BF012002F0AEF885
:101F20002868002818BF012002F0A8F802F052F932
:101F3000207081E7002C2046C64E18BF01200121E9
:101F4000B047002D284618BF01200121B04728685E
:101F5000002818BF01200121B047688929680026A0
:101F600002F03EF9C079A07066E72046294602F0EB
:101F70003DF93FE1002C204618BF012002F07EF819
:101F800002F056F921778179C27941EA0221A182D2
:101F9000017A427A41EA02216183817AC27A41EA76
:101FA0000221A181017B427B41EA0221E181817B07
:101FB000C07B41EA002020833EE7002C204618BF6A
:101FC000012002F05BF86889296805220D18A01C21
:101FD000691D00F04DFFA87AE97A002640EA012049
:101FE000208029E7002C204618BF012002F046F887
:101FF0006889296808220D182046691D00F038FFFD
:10200000687BA97B082240EA012005F10F01A0822C
:1020100004F1080000F02CFFE87D297E6A7EAB7E8B
:10202000002602F00BF907E7002C204618BF01201C
:1020300002F024F86889296808220844411D201DFF
:1020400000F016FF688929680422084400F10D0198
:10205000CDE0002C204618BF012002F00FF802F05E
:10206000E7F821718179C27941EA02212180017A60
:10207000407A16E0012002F001F802F0ABF820707F
:1020800068892968084429E0002C204618BF0120EF
:1020900001F0F4FF68892968002602F0A1F8C179EF
:1020A000007A41EA00206080C6E6002C2046694E96
:1020B00018BF01200121B047002D284618BF01207C
:1020C0000121B0472868002818BF01200121B0472E
:1020D000688929680026084441792170807934E0B4
:1020E000002C20465B4E18BF01200121B047002D77
:1020F000284618BF01200121B0472868002818BFD2
:1021000001200121B04702F065F800F0DF000FE781
:10211000002C20464F4E18BF01200121B047002D52
:10212000284618BF01200121B0472868002818BFA1
:1021300001200121B04702F07BF801F0030121707A
:102140008179A170C179E170007A607074E6002C29
:102150002046404E18BF01200121B047002D2846DF
:1021600018BF01200121B0472868002818BF0120AE
:102170000121B04702F05CF86170817901F0030140
:102180002170C179A170007AE07055E6002C2046DC
:1021900018BF012001F072FF68892968084441795D
:1021A000827941EA02212183C179027A41EA02213E
:1021B0006183417A827A41EA0221E18339E0002C8D
:1021C0002046244E18BF01200121B047002D28468B
:1021D00018BF01200121B0472868002818BF01203E
:1021E0000121B047688929680A220844411D204618
:1021F00000F03EFE00261FE620462946012202F09E
:1022000025F8F7E7204629460022002602F01EF8AE
:1022100012E628680078800617D411260CE6002CF8
:10222000204618BF012001F029FF6889296801F0C4
:1022300028FFC17A027B002641EA0221E180417B2E
:10224000807B41EA00202081F6E52046294602F005
:102250002BF8CFE77132020810B504460E2A07D0DA
:10226000092A15D0082A2CD102F03CF803D028E026
:1022700002F03CF825D104F14A0002F03BF80120BD
:102280000921002284F84501204602F036F818E0C2
:1022900004F14A0002F02EF802F04EF894F84601DC
:1022A00000F0FE00022804D194F95100B0F1FF3F84
:1022B00003DD204601F0A0FB03E02046012101F0F0
:1022C000F9FD002010BD002300F09ABA9AF83402FC
:1022D00000287047F8B50E46B0F8DE110446378B7B
:1022E000B94288BF07F58037C28A384601F012FE2E
:1022F000054694F83102C4F870710A2804D1D4F864
:10230000D40108B102F01CF894F830020A2804BF86
:1023100004F5E67000F094F901F0E4FF0FD1B4F891
:10232000DE01381A00B2012803DB47F6FF7188424C
:1023300008D120462821282500F06AF800E0002571
:102340002846F8BD2046022101F0F8FD04F5BA70D8
:1023500031462C2200F08CFD94F830020A2806D178
:102360000B2084F88A01012084F8300202E0012069
:1023700084F8310200206901A4F8E001D4F8D0010A
:1023800001F000FBB4F88E112046BDE8F84001F0E2
:10239000DBBFF0B40246106895681318506803EB71
:1023A0005004C00748BF4D44A3422DD013F8016B21
:1023B00016F0030004BF13F8010BC01C31090F29EC
:1023C00007D113F8011B0F3103E013F8017B05F867
:1023D000017B401EF9D10029E6D013F8010BC6F3AA
:1023E0008106032E08BF13F8016B00EB0620404264
:1023F00028440026B71E8F421EBF10F8017B05F847
:10240000017B761CF6D1CFE7F0BC02F10C007047DF
:102410002DE9FF470028064618BF01208846012104
:10242000012700F025FFD6F8C0014FF00009B6F8EB
:10243000E2A18DF80F70CDF8089001F0F9FF0528A2
:1024400007D0D6F8C00101F0F3FF0638B0FA80F0EB
:1024500047095A4C38460121A047D6F8C401002844
:1024600018BF01200121A047D6F8C40101F0F2FFF6
:10247000D6F8C0010021C6F8C49102F05BF9B0FAA9
:1024800080F001214009A047D6F8C801002818BFF4
:1024900001200121A047304602F098F996F8300259
:1024A000102804BF002002F0B9F902F0E5F996F80F
:1024B0002320012A06D1717901F0C001402908BF0B
:1024C000012815D00020012133460090012002F0A0
:1024D000D9F9074600286CD102AA02203146002310
:1024E00002F0CCFA0298B0B100688DF80F000BE052
:1024F0000DF10F0303200121324602F08DFB074648
:10250000002856D19DF80F00C10704D1C1B20120A7
:10251000012202F00FFC0024DFF8A490ADF806A021
:102520000D20002186F842428DF8044001AF3A4662
:102530004B4602F01BFC012000213A464B468DF829
:1025400004000E2002F012FC504602F033FC1D4F36
:1025500038783D46013805F8080B032002F04CFCA2
:10256000286898B1418851450CD1B968814204BFAF
:10257000C16AB9600CB1C16AE162C56A02F03EFC91
:102580002846EEE700F12C050446E9E7032002F0B7
:1025900037FC0D4B022000213246002702F0E6FBFB
:1025A0000A480068836823B100205146424600274C
:1025B0009847384604B0BDE8F08700BF7132020882
:1025C00045D0050828D100202B3F02089CD30020CD
:1025D000052280F8312290F8342212B990F826238F
:1025E00012B10978FFF714BF097880F83712D0F8D4
:1025F000C411014802F006BCABF40508B0B50028D0
:10260000044618BF0120012100F032FEA07B4007E4
:102610000CD42068002818BF01200121012500F0FA
:1026200027FE2068083802F0E9FB00E0002520467C
:1026300002F0E4FB2846B0BD0AF5E67000F000B8F1
:10264000B0B50446006801F039F90546206802F08B
:10265000E4FB002128432160B0BD012100F008BE49
:1026600000EB400009F1020118220AEBC0003A30E9
:1026700000F0FEBB9AF8310200287047F8B5044616
:1026800090F83402012858D1B4F8DE010D460988CB
:10269000081A00B2012803DB47F6FF71884209D10E
:1026A00094F83902012801D1002604E020462821AF
:1026B000282514E0012694F84502012812D194F847
:1026C0003A0294F8431201420CD0A81C00F09AFB85
:1026D00094F84412884205D220461A211A25FFF7A1
:1026E00097FE2BE01EB3B4F8DE112E88B14288BFEE
:1026F00006F58036E28A304601F00CFC074604F508
:10270000BA7029460822C4F8706100F0B1FB204677
:10271000032101F013FC02200025790184F8310225
:10272000D4F8D001A4F8E05101F02CF906E004F14E
:102730003000A91C052200F09BFB00252846F8BDAF
:1027400070B58EB00D46044602F072FB88B301F0FE
:10275000C9FD36D1AA20072184F82302204601F0C2
:1027600005F8286905F1080102F06AFB04F20A2065
:10277000294601F0BFFD287D042184F81202687DFE
:1027800084F8130201AD284602F061FB0646C8B981
:1027900004350821284602F05AFB064690B90198F4
:1027A0002946082202F058FB01A8002621460422EF
:1027B00004E01A26284621460D222E70FFF783FDDD
:1027C00000E0002630460EB070BD10B5044690F80B
:1027D0003002072811D1AA20082284F8230201C957
:1027E00002F03AFB04F5FA7004F20A21024602F004
:1027F00039FB044602F051FB00E00024204610BDE6
:102800002DE9F0470C46324980460020994615468E
:1028100002F050FB064638B92E490020002702F08E
:1028200049FB0646002850D0022D05D1608B00EBF5
:1028300080004FEA801A09E02748B9F1000F82466C
:1028400022D0D4F8CC01012100F024FF2220C4F8CA
:10285000584184F83702012084F85C01D4F8CC0197
:1028600010B14FF0000911E01C4804F5AC720021D2
:102870004FF0000902F04CFB0028C4F8CC0118BF4F
:102880000120FFF7EAFE01E04FF00109284641462A
:10289000324602F081FB112D18BF0D2D04D1D4F862
:1028A000D40108B101F04CFDD4F8C40131462A46E8
:1028B00002F056FE074602F0F0FAB9F1000F04D11B
:1028C000D4F8CC01514601F05DF83846BDE8F087F8
:1028D00084CA00207CCA002000881300B9F50508CE
:1028E0000AF5EA70FFF7ACBE00208AF837028AF8D2
:1028F00030027047B0B5054690F8310290B995F8AE
:10290000260201280ED1002029460B2201F0B2FB3D
:10291000082085F8310285F82202D5F8D80100F0A8
:10292000CDFF00E01A242046B0BD8268521C8260B0
:10293000426832B10268531C036011704168491E3D
:10294000416070477CB5044690F830020D4603287C
:1029500013D101F0F1FC002084F8370284F8300232
:102960000F48006806697EB1B4F8E21168882B88C8
:102970002A7900900020B04706E094F8480018B982
:102980002046002102F030FE287984F8480028888B
:10299000A4F844006888A4F8460000207CBD00BF6D
:1029A0009CD300209AF8340201287047B0B58EB04D
:1029B000082831D20D46214902F02DFE2CD0B4F862
:1029C000161368884843A98801314843E98801EB18
:1029D00081014900B1EB400F21D9D4F8D40108B1ED
:1029E00001F0AEFC01F082FC1BD0002004F5BA71AE
:1029F0002C2284F890016888A4F87E012888A4F825
:102A00007C0101AD02F00BFE284621461022FFF7A3
:102A10005AFC02F007FE00E002200EB0B0BD12200A
:102A2000FBE70B202946A873B4F88801A881B4F805
:102A3000E2010EB0BDE8B04001F0AAB834D10020E8
:102A4000BCB5044690F83002062801D1122905D100
:102A5000002021461322FFF736FC17E001F06CFC42
:102A6000D4F8D801002584F8375200F027FF01A9D7
:102A7000204600F073FF0199D4F8D801490100F015
:102A800081FF0B2084F8305284F86C010020BCBD1B
:102A90002DE9F04F85B0044640F23A2390F8450105
:102AA00094F8345204F54C7704F5D779002D08BF1B
:102AB00040F23B23E35C5B0803EB830C40F23B23D7
:102AC000002D08BF40F23A23B1F804804E880D88EB
:102AD000E35C5B0803EB830307EB430ECB8840B159
:102AE00094F84B00000744F2902058BF40F648008D
:102AF00001E040F64800B042314637F81CA0BEF86D
:102B000002B038BF0146B6F5A47F38BF4FF4A471B8
:102B1000984228BF1846B3F5A47F38BF4FF4A4707D
:102B2000FB26FB2D28BF35461B231B2D98BF1D46BA
:102B3000B8F1FB0F38BF46461B2E98BF1E4694F8CF
:102B400030320292092B04D094F83332002B00F07B
:102B5000928094F832224F4688468146012A04BF6B
:102B6000002284F8322203A8394601F0C3FBB4F8EE
:102B7000AC014FF42961404538BF8046B4F8A80144
:102B8000A4F8B681484538BF8146B4F8A601A4F838
:102B9000BA91B04238BF0646B4F8AA01A4F8AE61B3
:102BA000A84238BF0546A4F8B2514FF42960B9F5E0
:102BB000296F88BF494694F83B32A4F8BC1194F8B9
:102BC0003A2240F2E245042B4FF4747318BF494691
:102BD000A4F8B01103EB86139BB28B4238BF1946A1
:102BE0000BEB0A031944E38A6B43591A38BF0021DF
:102BF000414528BF4146B1F5296F98BF0146A4F869
:102C0000BE11A4F8B811042A18BF4146A4F8B411A3
:102C100003A80822394602F00FFD064694F8300258
:102C2000092802D10298142805D120461521002236
:102C300002F05CFD06E001F07FFB002084F8370223
:102C400084F830029EB1D4F8C40100F0FFFB2B4899
:102C50000068456B5DB1B4F8AE31B4F8B421B4F896
:102C6000B211B4F8E201B4F8B0410094A8470020D2
:102C700005B0BDE8F08F4FF474724F4602EB851338
:102C80001FFA83F8414538BF884602EB8611A4F845
:102C9000AC8104F5D5721FFA81F96FF00E01484539
:102CA00038BF814601EB980001EB9901A4F8A89187
:102CB000FC29A4F8AA01A4F8A61124BFFB21A4F8BA
:102CC000A611FC2824BFFB20108094F82703C0071E
:102CD0000BD1019202F024FD01287FF444AF04F5EA
:102CE000D671019802F022FD3DE7B4F8B401A4F8D2
:102CF000AC01B4F8B201A4F8AA0134E79CD30020D7
:102D0000B0B581EA112590F8A02190F8A131C1F366
:102D100007242D0608D1042C06D80125A54015F05E
:102D2000160F18BF9A4224D1194022400DD0D30764
:102D30004FF0010308BF0423920748BF022390F815
:102D40003A229A1A18BF1A4600E0002280F8A02101
:102D500069B1CA074FF0010208BF0422890748BFC2
:102D6000022290F83B12511A18BF114604E00021CC
:102D700002E0002180F8A01180F8A111B0BD70B56B
:102D80008EB00446D0F8CC0108B101F0D5FA94F821
:102D9000A00110B994F8A10158B102200921A4F8AA
:102DA000A201204601F0CAF8012084F842020EB0C8
:102DB00070BD002604F5D071062284F84262A4F8A2
:102DC000A26101AD02F02BFC284621461822FFF734
:102DD0007AFA94F8A401012809D194F83A1294F8E7
:102DE0003B222046002300F079FE84F8A46194F889
:102DF00031020C2804BF002084F83102002084F83E
:102E00003702D4E7052102F09FBC10B5044690F8C4
:102E10003402012804BF112010BD88B902F0BCFCA7
:102E200004D102F0BDFC02F0B7FC14D004F53A70F6
:102E30000021022904D0425CFF2A03D00131F8E7C7
:102E40003A2010BD6018022280F8E82200200229F2
:102E500008BF3A2010BD2046032101F06FF8002082
:102E6000022184F8370284F8301284F87B1110BDF7
:102E7000F0B5EAB102F097FC38BF1546042A28BF26
:102E800025462E1F01F0030418BF2E469C4211D187
:102E9000A2EB060C04228C198319F6B200279CFBC6
:102EA000F2FEBAB2B2420DD28D5C01378554F8E71A
:102EB0000020F0BD00231404FBD0CC5C013AC454C4
:102EC0000133F8E71FFA8EF100268E4205D254F83E
:102ED000262043F826200136F7E7074901EA8E024B
:102EE000A11813440CF003020024A242E1D90D5DA5
:102EF0001D550134F9E700BFFCFF03002DE9F04345
:102F000093B00446B0F8A40200271297002800F0FE
:102F1000228194F8A702002800F01C8191F8230078
:102F200000270D46042800F21681012101FA00F065
:102F300010F0160F00F00F819B4F40F6091005F1BD
:102F4000240606223146388502F034FC97F8361004
:102F500095F821003F62012987F8250087F82600AF
:102F600007D10020002102F02DFC8F48076A90F85D
:102F7000260085F821003046394602F0C1FD95F85B
:102F8000211095F820002B69324602F0C1FD07465A
:102F9000002840F0E08012A802F0E6FD0746002875
:102FA00040F0D980129A002A00F0D48095F83000C1
:102FB000F8B17E4802F03CFE002800F0B780002106
:102FC000102207464FF00008FEF798FE784802F0FE
:102FD00031FE0028386000F0B78012988DF82B8001
:102FE0008DF822803946C0F8FC7104A802F029FE51
:102FF000129A70480021002701F08AFF12990028D8
:10300000C1F8B40018BF0120FFF727FB94F8A712FE
:10301000881E022803D2129880F8227005E0012948
:10302000129804BF012280F82220B4F8A2228283E1
:103030000022032938BF012280F82920B4F8A41205
:103040004FF49672C18394F8A61280F82110298853
:10305000A0F85E10A979C90708BF1E22AB885343A8
:103060004FF49671C0F89030AA79970742BF03F5E4
:103070001612C0F89020AA792B89D207C0F8B83070
:1030800008BF1E21A0F894107C30052205F10A012A
:10309000FFF7EEFE95F82000D5E90437B5F81EC01D
:1030A000B5F82AE0B5F81C8000F00F01129890F8EE
:1030B000202002F0F00202EB01092A8BE97BC0E933
:1030C0001D73A0F85C80A0F862E0A0F860C080F8F2
:1030D000209080F8A010A0F8BE2095F8211095F857
:1030E000222080F864200176314602F009FD95F82F
:1030F0002300012101EB5000129981F8BD0001F17C
:10310000A10000F07BF8074628BB95F8300030B3EB
:10311000129A82F8E800E96AC2F8E41095F83110D2
:1031200082F8E910698EA2F8EA1019E012980121DC
:103130000822002780F8BC10E4300021FEF7DEFDF5
:10314000129801F05BFE06E0384601F057FE129837
:1031500001F054FE0027384613B0BDE8F083129A00
:10316000022182F8BC1095F8231082F8A210D4F83E
:10317000C411916540B110480027104BCDE90027DC
:1031800002904FF4000007E00D480C4B0027CDE9FA
:10319000002702904FF00040002102F085FD1299B7
:1031A000C1F8AC00D7E700BF9CCF002034CA002094
:1031B00084CA002015EE05081DC8050801ED0408A5
:1031C00025A5050810B590F8343240F23522012BC0
:1031D00008BF2122845C0B789C4218BF8354064AA6
:1031E0001268536833B10A78B0F8E2110020BDE8E4
:1031F0001040184710BD00BF9CD3002010B5002818
:10320000044618BF012002F047FF024800792070F1
:10321000002010BDC4D1002070B5044600F5E67052
:1032200016460D46FFF70CFA00201A2D84F83702D7
:1032300084F8300209D01DB920463146FFF7C2FF9D
:10324000284601F0EBFA002070BD0848006843688A
:1032500023B1B4F8E21111200022984794F84D00F0
:1032600000F0FB0084F84D001A2070BD9CD30020B4
:10327000012908BF02F017BF70470968D1F888100C
:10328000002970472DE9FF410A9C16460F46054666
:103290000021082298468DF80F4001A8FEF72EFD68
:1032A0008DF80650ADF80470DDE90B578DF80880F5
:1032B0008DF807606EB97F2C0BD00DF10F01204601
:1032C00002F026FF9DF90F40152CA4BF14248DF8A1
:1032D0000F4007488DF80B708DF809508DF80A40A3
:1032E0000068D0F8881001A88847BDE8FF8100BFBA
:1032F0009CD30020F8B5F8B10446002908460D46D5
:1033000018BF0120FFF7A9F900F0ECFF41D12878A0
:10331000012807D86978A878814203D8052901D304
:1033200097280BD328202146072200230026287047
:103330002846FFF765FA2DE002262BE004F2F62678
:1033400029460322304602F077F910B32878012885
:1033500030D1B4F8F00250B194F8F72269788A427B
:1033600005D002F0E9FE38BF871AA4F8F072307871
:1033700090B994F8F40201280ED1A978E08A01EB03
:10338000810100EB4111013991FBF0F0A4F8F20248
:1033900010E000263046F8BDB4F8F20250B194F8BF
:1033A000F822A9788A4205D002F0C6FE38BF871AF3
:1033B000A4F8F272304629460322FFF759FD204651
:1033C000BDE8F84002F0CCBE024A1044007B084041
:1033D000704700BF45070020B0B58EB007280AD857
:1033E0000C46194951F820502DB1D5F8C00101F013
:1033F0001FF8042802D102200EB0B0BD95F82703B3
:1034000081071ED440F00200102185F87441C5F8F0
:10341000505185F8270395F8300285F8541110B9FA
:10342000052085F83002002085F837428DF80440E9
:10343000294602220123A5F8E00101A8FFF7E0F9DF
:10344000DAE70020D8E700BF34D10020D0E9261207
:1034500081F08001114318BF70470249496A896BA6
:10346000084700BF54CF00200068D0F8B0100029F2
:103470007047ADF85E009DF826008DF86200704739
:10348000F8B5064600200F461C4615468DF8030089
:103490008DF80200002A104618BF0120FFF7DDF862
:1034A000002C204618BF0120FFF7D7F80DF10300CC
:1034B0000DF1020102F070FE9DF902107F2F10D075
:1034C000B81940B288420CDC9DF90310884208DB31
:1034D0000021012202F070FE0449096801EB80001E
:1034E000C178881B29702070F8BD00BF9CD20020D5
:1034F0007CB500260D46044600288DF807608DF83F
:10350000066018BF0120FFF7A8F80DF107000DF1C4
:103510000601267002F040FE9DF80710E8B28142D5
:1035200002BF217841F0010121709DF8061081420F
:1035300002BF207840F0020020707CBD70B590B0D2
:10354000002804460D4618BF0120FFF786F8002D1D
:10355000284618BF0120FFF780F894F8CC0230B15C
:1035600094F8450128B194F84E00800701D41A2040
:1035700028E094F8CB0298B194F8D00280B91248B0
:1035800000F0A0FA0CD095F90300B4F8E2112A7803
:103590006B78AE788DE8450000200022FFF772FEC0
:1035A00002F0FAF801D03A200CE016202946042255
:1035B00084F8300203AE02F02FFE30462146252269
:1035C000FEF781FE10B070BD9CD300200248007C45
:1035D00000F04000704700BF45070020B0B501462D
:1035E000008940F6774312220A3898424FF01200C1
:1035F00038BF00204B885C1EB4F5FA7F28BF104608
:103600000C88651EB5F5FA7F28BF10468D88B5F584
:10361000FA7F28BF1046C988B1F5FA7F28BF104647
:1036200001355D43B5F5FA7F88BF1046A34238BF28
:1036300010468B4298BF1046B0BDB0B5B0B104463D
:10364000002908460D4618BF0120FFF706F800F0D4
:103650004DFE18D194F8F602012814D10020002163
:103660000A2805D02A5C01301143F9E70220B0BDD9
:1036700049B104F2F920294602F0D1FD2046BDE807
:10368000B040FFF7C2BB0020B0BDBAF8E211002085
:1036900001221847B0FA80F04009FFF7E9BD0AF5AA
:1036A000B472002101F034BC7FB5064600290846FB
:1036B0000D46144618BF012002F0DFFD002C204605
:1036C00018BF012002F0D9FDB5F8E2018DF80E60B7
:1036D000ADF80400A08BADF80A00E08BADF808004F
:1036E000208BADF806002089ADF80C000348006877
:1036F000D0F8901009B101A888477FBD9CD3002065
:103700001CB50028044618BF012002F0B6FDD4F80D
:10371000C801002818BF012002F0AFFD0DF107001D
:10372000FFF76CFD9DF8070002F0AAFD618B642293
:10373000484301EB8101B0FBF2F07D228000B0FB39
:10374000F2F000EB8111D4F8C80102F0A7FD1CBD16
:10375000044BDB780370044803780B7040781070DA
:1037600000207047C4D100204507002010B5044652
:10377000222084F83702082084F831120121C4F88D
:10378000604184F86401D4F8D401FFF783FF0A484C
:1037900004F5B072002101F0BBFB0028C4F8D4018D
:1037A00018BF0120FEF759FFD4F8D4010349BDE842
:1037B000104000F0E7B800BFB9F505080088130015
:1037C0002DE9F0410446D0F8C401D0F88060032010
:1037D00001F012FB01202449E6B1B27B920709D522
:1037E000728933681A441579182D03D800FA05F246
:1037F0000A4201D17668EFE72046012102F063FD1D
:10380000B4F8DE718046182D06D0012D06D03DB9E2
:1038100009250AE01F2420E0022506E0052504E032
:10382000002001210025FFF723FD3068474428448C
:10383000390A4771306828448171D4F8D00100F00A
:103840003DF8B4F8DE11B8B2E28A00F063FB410142
:10385000D4F8D00100F096F80024032001F0D0FA4B
:103860002046BDE8F08100BF03000001B0B500288C
:10387000044618BF012002F053FD0F4D02F053FD26
:10388000D4F8801099B1204650F80C2F12B994F852
:103890008820227502F04CFD0120D4F8841084F8B1
:1038A00088000020C4F88000C4F8840021612868E2
:1038B00002F054FD0020B0BD8CD30020F8B12DE9FA
:1038C000F041867D0446012E02D1E07DC00701D083
:1038D0000220A0750020A060A08A00F00100A08254
:1038E00002F042FDDFF86C8002F066FD1A4F3D6881
:1038F00065B102F067FD012804D1022005E04FF018
:10390000FF307047786818B90020A8477868C0B1C0
:103910002168884208BF002E15D1C17DC9070DD08E
:10392000818A02F05BFD09D301F03F01836841EA1F
:10393000C2210133836001F50061818202F057FDED
:1039400001E002F071FDD8F8000002F007FD002050
:10395000BDE8F0818CD300201CD30020B0F8DC211E
:10396000C08A00EB800002EB8202800800EB40007E
:103970005200A2EB4003B2EB400F38BF05230020FA
:103980000B607047F8B50446C8430D460021C00FD0
:10399000FFF76EFCF4B1A07DE0B1154E4FF0FF31A2
:1039A000306802F047FD02F0DFFC20462946A77D83
:1039B00002F046FD0F4DD5E9001021B1A04202D121
:1039C000012088476868A04207D1012F05D002F086
:1039D0000EFD07E04FF0FF30F8BDA04202D1E17DBF
:1039E000C907F4D0306802F0B9FC0020F8BD00BF70
:1039F0008CD300201CD3002070B50028044618BFCB
:103A00000120FEF72AFE94F8460118B1022804D1DD
:103A1000062500E00525002600E0012694F9511056
:103A2000002907D404F152000021F022FEF766F9C4
:103A300094F8460100F0FE0000210122023884F8CB
:103A4000371284F84521B0FA80F0400984F8440127
:103A500016B184F8301270BD042084F85C51C4F8AB
:103A6000584104F5AC7184F830020220BDE8704082
:103A700002F036BD9DF823209DF820107047BCB59C
:103A80000028044618BF0120FEF7E7FD01AD002124
:103A900002222846FEF732F9284602F04BFD94F93F
:103AA000C612C8B258B19DF905209DF904301A44D8
:103AB000B1EB620FC6BF5110401A002000E0FF209A
:103AC000C0B2BCBD0068D0F8880000287047BAF8C2
:103AD000E031BAF81620BAF8E211704710B5144672
:103AE0000A460A490968D1F838C0BCF1000F08BF7E
:103AF00010BDB0F8E211042A08BF03221846042CB6
:103B000008BF03242346BDE8104060479CD3002033
:103B100070B58EB0002804460D4618BF0120FEF790
:103B20009CFD681EC6B200200A2E38BF0120FEF799
:103B300094FD6EB194F855038DF805508DF804008E
:103B400075B101A8002118220230FEF7D7F811E064
:103B500002F0F3FC84F855038DF805508DF804004D
:103B600001A8861C2846314602F010FD2846314641
:103B700002F028FD01A821462C22FEF7A4FB0EB07E
:103B800070BD9AF83A129AF83B22504600237047CB
:103B9000F0B58DB008282DD20D466C4901F03BFDE3
:103BA00028D06B486B49006889680844C0EB401115
:103BB00001EB900294F8340240F23B21002808BF48
:103BC00040F23A21615C490801EB810304F54C7134
:103BD00001EB43039E88B24288BF164640F23A2268
:103BE000002808BF40F23B2240B13A26012808BF16
:103BF000112600E0022630460DB0F0BDA25C52084E
:103C000002EB820231F8127094F830120A2918BFC0
:103C10000029EAD194F84A0080070CD402F0ECFCA9
:103C2000B1B240F2E2423944084429885143884203
:103C300001D91226DFE704F5BE7029461022C4F828
:103C40005041FFF715F994F83A02042803D094F88C
:103C50003B0204281ED1B4F8AE114FF47472B0B216
:103C6000384402EB8111B4F8BC21914238BF0A46B6
:103C7000B4F87E11104440F2E24200F5296001FBE5
:103C800002F3834208D2B0FBF2F1A4F87C11A4F84D
:103C90007E1101E0B4F87E11204600F055FB064687
:103CA0000028A8D1052084F89001A87B0B283CD1DE
:103CB000B4F87E014FF6FF71A4F88E01A8898842FE
:103CC00030D0B4F88C11D4F8C40102F09FFC064641
:103CD000B4F88E01E18A814227D1B4F88001B4F8AA
:103CE000E011814221D1B4F88201618B81421CD163
:103CF000DEB194F831020A280CD1684621460D2223
:103D000000238DF80060FEF77BFDD4F8CC0108B1EC
:103D100000F012FB002084F88A0184F83702A4F82E
:103D2000300268E70020A4F888012046022100F054
:103D300005F994F8310201281CBF012084F83002F3
:103D40000120002684F88A0155E700BF34D1002005
:103D5000DC020020A4CA00202DE9F84F044690F8A8
:103D600034028A4640F23A2104F54C72002808BF1A
:103D700040F23B21615C490801EB8101002832F8E7
:103D8000118040F23B2108BF40F23A21605C4008BC
:103D9000514600EB800002EB40002C22878842480D
:103DA00086684248056804F5BA70FFF761F8701933
:103DB000C0EB401101EB9000B84288BF0746B4F851
:103DC0007E01E18A81420ED1B4F88001B4F8E0119D
:103DD000814208D1B4F88201618B814203D194F809
:103DE0009C01002854D020460A21FFF7BFFCB4F8FC
:103DF000AE21B4F8B2114546BAF80CB0BAF8086072
:103E0000BAF80A90BAF80E80204600F0BBF8B9B2B2
:103E100040F2E2421E2729440844BAF808105143F0
:103E2000884298BF4E4507D9B4F8E201F9B202F0D2
:103E3000F5FB3846BDE8F88F4FEA9B007C28F3D8A5
:103E4000B11F40F67A408142EED8A9F106018142C5
:103E5000EAD8A8F10A0040F676418842E4D814482E
:103E60000068066B96B10A2084F83102B4F8E201CA
:103E7000BAF80C30BAF80A20BAF80810BAF80E509E
:103E80000095B04707460028CED10AE01A27CBE7B5
:103E90000A2004F5BE7184F83102B4F8E201FEF79D
:103EA00085FD0027C5E700BFA4CA0020DC02002072
:103EB0009CD3002070B58EB0002804460D4618BF74
:103EC0000120FEF7CAFB681EC1B200200A2938BFD4
:103ED0000120FEF7C2FB94F855038DF805508DF8CC
:103EE000040001A8861C022D05D3304600211822AB
:103EF000FDF704FF07E02846314602F047FB28465D
:103F0000314602F05FFB01A821462B2202F0ACFBF8
:103F10000EB070BD401A5108504301EB810100EB17
:103F200080008008A0EB9100704728B10068401A1B
:103F3000B0FA80F0400970470020704710B5044681
:103F400080F8541190F83402013818BF282084F802
:103F500037020121C4F85041D4F8D001FFF79AFB91
:103F6000074804F5A872002100F0D2FF0028C4F829
:103F7000D00118BF01200121BDE81040FFF778B93A
:103F8000B9F505082DE9F047054690F8266290F846
:103F90003A0214464FF6C079B5F8B081B5F8B4715D
:103FA000042817D002280BD001281FD109EBC1002B
:103FB000C900002E08BF00F1200101F1700A25E0C0
:103FC00009EB81008900002E08BF00F1300101F1EA
:103FD0003C0A1BE0B5F83C0201280ED10801002E76
:103FE00008BF09EB011000F20E2A0FE000200121AA
:103FF0004FF0000AFFF73CF908E08A016FF0FF007C
:10400000002E08BF00EB811202F5747A95F83B028E
:10401000042817D002280BD001281DD1E10009EB9C
:10402000C400002E08BF00F1200101F1700415E06A
:10403000A10009EB8400002E08BF00F1300101F15E
:104040003C040BE0A1016FF0FF00002E08BF00EB65
:10405000841101F5747401E002F009FB1FFA8AF083
:10406000A1B2874238BF3846884538BF4146084428
:10407000BDE8F08700230024FEF7C2BB0121FFF753
:10408000F7B808444179827941EA02212180C17957
:10409000027A41EA02216180417A827A41EA022170
:1040A000A180704770B502F0E7FA18BF0120FFF752
:1040B000E5FF2868002818BF0120FFF7DFFF6889A7
:1040C000296802220E1816F8050F717840EA0120BF
:1040D0002080B078F17861F30C20A179A080F0788D
:1040E000400960F30001A17101F0FD01F07802EADE
:1040F000501005220844A0713079717940EA0120FE
:10410000B11D208104F10A00FEF7B2FEA07B00F091
:104110001F014009A173E073F07A317B727BB37B9E
:1041200000F08CF8F07B317C727C02F0A9FA062258
:104130006061B07CF17C40EA01202083307D717D9C
:1041400040EA0120A083B07DF17D40EA012006F124
:104150001A01E083307E00F00F0084F82000307EEA
:10416000C0F3001084F82100307E400984F822005A
:10417000707E84F8230004F12400FEF779FE96F89F
:10418000200096F8211040EA01202968608568899E
:1041900008440021007984F830102A2819D196F8B3
:1041A000220096F8231096F8242096F8253002F085
:1041B0006CFA96F8260084F8300096F8270084F808
:1041C000310096F8280084F8320096F8290084F827
:1041D000330070BD6889296800260844407970471B
:1041E00008444179217081796170704770B5002869
:1041F0000E4E04460D4618BF01200121B047002D88
:10420000284618BF01200121B0472868002818BFA0
:1042100001200121B047688929681822FFF7E0FFD3
:10422000C11DA01CBDE87040FEF722BE713202081D
:1042300068892968002608444179704740EA0120CE
:1042400040EA024040EA03602061704770B50446CE
:10425000002908460E46154618BF0120FFF70EFF3D
:104260003068002818BF0120FFF708FF7089316807
:10427000012D084410F8051F427841EA02212180EF
:1042800006D18178C27841EA02216180042100E0F0
:104290000221425C41F0010102F00702A271405C80
:1042A00000F01F00A08070BD70B500280C4E0446C1
:1042B0000D4618BF01200121B047002D284618BF28
:1042C00001200121B0472868002818BF01200121E2
:1042D000B0476889296808448078207070BD00BFA5
:1042E0007132020894F834020128704794F83402BD
:1042F000002870470822FEF7BBBDF0B58DB06F46B1
:104300000D46064600201446394602F03FF90020CB
:10431000394602F057F9092D06D196F84A009DF862
:10432000001008408DF80000684631462A462346B2
:10433000FEF766FA0DB0F0BD04F5E670FEF780B941
:1043400004F5EA70FEF77CB92DE9F041002867D04A
:10435000354A364B4FF4747E00F54C7712689B68F3
:104360001A44C2EB421303EB920CB0F8AE310EEBE1
:104370008314B0F8BC319C4238BF234690F83462B5
:1043800040F23A24002E08BF40F23B24B0F8B2516C
:10439000045D04EB840437F814800EEB8514B0F848
:1043A000B851AC4203EB080228BF2C46224440F22D
:1043B000E244614340F23B246244002E08BF40F2D5
:1043C0003A24B0F8BE61045D914204EB840407EB2B
:1043D0004404678802D2B5F5296F01D8AE421CD0DB
:1043E00008EB07021A446244891A4FF42962B1F5B6
:1043F000296F98BF1146B14228BF3146A0F8B611C7
:10440000B1F5296F88BF0A4690F83A32A0F8B82172
:10441000042B18BF0A46A0F8B4210020BDE8F081A3
:104420000220BDE8F08100BFDC020020A4CA002009
:1044300080B50749CA1C904204D30D3188429CBF05
:10444000007880BD00200121FEF712FF0E2080BD04
:1044500000D300202DE9FE4F05460F2002F01DF984
:10446000002D284618BF012001F05AFFDFF8B8A23E
:104470000420D5F874B085F8A000DAF82C0020B13B
:10448000FFF71CFA08B11F2715E1D5E9269616F0AB
:10449000280F08D0DAF82800A84204D1002085F8B7
:1044A0009100CAF8280002F0FAF8284602F0FAF85B
:1044B000DAF82800D0B190F89110012916D1D0E98E
:1044C000261281F08043134303D189F00053334314
:1044D00007D082F00102114308D189F00041314335
:1044E00004D14FF001080146009009E0A84250D1E4
:1044F00095F8911001294CD100214FF0000800914E
:10450000042180F8A0109AF83800884901F1404150
:10451000013001EA09018AF83800022005303040F4
:10452000401818BF02F0EAF819F4200F03D04846EB
:10453000314602F0F9F802F05FF9284602F062F91C
:1045400002F06EFB029002F07DFB019002AF01AC25
:1045500095F89100012802D1029870B91CE0DAF8B0
:1045600028000028014618BF012118EA010F15D0C4
:1045700090F89110029891B188B1002002F078FB78
:1045800010B1002002F07EFB3846214602F09EFB6F
:10459000DEE702F031F928E0002000E00298002870
:1045A00018BF012001F0BCFEB8F1000F1DD0DAF8F1
:1045B0002400009C016A20468847074600287AD1DB
:1045C000D4E9260180F0804008430BD1206F18B158
:1045D00000F014FC00202067E06F18B100F00EFC22
:1045E0000020E067204602F083FB09F0005006F04F
:1045F0000204001903D0DAF82400806A804789F0A9
:104600000050304305D1286F18B100F0F7FB0020AF
:104610002867E86F18B100F0F1FB0020E86789F027
:104620008050304318D089F4800030430ED089F098
:10463000006030430AD089F40050304310D1E9685B
:1046400000200861296959B1C86009E0DBF854010C
:1046500030B10021016103E0286908B10020286120
:1046600002F01DF8DAF82400016A28468847074658
:1046700008BB284602F03CFB02F0BEF802F06AFBE1
:1046800020B9DAF82400006B8047B0B302F062FB77
:1046900010B9002002F062FB244800EA090000196A
:1046A00008D09AF8420001F03BFE9AF84200013827
:1046B0008AF84200002702F04DFB20B9DAF8240006
:1046C000006B8047B0B102F063FBDAF8240058B108
:1046D000C06A804740B9164882682AB18078C0070E
:1046E00002D00020002190470F2002F0ABFD384699
:1046F000BDE8FE8F02F0A8FDE7E700250026202E8A
:1047000009D00AEB0607786818B1083800F076FB84
:104710007D601036F3E70AF12C00FDF791FF0746A4
:104720000028C8D1B2E700BF54CF0020700000209D
:104730008CCA0020B0B5244B3022DC1CA0422DD303
:1047400003F10D04A04229D83022062926D8DFE83B
:1047500001F00423232525131F00027800210A2AD3
:104760001AD8012440F2724594402C421AD099780C
:104770000139997000210FE00178302206290DD807
:10478000012303FA01F111F0520F07D0052103E0D4
:104790000178052904D10621002201701046B0BD20
:1047A0003022FBE7022A08D0032AF5D103F10C01DD
:1047B0008842DCD100211970EEE703F10B01884239
:1047C000D5D100215970E7E700D3002010B5044689
:1047D000D0F8C80118B104F5E470FDF731FFD4F842
:1047E000CC0118B104F5E670FDF72AFFD4F8D40126
:1047F00018B104F5EA70FDF723FFD4F8D00118B121
:1048000004F5E870FDF71CFFD4F8D80128B104F5D1
:10481000EC70BDE81040FDF713BF10BD1CB5144C83
:10482000014600208DF8070022790AB1084621715F
:104830006278A178013A6270120608BF012900D09F
:104840001CBD0C490968D1F880200AB1E178904775
:1048500000202071A0700DF10700FEF7CFFC9DF83D
:104860000710E078884238BF02F0F3FC1CBD00BF9F
:1048700028D100209CD30020014890F83A007047CE
:1048800098CF00202DE9F04F87B098469246894690
:1048900080B1744F744E4FF0FF31B7F83CB03068C0
:1048A0007C8F01F0C7FD02F0E3FC48B302F0EAFCA4
:1048B0000C278BE06F49DDF840C051F8292001EB4F
:1048C0008901496850084B08B0EB510F1C466A49F2
:1048D00088BF5408D1F8F871D1F8FC618E460121E7
:1048E000984277D232460546202834BF3A46203DCA
:1048F00001FA05F562EA050201326DD10130EFE7F8
:1049000002F0C4FC02F0E4FC02F0E8FC05460528D5
:1049100003D102F0BBFC02F0DBFC97F8380004285E
:1049200010D102A944EA0B400DF11B020DF11A034C
:1049300002F0DAFC9DF81B009DF81A1002F0D8FC7A
:104940004A49487402F0CAFC012804D8022002F047
:10495000D5FC0746D0BB02F0FBFC0746B0BB0120EC
:1049600002F054FD424C4FF6FF71206869F30200DB
:104970002060606998F80520884398F8041008447E
:1049800040EA0220606198F8000098F8011098F859
:10499000022098F8033002F03CFDA06160696AF3E0
:1049A00010406061606B40F00200606302F03CFD0B
:1049B00040B902F03EFD606B20F0020060632846C3
:1049C00002F09CFC0746002002F020FD306801F058
:1049D000C5FC44E020460BE04FF4FE7120287446ED
:1049E00038BF4FF4FC715EF801202A434EF80120D5
:1049F000984203D102F026FD072730E0B9F1060FF7
:104A000002D1BCF1000F08D1B9F1040F18BFB9F100
:104A1000030F05D1BCF1000F02D041008CF800104B
:104A200098F8001098F8012098F8023098F80340A0
:104A3000BAF1010F41EA022141EA034141EA04616E
:104A40004EF830100EEBC00098F8041098F80520CE
:104A500041EA022108BF01F5803141600027384654
:104A600002F0F3BC18CC00208CD3002074D00020BE
:104A70003808024848F40508008002482DE9F04152
:104A8000072800F2BF800C469046DFE800F00419CA
:104A90002E43667B879B02F0DBFC18BF012002F0EF
:104AA000DBFC594E0027052F00F0AC802046314634
:104AB00002F0D5FC002800F0988044360137F2E778
:104AC00002F0C6FC18BF012002F0C6FC4E4E0027C3
:104AD000052F00F097802046314602F0C0FC0028E8
:104AE00000F0898044360137F2E702F0B1FC18BFCC
:104AF000012002F0B1FC444E454810F1440700F09B
:104B0000818002F0AFFC00283846F6D1F01900F59C
:104B1000B87075E0B8F1000F47461E4618BF012770
:104B2000384602F099FC384602F096FC364F384879
:104B300010F1440566D0384402F09BFC002828465A
:104B4000F6D1781900F5AA71002EC8F8001059D0D6
:104B500090F86D013070BDE8F08102F079FC18BF6B
:104B6000012002F079FC284E294810F1440549D073
:104B7000304402F07EFC00282846F6D1701900F57A
:104B8000AE703DE0204D0026052E3BD02046294644
:104B900002F065FC28B344350136F5E702F058FC15
:104BA00018BF012002F058FC174E194810F14405B7
:104BB00028D002F057FC00282846F7D1701900F5DC
:104BC000B2701DE01048002600F11C05052E19D01A
:104BD00020462946012200F02FFD10B14435013650
:104BE000F4E70A480670BDE8F0810A4880F83C7096
:104BF00006F1200004E0074880F83C7006F1300020
:104C0000C8F80000BDE8F08124BF00207E07002026
:104C100068FEFFFF98CF00202DE9F04F87B0424D8E
:104C2000994617468A468346AC8F6E8F02F027FC62
:104C300002F01EFB18B102F025FB0C246DE002F01F
:104C40004DFB8046052803D102F020FB02F040FB1B
:104C500095F83800042810D102A946EA04400DF165
:104C60001B020DF11A0302F03FFB9DF81B009DF89B
:104C70001A1002F03DFB2D49487402F02FFB012869
:104C800005D8022002F03AFB0446002845D102F084
:104C90005FFB0446002840D1012002F0B7FB244D01
:104CA0004FF6FF7155F8080C6BF3020045F8080C3D
:104CB000E8687A7988433979084440EA0220E86054
:104CC00038787978BA78FB7802F0A3FB2861E86835
:104CD0006AF31040E860286840F08000286002F025
:104CE000A3FBB0B9B9F1000F04D02868C0F30620C7
:104CF00089F80000286820F080002860A86B40F048
:104D00000100A863A86B20F00100A863404602F0F0
:104D1000F5FA0446002002F079FB02F0B2FB2046CF
:104D200007B0BDE8F08F00BF18CC002074D0002081
:104D30004008024870B50C4B062805D153F82100F5
:104D4000D24362F314500CE00125C0F1130053F874
:104D5000214005FA00F625EA0202B44302FA00F007
:104D6000204343F8210070BD048002482DE9F0473C
:104D700002F089FB07EB8700DFF834904FF0000A60
:104D800059F8206066B102F085FB0128FAD1D9F804
:104D9000540102F084FB4FF0010AB8F1010FF1D188
:104DA000032000F02DF85FFA8AF0BDE8F08700BF1D
:104DB000CCBD002070B5072819D80E4E044606EB6E
:104DC0008000C5689DB1D5F8EC0202F06FFBD5F804
:104DD000C40108B1FFF73EFB2846FFF7F7FC284661
:104DE00000F00CF806EB84010020C86070BD0220C2
:104DF00070BD00BF28D1002002F07EBB02F082BB54
:104E000002F078BBB0B50546002908460C4618BF2D
:104E1000012001F085FAA560B0BD80B518B1817D93
:104E200019B1FFF7EBFF002080BD4FF0FF3080BDD0
:104E30000248007B002818BF01207047450700206A
:104E40000822C4F8E40104F5FA70FEF711B880B541
:104E500002F082FB002080BDC4F8E80104F5FE707A
:104E6000FEF706B870B586B00D46014614461046EA
:104E700010221026FDF7FCFF012002210022002352
:104E8000CDE90026CDE90410CDE9020020462946EF
:104E9000002202F067FB06B070BDB0FA80F001217D
:104EA0004009FEF7E5B9FA00960064004B003200B5
:104EB0001E00140070B5054614480E4600F0B8FEFA
:104EC0000028044618BF01200121FEF7D1F97CB16A
:104ED000204600211022FCF711FF304600F0AAFE08
:104EE000206010B13088208103E02046FFF786FF64
:104EF000002405B16C6034B1206820B1083800216D
:104F00000822FCF7FBFE204670BD00BF34CA00201B
:104F1000F8B50746532016460D4601F0BEFB1A4869
:104F200000F086FE48B3044627B300200221266124
:104F3000C4E90000C4E90207A08AA175E17D00F080
:104F4000010001F0FC01A08205F001000F4D0844B2
:104F50004FF0FF31E075286801F06CFA0C4E3078A4
:104F600020B90C4802F086FD01203070286801F05D
:104F7000F5F903E02046FFF741FF0024532002F03B
:104F800061F92046F8BD00BF18D000208CD3002066
:104F9000ACD30020417F05082DE9FC41002A1746CB
:104FA0000E460446154618BF01273846FFF766F837
:104FB0002868002818BF0120FFF760F81F203C2C4C
:104FC00000F2C982DFE814F0A700C800DC00E300AB
:104FD0000A01260129012C013D0031013B013E015E
:104FE000410157013D00450045005C016401670136
:104FF00086008600A100A1006A0176018601950164
:105000009B01A201A701C702C702C702C702B001E4
:10501000C601E201000206021E02340250025702DB
:105020005A02C702C702C702C702C702C702C702A5
:10503000C702C702C702C702C702C702C70261028E
:10504000680228683146082204710530FDF710FF18
:1050500058E0002E304618BF0120FFF70FF82868EF
:1050600018270471317A4171717A8171B17AC171F5
:10507000F17A0172317B4172717B8172B17BC172B5
:10508000F17B017396F828104173317E8173717E34
:10509000C173317D0174717D4174B17F8174F17F81
:1050A000C17496F82010017596F82110417596F894
:1050B0002210817596F82310C17596F82410017698
:1050C00096F82510417696F82610817696F82710E6
:1050D000C17653E0002E304618BF0120FEF7CEFF08
:1050E000286804713178417171788171B178C1712A
:1050F000F17801723179417271798172B179C1723D
:10510000F17901730C200927F6E1286831684171B3
:10511000090A0471DAE0002E304618BF0120FEF7BC
:10512000ADFF286800210C270171317F4171317D6D
:105130008171717DC171B17E0172F17E4172317BED
:105140008172717BC172B17B0173F17B4173317EDE
:105150008173717EC17311E0002E30464FF001085B
:1051600018BF0120FEF78AFF2F68B11C052202F04C
:105170008EFC3078B8727078F8720827AF81BCE185
:10518000286831780227417107710420CAE0002E97
:10519000304618BF0120FEF771FF2F68032031460B
:1051A00008223871781DFDF763FE307D06F1080195
:1051B00008227873707DB87307F10F00FDF758FE71
:1051C0003069F8753069000A3876708A7876F07C34
:1051D000B876042017276881182019E0002E304681
:1051E00018BF0120FEF74AFF2F684FF00408311D59
:1051F000082202F04CFC306878733068000AB873FB
:105200007088F873F07838741020A5F80A800D279C
:10521000A88174E1286805216DE0286806216AE00C
:10522000286831784171072179E0286809273146DB
:10523000082207710530FDF71BFE0C205CE1286891
:105240000A2158E028680B2155E0002E304618BF8F
:105250000120FEF713FF28680C2106270171317920
:105260004171317881717178C171B1780172F178D1
:105270004172082040E12868317841710D214EE0EB
:1052800028683178727841711121827101711EE0B4
:10529000286812212FE0286813212CE02868316843
:1052A000182202710A0E417102720A0C090AC271B7
:1052B00081711FE1002E304618BF0120FEF7DEFE8F
:1052C0002868192101713178417171788171042048
:1052D000032727E0002E304618BF0120FEF7CEFE40
:1052E00028681A210171317821F020013170417153
:1052F00016E028681B2101710420012712E02846CE
:1053000031461C2202F0C8FB2327F8E028683178D8
:1053100041711D2103E02868317841711E2101711E
:1053200004200227A881E9E000208DF80500002E66
:10533000304618BF0120FEF7A1FE2F6823203871E8
:10534000307878717078B871B0787F2840F0AB8091
:105350007F20B2E000208DF80600002E304618BFF6
:105360000120FEF78BFE2F6824203871307800F082
:10537000030030707871B078B871F0787F2800F051
:10538000B6807E2840F0A9807E20B0E000208DF815
:105390000700002E304618BF0120FEF76FFE2F6871
:1053A0002520387170787871307800F00300307003
:1053B000B871B078F871F0787F2800F09A807E2874
:1053C00040F080807E2094E02868262102F006FCD0
:1053D000F17809E0286827210171317E4171717EE1
:1053E0008171B17EC171F17E0172B17F4172F17F35
:1053F0008172317FC172717F0173317A4173717A29
:1054000081732EE0002E3046DFF8508118BF012056
:105410000121C04738460121C0472868002818BF2D
:1054200001200121C0472868282102F0D7FB45E070
:10543000002E3046DFF8248118BF01200121C0472B
:1054400038460121C0472868002818BF01200121E3
:10545000C047286829210A22017105303146FDF72D
:1054600007FD0C200B2747E0284631462A2202F090
:1054700013FB2B2743E030462B2101E030462C2143
:105480002A4602F0B3FB1B2739E0304629460122A9
:1054900002F0C1FB082732E030462946002202F024
:1054A000BAFB06272BE040B20DF1050100F030FEFB
:1054B0009DF805007E2808BF7F20F8710427AF8182
:1054C0006F811CE040B20DF1070100F021FE9DF854
:1054D00007007E2808BF7F200BE040B20DF10601D7
:1054E00000F016FE9DF806007E2808BF7F20F871A8
:1054F0007078387208200527A8810420688168899F
:105500002968082202F0ABFB1321022C08BF0321FB
:1055100068892A6810441B2C00F8041C08D120312B
:1055200000F8041C317821F02001317000F8021CD1
:1055300000F8037C6889A9892A68043804316881E5
:1055400080B2A98189B2104408440121047101206C
:10555000FDF78EFE0020BDE8FC8100BF713202081D
:10556000F8B5002805460C4618BF0120164600F085
:10557000D7FE002C204618BF012000F0D1FEB5F860
:10558000980010F4C07F04BF1120F8BD686F90F838
:1055900031120739022903D390F83002072806D1C7
:1055A000112E19D801200E49B040084214D005F13F
:1055B0000C060C4F02F058FBA07B214640F0020085
:1055C000A073687E01306876304600F0B1FE38681E
:1055D00000F0C4FE0020F8BD05F18006E9E700BF39
:1055E0007C2C02008CD30020B0B590B005460EA8EC
:1055F0000C4602F03EFB9DF83E0029460C22234655
:105600008DF808000E984FEA3040019001A8FDF790
:10561000F7F810B0B0BD51F82040002C7047284674
:10562000FDF726BCB4F87C112046FEF78DBE600065
:105630000600F000F0006000F0B500F0B4F838BFEC
:105640001546042A28BF25462E1F01F0030418BF63
:105650002E469C4213D1A2EB060E04228B1984190C
:10566000F6B200279EFBF2FCBAB2B24213D28D5CB6
:10567000825CAA4232D30137AA42F5D919E000234D
:1056800014042DD09CB20D5D045DAC4226D310D81D
:10569000013A0133F4E71FFA8CF0002181420AD26B
:1056A00053F8216054F82150B54217D30131B54267
:1056B000F4D9012015E00C480EF0030200EA8C003A
:1056C0001918231800240120A24209D90D5D1E5D7E
:1056D000AE4203D30134AE42F6D902E0FF2000E02F
:1056E000002040B2F0BD00BFFCFF030080B58EB0CB
:1056F00013460A460146B0F8A601ADF80400B1F819
:10570000A801ADF80600B1F8AA01ADF80800B1F89B
:10571000AC01ADF80A0001A8FDF772F80EB080BD2B
:1057200001484078704700BFC4D10020054AD388A3
:1057300003701B0A437010890870000A487000202B
:10574000704700BFC4D10020FEB5002806460C46B5
:1057500018BF012002F09FFA0DF1070531462246DD
:105760002846FDF785FB0020552133220023844283
:1057700004BFD8B2FEBD2E5C01EA5607F61B02EA52
:10578000960706F033063E442E5406EB16160130FB
:1057900006F00F063344EAE794F830020028704719
:1057A000204602F07BBA00F00303C3F10404A242D6
:1057B000254670473846FDF75BBB30000600A00069
:1057C000A00030002DE9FE4FDFF828A3884681466F
:1057D0000020029001209AF82910012940F0D2807F
:1057E0009AF8091001F0C001402940F0CB80012057
:1057F0000AF104060DF1060B01218AF828000320A6
:1058000032465B46FFF708FA0746002840F03C8125
:105810009DF80600C10760D19AF82D1005290AD11C
:105820009AF8381041F00201032904D102F05CFA21
:10583000400740F128810DF1060102AA0DF107038E
:105840000320FFF71BF9029A002A00F094809DF8CC
:1058500007100DF10603CAF82420881C8AF82A00D4
:105860000620FFF7D9F90746002840F00D819DF882
:105870000610C80703D106200022FFF75BFA9F4CF1
:105880000120D4F8BC1000297CD09AF82C100329F0
:1058900078D102990AF11C0001F0E1FD002870D1D5
:1058A0009AF83E009DF8071088426AD1D4F8BC00EF
:1058B00031460622FDF7DCFAD4F8BC009AF829102C
:1058C00006220176DAF824101030FDF7D1FAD4F868
:1058D000BC009AF82A10817653E0874C0025052DEC
:1058E0000DD0207E012807D104F13000314600227E
:1058F00002F002FA0F281FD144340135EFE7B9F165
:10590000000F00F0AB8002F028FA70B107460728BC
:1059100040F0BA8002F02AFA0746002840F0B4802E
:1059200002F01BFA002840F0E0809DF806100020ED
:105930000122FFF7FFF914E00746002840F0A48099
:10594000607EEAB22346CAF82440811C009040469B
:105950008AF82A10494602F00DFA0746002840F05E
:1059600093809AF82C10002003290BD19AF82D105F
:10597000012906D006E09AF82900CAF824608AF8BE
:105980002A0001209AF82C200121032A0BD19AF831
:105990002D20012A07D19AF8391001F0FE010229C1
:1059A0000CBF002101219AF811209AF82B30002712
:1059B00002F0C00283F0010382F040021A43B2FAFF
:1059C00082F25209104001285ED18AF8287011B184
:1059D000B9F1010F1FD1484800260AF10C04002735
:1059E00000F12005052E17D0284602F0CDFA0F2829
:1059F00003D1443501360F27F4E70746002843D189
:105A00009AF82B00F2B2494623460090404602F035
:105A1000B1F90746C0BB00270F2F35D19AF82C00EB
:105A2000032831D19AF8390000F0FE0002282AD16B
:105A30000AF10C040DF106059AF82B1004202246F9
:105A40002B46FFF7E9F80746F0B99DF80600C007B6
:105A50001DD1012000278AF83B0015E09AF82D009F
:105A600005280AD19AF8380040F0020003280AD02D
:105A70009AF82C00012806D01AE0092818D19AF8C3
:105A80002C00092814D10F273846BDE8FE8F02F0FC
:105A90007FFA58B107460728F6D1042002F080FAB1
:105AA00007460028F0D102F073FAF0B91F27EBE7A0
:105AB0009AF82920002003213346CAF82460CDF843
:105AC00000B08AF82A20FEF7DDFE00283FF449AF37
:105AD00007460728D8D102F049F907460028D3D154
